{
  "abi": [
    {
      "inputs": [
        {
          "internalType": "address",
          "name": "_owner",
          "type": "address"
        },
        {
          "internalType": "string",
          "name": "_name",
          "type": "string"
        },
        {
          "internalType": "string",
          "name": "_description",
          "type": "string"
        },
        {
          "internalType": "string",
          "name": "_image",
          "type": "string"
        },
        {
          "internalType": "uint256",
          "name": "_goalInWei",
          "type": "uint256"
        },
        {
          "internalType": "uint256",
          "name": "_durationInDays",
          "type": "uint256"
        },
        {
          "internalType": "enum Crowdfunding.Category",
          "name": "_category",
          "type": "uint8"
        }
      ],
      "stateMutability": "nonpayable",
      "type": "constructor"
    },
    {
      "anonymous": false,
      "inputs": [
        {
          "indexed": false,
          "internalType": "enum Crowdfunding.CampaignState",
          "name": "newState",
          "type": "uint8"
        }
      ],
      "name": "CampaignStateChanged",
      "type": "event"
    },
    {
      "anonymous": false,
      "inputs": [
        {
          "indexed": true,
          "internalType": "address",
          "name": "backer",
          "type": "address"
        },
        {
          "indexed": false,
          "internalType": "uint256",
          "name": "amount",
          "type": "uint256"
        },
        {
          "indexed": false,
          "internalType": "uint256",
          "name": "totalContribution",
          "type": "uint256"
        }
      ],
      "name": "Funded",
      "type": "event"
    },
    {
      "anonymous": false,
      "inputs": [
        {
          "indexed": true,
          "internalType": "address",
          "name": "backer",
          "type": "address"
        },
        {
          "indexed": false,
          "internalType": "uint256",
          "name": "amount",
          "type": "uint256"
        }
      ],
      "name": "Refunded",
      "type": "event"
    },
    {
      "anonymous": false,
      "inputs": [
        {
          "indexed": true,
          "internalType": "address",
          "name": "owner",
          "type": "address"
        },
        {
          "indexed": false,
          "internalType": "uint256",
          "name": "amount",
          "type": "uint256"
        }
      ],
      "name": "Withdrawal",
      "type": "event"
    },
    {
      "inputs": [],
      "name": "Pause",
      "outputs": [],
      "stateMutability": "nonpayable",
      "type": "function"
    },
    {
      "inputs": [
        {
          "internalType": "string",
          "name": "_description",
          "type": "string"
        },
        {
          "internalType": "uint256",
          "name": "_requiredAmountInWei",
          "type": "uint256"
        }
      ],
      "name": "addRewardTier",
      "outputs": [],
      "stateMutability": "nonpayable",
      "type": "function"
    },
    {
      "inputs": [
        {
          "internalType": "address",
          "name": "",
          "type": "address"
        }
      ],
      "name": "backers",
      "outputs": [
        {
          "internalType": "uint256",
          "name": "totalContribution",
          "type": "uint256"
        },
        {
          "internalType": "bool",
          "name": "hasClaimedRefund",
          "type": "bool"
        }
      ],
      "stateMutability": "view",
      "type": "function"
    },
    {
      "inputs": [],
      "name": "category",
      "outputs": [
        {
          "internalType": "enum Crowdfunding.Category",
          "name": "",
          "type": "uint8"
        }
      ],
      "stateMutability": "view",
      "type": "function"
    },
    {
      "inputs": [],
      "name": "deadline",
      "outputs": [
        {
          "internalType": "uint256",
          "name": "",
          "type": "uint256"
        }
      ],
      "stateMutability": "view",
      "type": "function"
    },
    {
      "inputs": [],
      "name": "description",
      "outputs": [
        {
          "internalType": "string",
          "name": "",
          "type": "string"
        }
      ],
      "stateMutability": "view",
      "type": "function"
    },
    {
      "inputs": [
        {
          "internalType": "uint256",
          "name": "_daysToAdd",
          "type": "uint256"
        }
      ],
      "name": "extendDeadline",
      "outputs": [],
      "stateMutability": "nonpayable",
      "type": "function"
    },
    {
      "inputs": [],
      "name": "fund",
      "outputs": [],
      "stateMutability": "payable",
      "type": "function"
    },
    {
      "inputs": [
        {
          "internalType": "address",
          "name": "_backer",
          "type": "address"
        }
      ],
      "name": "getBackerContribution",
      "outputs": [
        {
          "internalType": "uint256",
          "name": "",
          "type": "uint256"
        }
      ],
      "stateMutability": "view",
      "type": "function"
    },
    {
      "inputs": [],
      "name": "getCampaignDetails",
      "outputs": [
        {
          "internalType": "string",
          "name": "",
          "type": "string"
        },
        {
          "internalType": "string",
          "name": "",
          "type": "string"
        },
        {
          "internalType": "string",
          "name": "",
          "type": "string"
        },
        {
          "internalType": "uint256",
          "name": "",
          "type": "uint256"
        },
        {
          "internalType": "uint256",
          "name": "",
          "type": "uint256"
        },
        {
          "internalType": "address",
          "name": "",
          "type": "address"
        },
        {
          "internalType": "enum Crowdfunding.CampaignState",
          "name": "",
          "type": "uint8"
        },
        {
          "internalType": "enum Crowdfunding.Category",
          "name": "",
          "type": "uint8"
        },
        {
          "internalType": "uint256",
          "name": "",
          "type": "uint256"
        }
      ],
      "stateMutability": "view",
      "type": "function"
    },
    {
      "inputs": [],
      "name": "getRewardTiers",
      "outputs": [
        {
          "components": [
            {
              "internalType": "string",
              "name": "description",
              "type": "string"
            },
            {
              "internalType": "uint256",
              "name": "requiredAmount",
              "type": "uint256"
            }
          ],
          "internalType": "struct Crowdfunding.RewardTier[]",
          "name": "",
          "type": "tuple[]"
        }
      ],
      "stateMutability": "view",
      "type": "function"
    },
    {
      "inputs": [],
      "name": "goal",
      "outputs": [
        {
          "internalType": "uint256",
          "name": "",
          "type": "uint256"
        }
      ],
      "stateMutability": "view",
      "type": "function"
    },
    {
      "inputs": [],
      "name": "image",
      "outputs": [
        {
          "internalType": "string",
          "name": "",
          "type": "string"
        }
      ],
      "stateMutability": "view",
      "type": "function"
    },
    {
      "inputs": [],
      "name": "manualStopCampaign",
      "outputs": [],
      "stateMutability": "nonpayable",
      "type": "function"
    },
    {
      "inputs": [],
      "name": "name",
      "outputs": [
        {
          "internalType": "string",
          "name": "",
          "type": "string"
        }
      ],
      "stateMutability": "view",
      "type": "function"
    },
    {
      "inputs": [],
      "name": "owner",
      "outputs": [
        {
          "internalType": "address",
          "name": "",
          "type": "address"
        }
      ],
      "stateMutability": "view",
      "type": "function"
    },
    {
      "inputs": [],
      "name": "paused",
      "outputs": [
        {
          "internalType": "bool",
          "name": "",
          "type": "bool"
        }
      ],
      "stateMutability": "view",
      "type": "function"
    },
    {
      "inputs": [],
      "name": "refund",
      "outputs": [],
      "stateMutability": "nonpayable",
      "type": "function"
    },
    {
      "inputs": [
        {
          "internalType": "uint256",
          "name": "_index",
          "type": "uint256"
        }
      ],
      "name": "removeRewardTier",
      "outputs": [],
      "stateMutability": "nonpayable",
      "type": "function"
    },
    {
      "inputs": [
        {
          "internalType": "uint256",
          "name": "",
          "type": "uint256"
        }
      ],
      "name": "rewardTiers",
      "outputs": [
        {
          "internalType": "string",
          "name": "description",
          "type": "string"
        },
        {
          "internalType": "uint256",
          "name": "requiredAmount",
          "type": "uint256"
        }
      ],
      "stateMutability": "view",
      "type": "function"
    },
    {
      "inputs": [],
      "name": "state",
      "outputs": [
        {
          "internalType": "enum Crowdfunding.CampaignState",
          "name": "",
          "type": "uint8"
        }
      ],
      "stateMutability": "view",
      "type": "function"
    },
    {
      "inputs": [],
      "name": "totalCollected",
      "outputs": [
        {
          "internalType": "uint256",
          "name": "",
          "type": "uint256"
        }
      ],
      "stateMutability": "view",
      "type": "function"
    },
    {
      "inputs": [],
      "name": "withdraw",
      "outputs": [],
      "stateMutability": "nonpayable",
      "type": "function"
    }
  ],
  "devdoc": {
    "author": "Nguyen Khoa Quang Duy",
    "kind": "dev",
    "methods": {
      "addRewardTier(string,uint256)": {
        "params": {
          "_description": "Mô tả về phần thưởng (ví dụ: \"Áo thun độc quyền\").",
          "_requiredAmountInWei": "Số tiền tối thiểu cần ủng hộ"
        }
      },
      "manualStopCampaign()": {
        "details": "Sẽ chuyển trạng thái sang Successful nếu đủ mục tiêu, ngược lại chuyển sang Failed (để hoàn tiền)."
      },
      "removeRewardTier(uint256)": {
        "details": "Chỉ có thể xóa khi chiến dịch chưa nhận được bất kỳ khoản tiền nào.",
        "params": {
          "_index": "Chỉ số (index) của mốc phần thưởng cần xóa."
        }
      }
    },
    "title": "Crowdfunding",
    "version": 1
  },
  "evm": {
    "assembly": "    /* \"Crowdfunding.sol\":129:7863  contract Crowdfunding {... */\n  mstore(0x40, 0x80)\n    /* \"Crowdfunding.sol\":1815:2426  constructor(... */\n  callvalue\n  dup1\n  iszero\n  tag_1\n  jumpi\n  0x00\n  dup1\n  revert\ntag_1:\n  pop\n  mload(0x40)\n  sub(codesize, bytecodeSize)\n  dup1\n  bytecodeSize\n  dup4\n  codecopy\n  dup2\n  add\n  0x40\n  dup2\n  swap1\n  mstore\n  tag_2\n  swap2\n  tag_3\n  jump\t// in\ntag_2:\n    /* \"Crowdfunding.sol\":2154:2159  owner */\n  0x05\n    /* \"Crowdfunding.sol\":2154:2168  owner = _owner */\n  dup1\n  sload\n  not(sub(shl(0xa0, 0x01), 0x01))\n  and\n  sub(shl(0xa0, 0x01), 0x01)\n  dup10\n  and\n  or\n  swap1\n  sstore\n  0x00\n    /* \"Crowdfunding.sol\":2179:2191  name = _name */\n  tag_6\n    /* \"Crowdfunding.sol\":2186:2191  _name */\n  dup8\n  dup3\n    /* \"Crowdfunding.sol\":2179:2191  name = _name */\n  tag_7\n  jump\t// in\ntag_6:\n  pop\n    /* \"Crowdfunding.sol\":2202:2213  description */\n  0x01\n    /* \"Crowdfunding.sol\":2202:2228  description = _description */\n  tag_8\n    /* \"Crowdfunding.sol\":2216:2228  _description */\n  dup7\n    /* \"Crowdfunding.sol\":2202:2213  description */\n  dup3\n    /* \"Crowdfunding.sol\":2202:2228  description = _description */\n  tag_7\n  jump\t// in\ntag_8:\n  pop\n    /* \"Crowdfunding.sol\":2239:2244  image */\n  0x02\n    /* \"Crowdfunding.sol\":2239:2253  image = _image */\n  tag_9\n    /* \"Crowdfunding.sol\":2247:2253  _image */\n  dup6\n    /* \"Crowdfunding.sol\":2239:2244  image */\n  dup3\n    /* \"Crowdfunding.sol\":2239:2253  image = _image */\n  tag_7\n  jump\t// in\ntag_9:\n  pop\n    /* \"Crowdfunding.sol\":2264:2268  goal */\n  0x03\n    /* \"Crowdfunding.sol\":2264:2281  goal = _goalInWei */\n  dup4\n  swap1\n  sstore\n    /* \"Crowdfunding.sol\":2323:2347  _durationInDays * 1 days */\n  tag_10\n    /* \"Crowdfunding.sol\":2323:2338  _durationInDays */\n  dup3\n    /* \"Crowdfunding.sol\":2341:2347  1 days */\n  0x015180\n    /* \"Crowdfunding.sol\":2323:2347  _durationInDays * 1 days */\n  tag_11\n  jump\t// in\ntag_10:\n    /* \"Crowdfunding.sol\":2304:2348  block.timestamp + (_durationInDays * 1 days) */\n  tag_12\n  swap1\n    /* \"Crowdfunding.sol\":2304:2319  block.timestamp */\n  timestamp\n    /* \"Crowdfunding.sol\":2304:2348  block.timestamp + (_durationInDays * 1 days) */\n  tag_13\n  jump\t// in\ntag_12:\n    /* \"Crowdfunding.sol\":2293:2301  deadline */\n  0x04\n    /* \"Crowdfunding.sol\":2293:2348  deadline = block.timestamp + (_durationInDays * 1 days) */\n  sstore\n    /* \"Crowdfunding.sol\":2359:2364  state */\n  0x05\n    /* \"Crowdfunding.sol\":2359:2387  state = CampaignState.Active */\n  dup1\n  sload\n  not(shl(0xb0, 0xff))\n  dup2\n  and\n  dup3\n  sstore\n    /* \"Crowdfunding.sol\":2409:2418  _category */\n  dup3\n  swap2\n    /* \"Crowdfunding.sol\":2359:2364  state */\n  swap1\n  not(shl(0xa8, 0xffff))\n    /* \"Crowdfunding.sol\":2398:2418  category = _category */\n  and\n  shl(0xa8, 0x01)\n    /* \"Crowdfunding.sol\":2409:2418  _category */\n  dup4\n    /* \"Crowdfunding.sol\":2398:2418  category = _category */\n  0x06\n  dup2\n  gt\n  iszero\n  tag_18\n  jumpi\n  tag_18\n  tag_16\n  jump\t// in\ntag_18:\n  mul\n  or\n  swap1\n  sstore\n  pop\n    /* \"Crowdfunding.sol\":1815:2426  constructor(... */\n  pop\n  pop\n  pop\n  pop\n  pop\n  pop\n  pop\n    /* \"Crowdfunding.sol\":129:7863  contract Crowdfunding {... */\n  jump(tag_28)\n    /* \"#utility.yul\":14:141   */\ntag_20:\n    /* \"#utility.yul\":75:85   */\n  0x4e487b71\n    /* \"#utility.yul\":70:73   */\n  0xe0\n    /* \"#utility.yul\":66:86   */\n  shl\n    /* \"#utility.yul\":63:64   */\n  0x00\n    /* \"#utility.yul\":56:87   */\n  mstore\n    /* \"#utility.yul\":106:110   */\n  0x41\n    /* \"#utility.yul\":103:104   */\n  0x04\n    /* \"#utility.yul\":96:111   */\n  mstore\n    /* \"#utility.yul\":130:134   */\n  0x24\n    /* \"#utility.yul\":127:128   */\n  0x00\n    /* \"#utility.yul\":120:135   */\n  revert\n    /* \"#utility.yul\":146:862   */\ntag_21:\n    /* \"#utility.yul\":200:205   */\n  0x00\n    /* \"#utility.yul\":253:256   */\n  dup3\n    /* \"#utility.yul\":246:250   */\n  0x1f\n    /* \"#utility.yul\":238:244   */\n  dup4\n    /* \"#utility.yul\":234:251   */\n  add\n    /* \"#utility.yul\":230:257   */\n  slt\n    /* \"#utility.yul\":220:275   */\n  tag_31\n  jumpi\n    /* \"#utility.yul\":271:272   */\n  0x00\n    /* \"#utility.yul\":268:269   */\n  dup1\n    /* \"#utility.yul\":261:273   */\n  revert\n    /* \"#utility.yul\":220:275   */\ntag_31:\n    /* \"#utility.yul\":294:307   */\n  dup2\n  mload\n  sub(shl(0x40, 0x01), 0x01)\n    /* \"#utility.yul\":356:366   */\n  dup1\n  dup3\n  gt\n    /* \"#utility.yul\":353:389   */\n  iszero\n  tag_33\n  jumpi\n    /* \"#utility.yul\":369:387   */\n  tag_33\n  tag_20\n  jump\t// in\ntag_33:\n    /* \"#utility.yul\":444:446   */\n  0x40\n    /* \"#utility.yul\":438:447   */\n  mload\n    /* \"#utility.yul\":412:414   */\n  0x1f\n    /* \"#utility.yul\":498:511   */\n  dup4\n  add\n  not(0x1f)\n    /* \"#utility.yul\":494:516   */\n  swap1\n  dup2\n  and\n    /* \"#utility.yul\":518:520   */\n  0x3f\n    /* \"#utility.yul\":490:521   */\n  add\n    /* \"#utility.yul\":486:526   */\n  and\n    /* \"#utility.yul\":474:527   */\n  dup2\n  add\n  swap1\n    /* \"#utility.yul\":542:560   */\n  dup3\n  dup3\n  gt\n    /* \"#utility.yul\":562:584   */\n  dup2\n  dup4\n  lt\n    /* \"#utility.yul\":539:585   */\n  or\n    /* \"#utility.yul\":536:608   */\n  iszero\n  tag_35\n  jumpi\n    /* \"#utility.yul\":588:606   */\n  tag_35\n  tag_20\n  jump\t// in\ntag_35:\n    /* \"#utility.yul\":628:638   */\n  dup2\n    /* \"#utility.yul\":624:626   */\n  0x40\n    /* \"#utility.yul\":617:639   */\n  mstore\n    /* \"#utility.yul\":663:665   */\n  dup4\n    /* \"#utility.yul\":655:661   */\n  dup2\n    /* \"#utility.yul\":648:666   */\n  mstore\n    /* \"#utility.yul\":709:712   */\n  dup7\n    /* \"#utility.yul\":702:706   */\n  0x20\n    /* \"#utility.yul\":697:699   */\n  dup6\n    /* \"#utility.yul\":689:695   */\n  dup9\n    /* \"#utility.yul\":685:700   */\n  add\n    /* \"#utility.yul\":681:707   */\n  add\n    /* \"#utility.yul\":678:713   */\n  gt\n    /* \"#utility.yul\":675:730   */\n  iszero\n  tag_36\n  jumpi\n    /* \"#utility.yul\":726:727   */\n  0x00\n    /* \"#utility.yul\":723:724   */\n  dup1\n    /* \"#utility.yul\":716:728   */\n  revert\n    /* \"#utility.yul\":675:730   */\ntag_36:\n    /* \"#utility.yul\":783:785   */\n  dup4\n    /* \"#utility.yul\":776:780   */\n  0x20\n    /* \"#utility.yul\":768:774   */\n  dup8\n    /* \"#utility.yul\":764:781   */\n  add\n    /* \"#utility.yul\":757:761   */\n  0x20\n    /* \"#utility.yul\":749:755   */\n  dup4\n    /* \"#utility.yul\":745:762   */\n  add\n    /* \"#utility.yul\":739:786   */\n  mcopy\n    /* \"#utility.yul\":830:831   */\n  0x00\n    /* \"#utility.yul\":823:827   */\n  0x20\n    /* \"#utility.yul\":818:820   */\n  dup6\n    /* \"#utility.yul\":810:816   */\n  dup4\n    /* \"#utility.yul\":806:821   */\n  add\n    /* \"#utility.yul\":802:828   */\n  add\n    /* \"#utility.yul\":795:832   */\n  mstore\n    /* \"#utility.yul\":850:856   */\n  dup1\n    /* \"#utility.yul\":841:856   */\n  swap5\n  pop\n  pop\n  pop\n  pop\n  pop\n    /* \"#utility.yul\":146:862   */\n  swap3\n  swap2\n  pop\n  pop\n  jump\t// out\n    /* \"#utility.yul\":867:1020   */\ntag_22:\n    /* \"#utility.yul\":952:965   */\n  dup1\n  mload\n    /* \"#utility.yul\":994:995   */\n  0x07\n    /* \"#utility.yul\":984:996   */\n  dup2\n  lt\n    /* \"#utility.yul\":974:1014   */\n  tag_38\n  jumpi\n    /* \"#utility.yul\":1010:1011   */\n  0x00\n    /* \"#utility.yul\":1007:1008   */\n  dup1\n    /* \"#utility.yul\":1000:1012   */\n  revert\n    /* \"#utility.yul\":974:1014   */\ntag_38:\n    /* \"#utility.yul\":867:1020   */\n  swap2\n  swap1\n  pop\n  jump\t// out\n    /* \"#utility.yul\":1025:2186   */\ntag_3:\n    /* \"#utility.yul\":1190:1196   */\n  0x00\n    /* \"#utility.yul\":1198:1204   */\n  dup1\n    /* \"#utility.yul\":1206:1212   */\n  0x00\n    /* \"#utility.yul\":1214:1220   */\n  dup1\n    /* \"#utility.yul\":1222:1228   */\n  0x00\n    /* \"#utility.yul\":1230:1236   */\n  dup1\n    /* \"#utility.yul\":1238:1244   */\n  0x00\n    /* \"#utility.yul\":1291:1294   */\n  0xe0\n    /* \"#utility.yul\":1279:1288   */\n  dup9\n    /* \"#utility.yul\":1270:1277   */\n  dup11\n    /* \"#utility.yul\":1266:1289   */\n  sub\n    /* \"#utility.yul\":1262:1295   */\n  slt\n    /* \"#utility.yul\":1259:1312   */\n  iszero\n  tag_40\n  jumpi\n    /* \"#utility.yul\":1308:1309   */\n  0x00\n    /* \"#utility.yul\":1305:1306   */\n  dup1\n    /* \"#utility.yul\":1298:1310   */\n  revert\n    /* \"#utility.yul\":1259:1312   */\ntag_40:\n    /* \"#utility.yul\":1334:1350   */\n  dup8\n  mload\n  sub(shl(0xa0, 0x01), 0x01)\n    /* \"#utility.yul\":1379:1410   */\n  dup2\n  and\n    /* \"#utility.yul\":1369:1411   */\n  dup2\n  eq\n    /* \"#utility.yul\":1359:1429   */\n  tag_41\n  jumpi\n    /* \"#utility.yul\":1425:1426   */\n  0x00\n    /* \"#utility.yul\":1422:1423   */\n  dup1\n    /* \"#utility.yul\":1415:1427   */\n  revert\n    /* \"#utility.yul\":1359:1429   */\ntag_41:\n    /* \"#utility.yul\":1497:1499   */\n  0x20\n    /* \"#utility.yul\":1482:1500   */\n  dup10\n  add\n    /* \"#utility.yul\":1476:1501   */\n  mload\n    /* \"#utility.yul\":1448:1453   */\n  swap1\n  swap8\n  pop\n  sub(shl(0x40, 0x01), 0x01)\n    /* \"#utility.yul\":1550:1564   */\n  dup1\n  dup3\n  gt\n    /* \"#utility.yul\":1547:1581   */\n  iszero\n  tag_42\n  jumpi\n    /* \"#utility.yul\":1577:1578   */\n  0x00\n    /* \"#utility.yul\":1574:1575   */\n  dup1\n    /* \"#utility.yul\":1567:1579   */\n  revert\n    /* \"#utility.yul\":1547:1581   */\ntag_42:\n    /* \"#utility.yul\":1600:1661   */\n  tag_43\n    /* \"#utility.yul\":1653:1660   */\n  dup12\n    /* \"#utility.yul\":1644:1650   */\n  dup4\n    /* \"#utility.yul\":1633:1642   */\n  dup13\n    /* \"#utility.yul\":1629:1651   */\n  add\n    /* \"#utility.yul\":1600:1661   */\n  tag_21\n  jump\t// in\ntag_43:\n    /* \"#utility.yul\":1590:1661   */\n  swap8\n  pop\n    /* \"#utility.yul\":1707:1709   */\n  0x40\n    /* \"#utility.yul\":1696:1705   */\n  dup11\n    /* \"#utility.yul\":1692:1710   */\n  add\n    /* \"#utility.yul\":1686:1711   */\n  mload\n    /* \"#utility.yul\":1670:1711   */\n  swap2\n  pop\n    /* \"#utility.yul\":1736:1738   */\n  dup1\n    /* \"#utility.yul\":1726:1734   */\n  dup3\n    /* \"#utility.yul\":1723:1739   */\n  gt\n    /* \"#utility.yul\":1720:1756   */\n  iszero\n  tag_44\n  jumpi\n    /* \"#utility.yul\":1752:1753   */\n  0x00\n    /* \"#utility.yul\":1749:1750   */\n  dup1\n    /* \"#utility.yul\":1742:1754   */\n  revert\n    /* \"#utility.yul\":1720:1756   */\ntag_44:\n    /* \"#utility.yul\":1775:1838   */\n  tag_45\n    /* \"#utility.yul\":1830:1837   */\n  dup12\n    /* \"#utility.yul\":1819:1827   */\n  dup4\n    /* \"#utility.yul\":1808:1817   */\n  dup13\n    /* \"#utility.yul\":1804:1828   */\n  add\n    /* \"#utility.yul\":1775:1838   */\n  tag_21\n  jump\t// in\ntag_45:\n    /* \"#utility.yul\":1765:1838   */\n  swap7\n  pop\n    /* \"#utility.yul\":1884:1886   */\n  0x60\n    /* \"#utility.yul\":1873:1882   */\n  dup11\n    /* \"#utility.yul\":1869:1887   */\n  add\n    /* \"#utility.yul\":1863:1888   */\n  mload\n    /* \"#utility.yul\":1847:1888   */\n  swap2\n  pop\n    /* \"#utility.yul\":1913:1915   */\n  dup1\n    /* \"#utility.yul\":1903:1911   */\n  dup3\n    /* \"#utility.yul\":1900:1916   */\n  gt\n    /* \"#utility.yul\":1897:1933   */\n  iszero\n  tag_46\n  jumpi\n    /* \"#utility.yul\":1929:1930   */\n  0x00\n    /* \"#utility.yul\":1926:1927   */\n  dup1\n    /* \"#utility.yul\":1919:1931   */\n  revert\n    /* \"#utility.yul\":1897:1933   */\ntag_46:\n  pop\n    /* \"#utility.yul\":1952:2015   */\n  tag_47\n    /* \"#utility.yul\":2007:2014   */\n  dup11\n    /* \"#utility.yul\":1996:2004   */\n  dup3\n    /* \"#utility.yul\":1985:1994   */\n  dup12\n    /* \"#utility.yul\":1981:2005   */\n  add\n    /* \"#utility.yul\":1952:2015   */\n  tag_21\n  jump\t// in\ntag_47:\n    /* \"#utility.yul\":1942:2015   */\n  swap5\n  pop\n  pop\n    /* \"#utility.yul\":2055:2058   */\n  0x80\n    /* \"#utility.yul\":2044:2053   */\n  dup9\n    /* \"#utility.yul\":2040:2059   */\n  add\n    /* \"#utility.yul\":2034:2060   */\n  mload\n    /* \"#utility.yul\":2024:2060   */\n  swap3\n  pop\n    /* \"#utility.yul\":2100:2103   */\n  0xa0\n    /* \"#utility.yul\":2089:2098   */\n  dup9\n    /* \"#utility.yul\":2085:2104   */\n  add\n    /* \"#utility.yul\":2079:2105   */\n  mload\n    /* \"#utility.yul\":2069:2105   */\n  swap2\n  pop\n    /* \"#utility.yul\":2124:2180   */\n  tag_48\n    /* \"#utility.yul\":2175:2178   */\n  0xc0\n    /* \"#utility.yul\":2164:2173   */\n  dup10\n    /* \"#utility.yul\":2160:2179   */\n  add\n    /* \"#utility.yul\":2124:2180   */\n  tag_22\n  jump\t// in\ntag_48:\n    /* \"#utility.yul\":2114:2180   */\n  swap1\n  pop\n    /* \"#utility.yul\":1025:2186   */\n  swap3\n  swap6\n  swap9\n  swap2\n  swap5\n  swap8\n  pop\n  swap3\n  swap6\n  pop\n  jump\t// out\n    /* \"#utility.yul\":2191:2571   */\ntag_23:\n    /* \"#utility.yul\":2270:2271   */\n  0x01\n    /* \"#utility.yul\":2266:2278   */\n  dup2\n  dup2\n  shr\n  swap1\n    /* \"#utility.yul\":2313:2325   */\n  dup3\n  and\n  dup1\n    /* \"#utility.yul\":2334:2395   */\n  tag_50\n  jumpi\n    /* \"#utility.yul\":2388:2392   */\n  0x7f\n    /* \"#utility.yul\":2380:2386   */\n  dup3\n    /* \"#utility.yul\":2376:2393   */\n  and\n    /* \"#utility.yul\":2366:2393   */\n  swap2\n  pop\n    /* \"#utility.yul\":2334:2395   */\ntag_50:\n    /* \"#utility.yul\":2441:2443   */\n  0x20\n    /* \"#utility.yul\":2433:2439   */\n  dup3\n    /* \"#utility.yul\":2430:2444   */\n  lt\n    /* \"#utility.yul\":2410:2428   */\n  dup2\n    /* \"#utility.yul\":2407:2445   */\n  sub\n    /* \"#utility.yul\":2404:2565   */\n  tag_51\n  jumpi\n    /* \"#utility.yul\":2487:2497   */\n  0x4e487b71\n    /* \"#utility.yul\":2482:2485   */\n  0xe0\n    /* \"#utility.yul\":2478:2498   */\n  shl\n    /* \"#utility.yul\":2475:2476   */\n  0x00\n    /* \"#utility.yul\":2468:2499   */\n  mstore\n    /* \"#utility.yul\":2522:2526   */\n  0x22\n    /* \"#utility.yul\":2519:2520   */\n  0x04\n    /* \"#utility.yul\":2512:2527   */\n  mstore\n    /* \"#utility.yul\":2550:2554   */\n  0x24\n    /* \"#utility.yul\":2547:2548   */\n  0x00\n    /* \"#utility.yul\":2540:2555   */\n  revert\n    /* \"#utility.yul\":2404:2565   */\ntag_51:\n  pop\n    /* \"#utility.yul\":2191:2571   */\n  swap2\n  swap1\n  pop\n  jump\t// out\n    /* \"#utility.yul\":2702:3220   */\ntag_25:\n    /* \"#utility.yul\":2804:2806   */\n  0x1f\n    /* \"#utility.yul\":2799:2802   */\n  dup3\n    /* \"#utility.yul\":2796:2807   */\n  gt\n    /* \"#utility.yul\":2793:3214   */\n  iszero\n  tag_54\n  jumpi\n    /* \"#utility.yul\":2840:2845   */\n  dup1\n    /* \"#utility.yul\":2837:2838   */\n  0x00\n    /* \"#utility.yul\":2830:2846   */\n  mstore\n    /* \"#utility.yul\":2884:2888   */\n  0x20\n    /* \"#utility.yul\":2881:2882   */\n  0x00\n    /* \"#utility.yul\":2871:2889   */\n  keccak256\n    /* \"#utility.yul\":2954:2956   */\n  0x1f\n    /* \"#utility.yul\":2942:2952   */\n  dup5\n    /* \"#utility.yul\":2938:2957   */\n  add\n    /* \"#utility.yul\":2935:2936   */\n  0x05\n    /* \"#utility.yul\":2931:2958   */\n  shr\n    /* \"#utility.yul\":2925:2929   */\n  dup2\n    /* \"#utility.yul\":2921:2959   */\n  add\n    /* \"#utility.yul\":2990:2994   */\n  0x20\n    /* \"#utility.yul\":2978:2988   */\n  dup6\n    /* \"#utility.yul\":2975:2995   */\n  lt\n    /* \"#utility.yul\":2972:3019   */\n  iszero\n  tag_55\n  jumpi\n  pop\n    /* \"#utility.yul\":3013:3017   */\n  dup1\n    /* \"#utility.yul\":2972:3019   */\ntag_55:\n    /* \"#utility.yul\":3068:3070   */\n  0x1f\n    /* \"#utility.yul\":3063:3066   */\n  dup5\n    /* \"#utility.yul\":3059:3071   */\n  add\n    /* \"#utility.yul\":3056:3057   */\n  0x05\n    /* \"#utility.yul\":3052:3072   */\n  shr\n    /* \"#utility.yul\":3046:3050   */\n  dup3\n    /* \"#utility.yul\":3042:3073   */\n  add\n    /* \"#utility.yul\":3032:3073   */\n  swap2\n  pop\n    /* \"#utility.yul\":3123:3204   */\ntag_56:\n    /* \"#utility.yul\":3141:3143   */\n  dup2\n    /* \"#utility.yul\":3134:3139   */\n  dup2\n    /* \"#utility.yul\":3131:3144   */\n  lt\n    /* \"#utility.yul\":3123:3204   */\n  iszero\n  tag_58\n  jumpi\n    /* \"#utility.yul\":3200:3201   */\n  0x00\n    /* \"#utility.yul\":3186:3202   */\n  dup2\n  sstore\n    /* \"#utility.yul\":3167:3168   */\n  0x01\n    /* \"#utility.yul\":3156:3169   */\n  add\n    /* \"#utility.yul\":3123:3204   */\n  jump(tag_56)\ntag_58:\n    /* \"#utility.yul\":3127:3130   */\n  pop\n  pop\n    /* \"#utility.yul\":2793:3214   */\ntag_54:\n    /* \"#utility.yul\":2702:3220   */\n  pop\n  pop\n  pop\n  jump\t// out\n    /* \"#utility.yul\":3396:4741   */\ntag_7:\n    /* \"#utility.yul\":3516:3526   */\n  dup2\n  mload\n  sub(shl(0x40, 0x01), 0x01)\n    /* \"#utility.yul\":3538:3568   */\n  dup2\n  gt\n    /* \"#utility.yul\":3535:3591   */\n  iszero\n  tag_62\n  jumpi\n    /* \"#utility.yul\":3571:3589   */\n  tag_62\n  tag_20\n  jump\t// in\ntag_62:\n    /* \"#utility.yul\":3600:3697   */\n  tag_63\n    /* \"#utility.yul\":3690:3696   */\n  dup2\n    /* \"#utility.yul\":3650:3688   */\n  tag_64\n    /* \"#utility.yul\":3682:3686   */\n  dup5\n    /* \"#utility.yul\":3676:3687   */\n  sload\n    /* \"#utility.yul\":3650:3688   */\n  tag_23\n  jump\t// in\ntag_64:\n    /* \"#utility.yul\":3644:3648   */\n  dup5\n    /* \"#utility.yul\":3600:3697   */\n  tag_25\n  jump\t// in\ntag_63:\n    /* \"#utility.yul\":3752:3756   */\n  0x20\n  dup1\n    /* \"#utility.yul\":3809:3811   */\n  0x1f\n    /* \"#utility.yul\":3798:3812   */\n  dup4\n  gt\n    /* \"#utility.yul\":3826:3827   */\n  0x01\n    /* \"#utility.yul\":3821:4484   */\n  dup2\n  eq\n  tag_66\n  jumpi\n    /* \"#utility.yul\":4528:4529   */\n  0x00\n    /* \"#utility.yul\":4545:4551   */\n  dup5\n    /* \"#utility.yul\":4542:4631   */\n  iszero\n  tag_67\n  jumpi\n  pop\n    /* \"#utility.yul\":4597:4616   */\n  dup6\n  dup4\n  add\n    /* \"#utility.yul\":4591:4617   */\n  mload\n    /* \"#utility.yul\":4542:4631   */\ntag_67:\n  not(0x00)\n    /* \"#utility.yul\":3353:3354   */\n  0x03\n    /* \"#utility.yul\":3349:3360   */\n  dup7\n  swap1\n  shl\n    /* \"#utility.yul\":3345:3369   */\n  shr\n    /* \"#utility.yul\":3341:3370   */\n  not\n    /* \"#utility.yul\":3331:3371   */\n  and\n    /* \"#utility.yul\":3377:3378   */\n  0x01\n    /* \"#utility.yul\":3373:3384   */\n  dup6\n  swap1\n  shl\n    /* \"#utility.yul\":3328:3385   */\n  or\n    /* \"#utility.yul\":4644:4725   */\n  dup6\n  sstore\n    /* \"#utility.yul\":3791:4735   */\n  jump(tag_65)\n    /* \"#utility.yul\":3821:4484   */\ntag_66:\n    /* \"#utility.yul\":2649:2650   */\n  0x00\n    /* \"#utility.yul\":2642:2656   */\n  dup6\n  dup2\n  mstore\n    /* \"#utility.yul\":2686:2690   */\n  0x20\n    /* \"#utility.yul\":2673:2691   */\n  dup2\n  keccak256\n  not(0x1f)\n    /* \"#utility.yul\":3857:3877   */\n  dup7\n  and\n  swap2\n    /* \"#utility.yul\":3975:4211   */\ntag_70:\n    /* \"#utility.yul\":3989:3996   */\n  dup3\n    /* \"#utility.yul\":3986:3987   */\n  dup2\n    /* \"#utility.yul\":3983:3997   */\n  lt\n    /* \"#utility.yul\":3975:4211   */\n  iszero\n  tag_72\n  jumpi\n    /* \"#utility.yul\":4078:4097   */\n  dup9\n  dup7\n  add\n    /* \"#utility.yul\":4072:4098   */\n  mload\n    /* \"#utility.yul\":4057:4099   */\n  dup3\n  sstore\n    /* \"#utility.yul\":4170:4197   */\n  swap5\n  dup5\n  add\n  swap5\n    /* \"#utility.yul\":4138:4139   */\n  0x01\n    /* \"#utility.yul\":4126:4140   */\n  swap1\n  swap2\n  add\n  swap1\n    /* \"#utility.yul\":4005:4024   */\n  dup5\n  add\n    /* \"#utility.yul\":3975:4211   */\n  jump(tag_70)\ntag_72:\n    /* \"#utility.yul\":3979:3982   */\n  pop\n    /* \"#utility.yul\":4239:4245   */\n  dup6\n    /* \"#utility.yul\":4230:4237   */\n  dup3\n    /* \"#utility.yul\":4227:4246   */\n  lt\n    /* \"#utility.yul\":4224:4425   */\n  iszero\n  tag_73\n  jumpi\n    /* \"#utility.yul\":4300:4319   */\n  dup8\n  dup6\n  add\n    /* \"#utility.yul\":4294:4320   */\n  mload\n  not(0x00)\n    /* \"#utility.yul\":4383:4384   */\n  0x03\n    /* \"#utility.yul\":4379:4393   */\n  dup9\n  swap1\n  shl\n    /* \"#utility.yul\":4395:4398   */\n  0xf8\n    /* \"#utility.yul\":4375:4399   */\n  and\n    /* \"#utility.yul\":4371:4408   */\n  shr\n    /* \"#utility.yul\":4367:4409   */\n  not\n    /* \"#utility.yul\":4352:4410   */\n  and\n    /* \"#utility.yul\":4337:4411   */\n  dup2\n  sstore\n    /* \"#utility.yul\":4224:4425   */\ntag_73:\n  pop\n  pop\n    /* \"#utility.yul\":4471:4472   */\n  0x01\n    /* \"#utility.yul\":4462:4468   */\n  dup5\n    /* \"#utility.yul\":4459:4460   */\n  0x01\n    /* \"#utility.yul\":4455:4469   */\n  shl\n    /* \"#utility.yul\":4451:4473   */\n  add\n    /* \"#utility.yul\":4445:4449   */\n  dup6\n    /* \"#utility.yul\":4438:4474   */\n  sstore\n    /* \"#utility.yul\":3791:4735   */\ntag_65:\n  pop\n  pop\n  pop\n  pop\n    /* \"#utility.yul\":3396:4741   */\n  pop\n  pop\n  jump\t// out\n    /* \"#utility.yul\":4746:4873   */\ntag_27:\n    /* \"#utility.yul\":4807:4817   */\n  0x4e487b71\n    /* \"#utility.yul\":4802:4805   */\n  0xe0\n    /* \"#utility.yul\":4798:4818   */\n  shl\n    /* \"#utility.yul\":4795:4796   */\n  0x00\n    /* \"#utility.yul\":4788:4819   */\n  mstore\n    /* \"#utility.yul\":4838:4842   */\n  0x11\n    /* \"#utility.yul\":4835:4836   */\n  0x04\n    /* \"#utility.yul\":4828:4843   */\n  mstore\n    /* \"#utility.yul\":4862:4866   */\n  0x24\n    /* \"#utility.yul\":4859:4860   */\n  0x00\n    /* \"#utility.yul\":4852:4867   */\n  revert\n    /* \"#utility.yul\":4878:5046   */\ntag_11:\n    /* \"#utility.yul\":4951:4960   */\n  dup1\n  dup3\n  mul\n    /* \"#utility.yul\":4982:4991   */\n  dup2\n  iszero\n    /* \"#utility.yul\":4999:5014   */\n  dup3\n  dup3\n  div\n    /* \"#utility.yul\":4993:5015   */\n  dup5\n  eq\n    /* \"#utility.yul\":4979:5016   */\n  or\n    /* \"#utility.yul\":4969:5040   */\n  tag_77\n  jumpi\n    /* \"#utility.yul\":5020:5038   */\n  tag_77\n  tag_27\n  jump\t// in\ntag_77:\n    /* \"#utility.yul\":4878:5046   */\n  swap3\n  swap2\n  pop\n  pop\n  jump\t// out\n    /* \"#utility.yul\":5051:5176   */\ntag_13:\n    /* \"#utility.yul\":5116:5125   */\n  dup1\n  dup3\n  add\n    /* \"#utility.yul\":5137:5147   */\n  dup1\n  dup3\n  gt\n    /* \"#utility.yul\":5134:5170   */\n  iszero\n  tag_77\n  jumpi\n    /* \"#utility.yul\":5150:5168   */\n  tag_77\n  tag_27\n  jump\t// in\n    /* \"#utility.yul\":5181:5308   */\ntag_16:\n    /* \"#utility.yul\":5242:5252   */\n  0x4e487b71\n    /* \"#utility.yul\":5237:5240   */\n  0xe0\n    /* \"#utility.yul\":5233:5253   */\n  shl\n    /* \"#utility.yul\":5230:5231   */\n  0x00\n    /* \"#utility.yul\":5223:5254   */\n  mstore\n    /* \"#utility.yul\":5273:5277   */\n  0x21\n    /* \"#utility.yul\":5270:5271   */\n  0x04\n    /* \"#utility.yul\":5263:5278   */\n  mstore\n    /* \"#utility.yul\":5297:5301   */\n  0x24\n    /* \"#utility.yul\":5294:5295   */\n  0x00\n    /* \"#utility.yul\":5287:5302   */\n  revert\n    /* \"#utility.yul\":5181:5308   */\ntag_28:\n    /* \"Crowdfunding.sol\":129:7863  contract Crowdfunding {... */\n  dataSize(sub_0)\n  dup1\n  dataOffset(sub_0)\n  0x00\n  codecopy\n  0x00\n  return\nstop\n\nsub_0: assembly {\n        /* \"Crowdfunding.sol\":129:7863  contract Crowdfunding {... */\n      mstore(0x40, 0x80)\n      jumpi(tag_1, lt(calldatasize, 0x04))\n      shr(0xe0, calldataload(0x00))\n      dup1\n      0x7284e416\n      gt\n      tag_25\n      jumpi\n      dup1\n      0xecb0382e\n      gt\n      tag_26\n      jumpi\n      dup1\n      0xf3ccaac0\n      gt\n      tag_27\n      jumpi\n      dup1\n      0xf3ccaac0\n      eq\n      tag_22\n      jumpi\n      dup1\n      0xff201114\n      eq\n      tag_23\n      jumpi\n      dup1\n      0xff48826b\n      eq\n      tag_24\n      jumpi\n      0x00\n      dup1\n      revert\n    tag_27:\n      dup1\n      0xecb0382e\n      eq\n      tag_19\n      jumpi\n      dup1\n      0xecb6c66a\n      eq\n      tag_20\n      jumpi\n      dup1\n      0xef430aa6\n      eq\n      tag_21\n      jumpi\n      0x00\n      dup1\n      revert\n    tag_26:\n      dup1\n      0xb85dfb80\n      gt\n      tag_28\n      jumpi\n      dup1\n      0xb85dfb80\n      eq\n      tag_16\n      jumpi\n      dup1\n      0xc19d93fb\n      eq\n      tag_17\n      jumpi\n      dup1\n      0xe29eb836\n      eq\n      tag_18\n      jumpi\n      0x00\n      dup1\n      revert\n    tag_28:\n      dup1\n      0x7284e416\n      eq\n      tag_13\n      jumpi\n      dup1\n      0x8da5cb5b\n      eq\n      tag_14\n      jumpi\n      dup1\n      0xb60d4288\n      eq\n      tag_15\n      jumpi\n      0x00\n      dup1\n      revert\n    tag_25:\n      dup1\n      0x389b7533\n      gt\n      tag_29\n      jumpi\n      dup1\n      0x590e1ae3\n      gt\n      tag_30\n      jumpi\n      dup1\n      0x590e1ae3\n      eq\n      tag_10\n      jumpi\n      dup1\n      0x5c975abb\n      eq\n      tag_11\n      jumpi\n      dup1\n      0x6985a022\n      eq\n      tag_12\n      jumpi\n      0x00\n      dup1\n      revert\n    tag_30:\n      dup1\n      0x389b7533\n      eq\n      tag_7\n      jumpi\n      dup1\n      0x3ccfd60b\n      eq\n      tag_8\n      jumpi\n      dup1\n      0x40193883\n      eq\n      tag_9\n      jumpi\n      0x00\n      dup1\n      revert\n    tag_29:\n      dup1\n      0x141f51c4\n      gt\n      tag_31\n      jumpi\n      dup1\n      0x141f51c4\n      eq\n      tag_4\n      jumpi\n      dup1\n      0x22cc505a\n      eq\n      tag_5\n      jumpi\n      dup1\n      0x29dcb0cf\n      eq\n      tag_6\n      jumpi\n      0x00\n      dup1\n      revert\n    tag_31:\n      dup1\n      0x06fdde03\n      eq\n      tag_2\n      jumpi\n      dup1\n      0x0c611f24\n      eq\n      tag_3\n      jumpi\n    tag_1:\n      0x00\n      dup1\n      revert\n        /* \"Crowdfunding.sol\":674:692  string public name */\n    tag_2:\n      callvalue\n      dup1\n      iszero\n      tag_32\n      jumpi\n      0x00\n      dup1\n      revert\n    tag_32:\n      pop\n      tag_33\n      tag_34\n      jump\t// in\n    tag_33:\n      mload(0x40)\n      tag_35\n      swap2\n      swap1\n      tag_36\n      jump\t// in\n    tag_35:\n      mload(0x40)\n      dup1\n      swap2\n      sub\n      swap1\n      return\n        /* \"Crowdfunding.sol\":6514:6779  function getCampaignDetails() public view returns (string memory, string memory, string memory, uint256, uint256, address, CampaignState, Category, uint256) {... */\n    tag_3:\n      callvalue\n      dup1\n      iszero\n      tag_37\n      jumpi\n      0x00\n      dup1\n      revert\n    tag_37:\n      pop\n      tag_38\n      tag_39\n      jump\t// in\n    tag_38:\n      mload(0x40)\n      tag_35\n      swap10\n      swap9\n      swap8\n      swap7\n      swap6\n      swap5\n      swap4\n      swap3\n      swap2\n      swap1\n      tag_41\n      jump\t// in\n        /* \"Crowdfunding.sol\":7512:7860  function manualStopCampaign() public onlyOwner campaignOpen {... */\n    tag_4:\n      callvalue\n      dup1\n      iszero\n      tag_42\n      jumpi\n      0x00\n      dup1\n      revert\n    tag_42:\n      pop\n      tag_43\n      tag_44\n      jump\t// in\n    tag_43:\n      stop\n        /* \"Crowdfunding.sol\":2726:2945  function addRewardTier(string memory _description, uint256 _requiredAmountInWei) public onlyOwner campaignOpen { // (SỬA) Đổi tên... */\n    tag_5:\n      callvalue\n      dup1\n      iszero\n      tag_45\n      jumpi\n      0x00\n      dup1\n      revert\n    tag_45:\n      pop\n      tag_43\n      tag_47\n      calldatasize\n      0x04\n      tag_48\n      jump\t// in\n    tag_47:\n      tag_49\n      jump\t// in\n        /* \"Crowdfunding.sol\":783:806  uint256 public deadline */\n    tag_6:\n      callvalue\n      dup1\n      iszero\n      tag_50\n      jumpi\n      0x00\n      dup1\n      revert\n    tag_50:\n      pop\n      tag_51\n      sload(0x04)\n      dup2\n      jump\n    tag_51:\n      mload(0x40)\n        /* \"#utility.yul\":3358:3383   */\n      swap1\n      dup2\n      mstore\n        /* \"#utility.yul\":3346:3348   */\n      0x20\n        /* \"#utility.yul\":3331:3349   */\n      add\n        /* \"Crowdfunding.sol\":783:806  uint256 public deadline */\n      tag_35\n        /* \"#utility.yul\":3212:3389   */\n      jump\n        /* \"Crowdfunding.sol\":7123:7247  function extendDeadline(uint256 _daysToAdd) public onlyOwner campaignOpen {... */\n    tag_7:\n      callvalue\n      dup1\n      iszero\n      tag_55\n      jumpi\n      0x00\n      dup1\n      revert\n    tag_55:\n      pop\n      tag_43\n      tag_57\n      calldatasize\n      0x04\n      tag_58\n      jump\t// in\n    tag_57:\n      tag_59\n      jump\t// in\n        /* \"Crowdfunding.sol\":5172:5609  function withdraw() public onlyOwner {... */\n    tag_8:\n      callvalue\n      dup1\n      iszero\n      tag_60\n      jumpi\n      0x00\n      dup1\n      revert\n    tag_60:\n      pop\n      tag_43\n      tag_62\n      jump\t// in\n        /* \"Crowdfunding.sol\":757:776  uint256 public goal */\n    tag_9:\n      callvalue\n      dup1\n      iszero\n      tag_63\n      jumpi\n      0x00\n      dup1\n      revert\n    tag_63:\n      pop\n      tag_51\n      sload(0x03)\n      dup2\n      jump\n        /* \"Crowdfunding.sol\":5732:6473  function refund() public {... */\n    tag_10:\n      callvalue\n      dup1\n      iszero\n      tag_67\n      jumpi\n      0x00\n      dup1\n      revert\n    tag_67:\n      pop\n      tag_43\n      tag_69\n      jump\t// in\n        /* \"Crowdfunding.sol\":841:859  bool public paused */\n    tag_11:\n      callvalue\n      dup1\n      iszero\n      tag_70\n      jumpi\n      0x00\n      dup1\n      revert\n    tag_70:\n      pop\n      sload(0x05)\n      tag_71\n      swap1\n      shl(0xa0, 0x01)\n      swap1\n      div\n      0xff\n      and\n      dup2\n      jump\n    tag_71:\n      mload(0x40)\n        /* \"#utility.yul\":3744:3758   */\n      swap1\n      iszero\n        /* \"#utility.yul\":3737:3759   */\n      iszero\n        /* \"#utility.yul\":3719:3760   */\n      dup2\n      mstore\n        /* \"#utility.yul\":3707:3709   */\n      0x20\n        /* \"#utility.yul\":3692:3710   */\n      add\n        /* \"Crowdfunding.sol\":841:859  bool public paused */\n      tag_35\n        /* \"#utility.yul\":3579:3766   */\n      jump\n        /* \"Crowdfunding.sol\":7046:7115  function Pause() public onlyOwner {... */\n    tag_12:\n      callvalue\n      dup1\n      iszero\n      tag_75\n      jumpi\n      0x00\n      dup1\n      revert\n    tag_75:\n      pop\n      tag_43\n      tag_77\n      jump\t// in\n        /* \"Crowdfunding.sol\":699:724  string public description */\n    tag_13:\n      callvalue\n      dup1\n      iszero\n      tag_78\n      jumpi\n      0x00\n      dup1\n      revert\n    tag_78:\n      pop\n      tag_33\n      tag_80\n      jump\t// in\n        /* \"Crowdfunding.sol\":813:833  address public owner */\n    tag_14:\n      callvalue\n      dup1\n      iszero\n      tag_82\n      jumpi\n      0x00\n      dup1\n      revert\n    tag_82:\n      pop\n      sload(0x05)\n      tag_83\n      swap1\n      sub(shl(0xa0, 0x01), 0x01)\n      and\n      dup2\n      jump\n    tag_83:\n      mload(0x40)\n      sub(shl(0xa0, 0x01), 0x01)\n        /* \"#utility.yul\":3935:3990   */\n      swap1\n      swap2\n      and\n        /* \"#utility.yul\":3917:3991   */\n      dup2\n      mstore\n        /* \"#utility.yul\":3905:3907   */\n      0x20\n        /* \"#utility.yul\":3890:3908   */\n      add\n        /* \"Crowdfunding.sol\":813:833  address public owner */\n      tag_35\n        /* \"#utility.yul\":3771:3997   */\n      jump\n        /* \"Crowdfunding.sol\":4040:4411  function fund() public payable campaignOpen notPaused {... */\n    tag_15:\n      tag_43\n      tag_88\n      jump\t// in\n        /* \"Crowdfunding.sol\":1286:1327  mapping(address => Backer) public backers */\n    tag_16:\n      callvalue\n      dup1\n      iszero\n      tag_89\n      jumpi\n      0x00\n      dup1\n      revert\n    tag_89:\n      pop\n      tag_90\n      tag_91\n      calldatasize\n      0x04\n      tag_92\n      jump\t// in\n    tag_91:\n      mstore(0x20, 0x07)\n      0x00\n      swap1\n      dup2\n      mstore\n      0x40\n      swap1\n      keccak256\n      dup1\n      sload\n      0x01\n      swap1\n      swap2\n      add\n      sload\n      0xff\n      and\n      dup3\n      jump\n    tag_90:\n      0x40\n      dup1\n      mload\n        /* \"#utility.yul\":4484:4509   */\n      swap3\n      dup4\n      mstore\n        /* \"#utility.yul\":4552:4566   */\n      swap1\n      iszero\n        /* \"#utility.yul\":4545:4567   */\n      iszero\n        /* \"#utility.yul\":4540:4542   */\n      0x20\n        /* \"#utility.yul\":4525:4543   */\n      dup4\n      add\n        /* \"#utility.yul\":4518:4568   */\n      mstore\n        /* \"#utility.yul\":4457:4475   */\n      add\n        /* \"Crowdfunding.sol\":1286:1327  mapping(address => Backer) public backers */\n      tag_35\n        /* \"#utility.yul\":4316:4574   */\n      jump\n        /* \"Crowdfunding.sol\":897:923  CampaignState public state */\n    tag_17:\n      callvalue\n      dup1\n      iszero\n      tag_96\n      jumpi\n      0x00\n      dup1\n      revert\n    tag_96:\n      pop\n      sload(0x05)\n      tag_97\n      swap1\n      shl(0xb0, 0x01)\n      swap1\n      div\n      0xff\n      and\n      dup2\n      jump\n    tag_97:\n      mload(0x40)\n      tag_35\n      swap2\n      swap1\n      tag_100\n      jump\t// in\n        /* \"Crowdfunding.sol\":1334:1363  uint256 public totalCollected */\n    tag_18:\n      callvalue\n      dup1\n      iszero\n      tag_101\n      jumpi\n      0x00\n      dup1\n      revert\n    tag_101:\n      pop\n      tag_51\n      sload(0x08)\n      dup2\n      jump\n        /* \"Crowdfunding.sol\":3238:3901  function removeRewardTier(uint256 _index) public onlyOwner campaignOpen {... */\n    tag_19:\n      callvalue\n      dup1\n      iszero\n      tag_105\n      jumpi\n      0x00\n      dup1\n      revert\n    tag_105:\n      pop\n      tag_43\n      tag_107\n      calldatasize\n      0x04\n      tag_58\n      jump\t// in\n    tag_107:\n      tag_108\n      jump\t// in\n        /* \"Crowdfunding.sol\":6933:7038  function getRewardTiers() public view returns (RewardTier[] memory) {... */\n    tag_20:\n      callvalue\n      dup1\n      iszero\n      tag_109\n      jumpi\n      0x00\n      dup1\n      revert\n    tag_109:\n      pop\n      tag_110\n      tag_111\n      jump\t// in\n    tag_110:\n      mload(0x40)\n      tag_35\n      swap2\n      swap1\n      tag_113\n      jump\t// in\n        /* \"Crowdfunding.sol\":866:890  Category public category */\n    tag_21:\n      callvalue\n      dup1\n      iszero\n      tag_114\n      jumpi\n      0x00\n      dup1\n      revert\n    tag_114:\n      pop\n      sload(0x05)\n      tag_115\n      swap1\n      0x01000000000000000000000000000000000000000000\n      swap1\n      div\n      0xff\n      and\n      dup2\n      jump\n    tag_115:\n      mload(0x40)\n      tag_35\n      swap2\n      swap1\n      tag_118\n      jump\t// in\n        /* \"Crowdfunding.sol\":731:750  string public image */\n    tag_22:\n      callvalue\n      dup1\n      iszero\n      tag_119\n      jumpi\n      0x00\n      dup1\n      revert\n    tag_119:\n      pop\n      tag_33\n      tag_121\n      jump\t// in\n        /* \"Crowdfunding.sol\":1248:1279  RewardTier[] public rewardTiers */\n    tag_23:\n      callvalue\n      dup1\n      iszero\n      tag_123\n      jumpi\n      0x00\n      dup1\n      revert\n    tag_123:\n      pop\n      tag_124\n      tag_125\n      calldatasize\n      0x04\n      tag_58\n      jump\t// in\n    tag_125:\n      tag_126\n      jump\t// in\n    tag_124:\n      mload(0x40)\n      tag_35\n      swap3\n      swap2\n      swap1\n      tag_128\n      jump\t// in\n        /* \"Crowdfunding.sol\":6787:6925  function getBackerContribution(address _backer) public view returns (uint256) {... */\n    tag_24:\n      callvalue\n      dup1\n      iszero\n      tag_129\n      jumpi\n      0x00\n      dup1\n      revert\n    tag_129:\n      pop\n      tag_51\n      tag_131\n      calldatasize\n      0x04\n      tag_92\n      jump\t// in\n    tag_131:\n      sub(shl(0xa0, 0x01), 0x01)\n        /* \"Crowdfunding.sol\":6883:6899  backers[_backer] */\n      and\n        /* \"Crowdfunding.sol\":6856:6863  uint256 */\n      0x00\n        /* \"Crowdfunding.sol\":6883:6899  backers[_backer] */\n      swap1\n      dup2\n      mstore\n        /* \"Crowdfunding.sol\":6883:6890  backers */\n      0x07\n        /* \"Crowdfunding.sol\":6883:6899  backers[_backer] */\n      0x20\n      mstore\n      0x40\n      swap1\n      keccak256\n        /* \"Crowdfunding.sol\":6883:6917  backers[_backer].totalContribution */\n      sload\n      swap1\n        /* \"Crowdfunding.sol\":6787:6925  function getBackerContribution(address _backer) public view returns (uint256) {... */\n      jump\n        /* \"Crowdfunding.sol\":674:692  string public name */\n    tag_34:\n      0x00\n      dup1\n      sload\n      tag_134\n      swap1\n      tag_135\n      jump\t// in\n    tag_134:\n      dup1\n      0x1f\n      add\n      0x20\n      dup1\n      swap2\n      div\n      mul\n      0x20\n      add\n      mload(0x40)\n      swap1\n      dup2\n      add\n      0x40\n      mstore\n      dup1\n      swap3\n      swap2\n      swap1\n      dup2\n      dup2\n      mstore\n      0x20\n      add\n      dup3\n      dup1\n      sload\n      tag_136\n      swap1\n      tag_135\n      jump\t// in\n    tag_136:\n      dup1\n      iszero\n      tag_137\n      jumpi\n      dup1\n      0x1f\n      lt\n      tag_138\n      jumpi\n      0x0100\n      dup1\n      dup4\n      sload\n      div\n      mul\n      dup4\n      mstore\n      swap2\n      0x20\n      add\n      swap2\n      jump(tag_137)\n    tag_138:\n      dup3\n      add\n      swap2\n      swap1\n      0x00\n      mstore\n      keccak256(0x00, 0x20)\n      swap1\n    tag_139:\n      dup2\n      sload\n      dup2\n      mstore\n      swap1\n      0x01\n      add\n      swap1\n      0x20\n      add\n      dup1\n      dup4\n      gt\n      tag_139\n      jumpi\n      dup3\n      swap1\n      sub\n      0x1f\n      and\n      dup3\n      add\n      swap2\n    tag_137:\n      pop\n      pop\n      pop\n      pop\n      pop\n      dup2\n      jump\t// out\n        /* \"Crowdfunding.sol\":6514:6779  function getCampaignDetails() public view returns (string memory, string memory, string memory, uint256, uint256, address, CampaignState, Category, uint256) {... */\n    tag_39:\n        /* \"Crowdfunding.sol\":6565:6578  string memory */\n      0x60\n        /* \"Crowdfunding.sol\":6580:6593  string memory */\n      dup1\n        /* \"Crowdfunding.sol\":6595:6608  string memory */\n      0x60\n        /* \"Crowdfunding.sol\":6610:6617  uint256 */\n      0x00\n        /* \"Crowdfunding.sol\":6619:6626  uint256 */\n      dup1\n        /* \"Crowdfunding.sol\":6628:6635  address */\n      0x00\n        /* \"Crowdfunding.sol\":6637:6650  CampaignState */\n      dup1\n        /* \"Crowdfunding.sol\":6652:6660  Category */\n      0x00\n        /* \"Crowdfunding.sol\":6662:6669  uint256 */\n      dup1\n        /* \"Crowdfunding.sol\":6690:6694  name */\n      0x00\n        /* \"Crowdfunding.sol\":6696:6707  description */\n      0x01\n        /* \"Crowdfunding.sol\":6709:6714  image */\n      0x02\n        /* \"Crowdfunding.sol\":6716:6720  goal */\n      sload(0x03)\n        /* \"Crowdfunding.sol\":6722:6730  deadline */\n      sload(0x04)\n        /* \"Crowdfunding.sol\":6732:6737  owner */\n      0x05\n      0x00\n      swap1\n      sload\n      swap1\n      0x0100\n      exp\n      swap1\n      div\n      sub(shl(0xa0, 0x01), 0x01)\n      and\n        /* \"Crowdfunding.sol\":6739:6744  state */\n      0x05\n      0x16\n      swap1\n      sload\n      swap1\n      0x0100\n      exp\n      swap1\n      div\n      0xff\n      and\n        /* \"Crowdfunding.sol\":6746:6754  category */\n      0x05\n      0x15\n      swap1\n      sload\n      swap1\n      0x0100\n      exp\n      swap1\n      div\n      0xff\n      and\n        /* \"Crowdfunding.sol\":6756:6770  totalCollected */\n      sload(0x08)\n        /* \"Crowdfunding.sol\":6682:6771  return (name, description, image, goal, deadline, owner, state, category, totalCollected) */\n      dup9\n      dup1\n      sload\n      tag_141\n      swap1\n      tag_135\n      jump\t// in\n    tag_141:\n      dup1\n      0x1f\n      add\n      0x20\n      dup1\n      swap2\n      div\n      mul\n      0x20\n      add\n      mload(0x40)\n      swap1\n      dup2\n      add\n      0x40\n      mstore\n      dup1\n      swap3\n      swap2\n      swap1\n      dup2\n      dup2\n      mstore\n      0x20\n      add\n      dup3\n      dup1\n      sload\n      tag_142\n      swap1\n      tag_135\n      jump\t// in\n    tag_142:\n      dup1\n      iszero\n      tag_143\n      jumpi\n      dup1\n      0x1f\n      lt\n      tag_144\n      jumpi\n      0x0100\n      dup1\n      dup4\n      sload\n      div\n      mul\n      dup4\n      mstore\n      swap2\n      0x20\n      add\n      swap2\n      jump(tag_143)\n    tag_144:\n      dup3\n      add\n      swap2\n      swap1\n      0x00\n      mstore\n      keccak256(0x00, 0x20)\n      swap1\n    tag_145:\n      dup2\n      sload\n      dup2\n      mstore\n      swap1\n      0x01\n      add\n      swap1\n      0x20\n      add\n      dup1\n      dup4\n      gt\n      tag_145\n      jumpi\n      dup3\n      swap1\n      sub\n      0x1f\n      and\n      dup3\n      add\n      swap2\n    tag_143:\n      pop\n      pop\n      pop\n      pop\n      pop\n      swap9\n      pop\n      dup8\n      dup1\n      sload\n      tag_146\n      swap1\n      tag_135\n      jump\t// in\n    tag_146:\n      dup1\n      0x1f\n      add\n      0x20\n      dup1\n      swap2\n      div\n      mul\n      0x20\n      add\n      mload(0x40)\n      swap1\n      dup2\n      add\n      0x40\n      mstore\n      dup1\n      swap3\n      swap2\n      swap1\n      dup2\n      dup2\n      mstore\n      0x20\n      add\n      dup3\n      dup1\n      sload\n      tag_147\n      swap1\n      tag_135\n      jump\t// in\n    tag_147:\n      dup1\n      iszero\n      tag_148\n      jumpi\n      dup1\n      0x1f\n      lt\n      tag_149\n      jumpi\n      0x0100\n      dup1\n      dup4\n      sload\n      div\n      mul\n      dup4\n      mstore\n      swap2\n      0x20\n      add\n      swap2\n      jump(tag_148)\n    tag_149:\n      dup3\n      add\n      swap2\n      swap1\n      0x00\n      mstore\n      keccak256(0x00, 0x20)\n      swap1\n    tag_150:\n      dup2\n      sload\n      dup2\n      mstore\n      swap1\n      0x01\n      add\n      swap1\n      0x20\n      add\n      dup1\n      dup4\n      gt\n      tag_150\n      jumpi\n      dup3\n      swap1\n      sub\n      0x1f\n      and\n      dup3\n      add\n      swap2\n    tag_148:\n      pop\n      pop\n      pop\n      pop\n      pop\n      swap8\n      pop\n      dup7\n      dup1\n      sload\n      tag_151\n      swap1\n      tag_135\n      jump\t// in\n    tag_151:\n      dup1\n      0x1f\n      add\n      0x20\n      dup1\n      swap2\n      div\n      mul\n      0x20\n      add\n      mload(0x40)\n      swap1\n      dup2\n      add\n      0x40\n      mstore\n      dup1\n      swap3\n      swap2\n      swap1\n      dup2\n      dup2\n      mstore\n      0x20\n      add\n      dup3\n      dup1\n      sload\n      tag_152\n      swap1\n      tag_135\n      jump\t// in\n    tag_152:\n      dup1\n      iszero\n      tag_153\n      jumpi\n      dup1\n      0x1f\n      lt\n      tag_154\n      jumpi\n      0x0100\n      dup1\n      dup4\n      sload\n      div\n      mul\n      dup4\n      mstore\n      swap2\n      0x20\n      add\n      swap2\n      jump(tag_153)\n    tag_154:\n      dup3\n      add\n      swap2\n      swap1\n      0x00\n      mstore\n      keccak256(0x00, 0x20)\n      swap1\n    tag_155:\n      dup2\n      sload\n      dup2\n      mstore\n      swap1\n      0x01\n      add\n      swap1\n      0x20\n      add\n      dup1\n      dup4\n      gt\n      tag_155\n      jumpi\n      dup3\n      swap1\n      sub\n      0x1f\n      and\n      dup3\n      add\n      swap2\n    tag_153:\n      pop\n      pop\n      pop\n      pop\n      pop\n      swap7\n      pop\n      swap9\n      pop\n      swap9\n      pop\n      swap9\n      pop\n      swap9\n      pop\n      swap9\n      pop\n      swap9\n      pop\n      swap9\n      pop\n      swap9\n      pop\n      swap9\n      pop\n        /* \"Crowdfunding.sol\":6514:6779  function getCampaignDetails() public view returns (string memory, string memory, string memory, uint256, uint256, address, CampaignState, Category, uint256) {... */\n      swap1\n      swap2\n      swap3\n      swap4\n      swap5\n      swap6\n      swap7\n      swap8\n      swap9\n      jump\t// out\n        /* \"Crowdfunding.sol\":7512:7860  function manualStopCampaign() public onlyOwner campaignOpen {... */\n    tag_44:\n        /* \"Crowdfunding.sol\":1511:1516  owner */\n      and(sub(shl(0xa0, 0x01), 0x01), sload(0x05))\n        /* \"Crowdfunding.sol\":1497:1507  msg.sender */\n      caller\n        /* \"Crowdfunding.sol\":1497:1516  msg.sender == owner */\n      eq\n        /* \"Crowdfunding.sol\":1489:1534  require(msg.sender == owner, \"Not the owner\") */\n      tag_157\n      jumpi\n      mload(0x40)\n      shl(0xe5, 0x461bcd)\n      dup2\n      mstore\n        /* \"#utility.yul\":6957:6959   */\n      0x20\n        /* \"Crowdfunding.sol\":1489:1534  require(msg.sender == owner, \"Not the owner\") */\n      0x04\n      dup3\n      add\n        /* \"#utility.yul\":6939:6960   */\n      mstore\n        /* \"#utility.yul\":6996:6998   */\n      0x0d\n        /* \"#utility.yul\":6976:6994   */\n      0x24\n      dup3\n      add\n        /* \"#utility.yul\":6969:6999   */\n      mstore\n      shl(0x99, 0x2737ba103a34329037bbb732b9)\n        /* \"#utility.yul\":7015:7033   */\n      0x44\n      dup3\n      add\n        /* \"#utility.yul\":7008:7051   */\n      mstore\n        /* \"#utility.yul\":7068:7086   */\n      0x64\n      add\n        /* \"Crowdfunding.sol\":1489:1534  require(msg.sender == owner, \"Not the owner\") */\n    tag_158:\n      mload(0x40)\n      dup1\n      swap2\n      sub\n      swap1\n      revert\n    tag_157:\n        /* \"Crowdfunding.sol\":1612:1632  CampaignState.Active */\n      0x00\n        /* \"Crowdfunding.sol\":1603:1608  state */\n      sload(0x05)\n      shl(0xb0, 0x01)\n      swap1\n      div\n      0xff\n      and\n        /* \"Crowdfunding.sol\":1603:1632  state == CampaignState.Active */\n      0x02\n      dup2\n      gt\n      iszero\n      tag_165\n      jumpi\n      tag_165\n      tag_163\n      jump\t// in\n    tag_165:\n      eq\n        /* \"Crowdfunding.sol\":1595:1659  require(state == CampaignState.Active, \"Campaign is not active\") */\n      tag_166\n      jumpi\n      mload(0x40)\n      shl(0xe5, 0x461bcd)\n      dup2\n      mstore\n        /* \"#utility.yul\":7299:7301   */\n      0x20\n        /* \"Crowdfunding.sol\":1595:1659  require(state == CampaignState.Active, \"Campaign is not active\") */\n      0x04\n      dup3\n      add\n        /* \"#utility.yul\":7281:7302   */\n      mstore\n        /* \"#utility.yul\":7338:7340   */\n      0x16\n        /* \"#utility.yul\":7318:7336   */\n      0x24\n      dup3\n      add\n        /* \"#utility.yul\":7311:7341   */\n      mstore\n      shl(0x50, 0x43616d706169676e206973206e6f7420616374697665)\n        /* \"#utility.yul\":7357:7375   */\n      0x44\n      dup3\n      add\n        /* \"#utility.yul\":7350:7402   */\n      mstore\n        /* \"#utility.yul\":7419:7437   */\n      0x64\n      add\n        /* \"Crowdfunding.sol\":1595:1659  require(state == CampaignState.Active, \"Campaign is not active\") */\n      tag_158\n        /* \"#utility.yul\":7097:7443   */\n      jump\n        /* \"Crowdfunding.sol\":1595:1659  require(state == CampaignState.Active, \"Campaign is not active\") */\n    tag_166:\n        /* \"Crowdfunding.sol\":7583:7605  CampaignState newState */\n      0x00\n        /* \"Crowdfunding.sol\":7638:7642  goal */\n      sload(0x03)\n        /* \"Crowdfunding.sol\":7620:7634  totalCollected */\n      sload(0x08)\n        /* \"Crowdfunding.sol\":7620:7642  totalCollected >= goal */\n      lt\n        /* \"Crowdfunding.sol\":7616:7770  if (totalCollected >= goal) {... */\n      tag_170\n      jumpi\n      pop\n        /* \"Crowdfunding.sol\":7670:7694  CampaignState.Successful */\n      0x01\n        /* \"Crowdfunding.sol\":7616:7770  if (totalCollected >= goal) {... */\n      jump(tag_171)\n    tag_170:\n      pop\n        /* \"Crowdfunding.sol\":7738:7758  CampaignState.Failed */\n      0x02\n        /* \"Crowdfunding.sol\":7616:7770  if (totalCollected >= goal) {... */\n    tag_171:\n        /* \"Crowdfunding.sol\":7790:7795  state */\n      0x05\n        /* \"Crowdfunding.sol\":7790:7806  state = newState */\n      dup1\n      sload\n        /* \"Crowdfunding.sol\":7798:7806  newState */\n      dup3\n      swap2\n        /* \"Crowdfunding.sol\":7790:7795  state */\n      swap1\n      not(shl(0xb0, 0xff))\n        /* \"Crowdfunding.sol\":7790:7806  state = newState */\n      and\n      shl(0xb0, 0x01)\n        /* \"Crowdfunding.sol\":7798:7806  newState */\n      dup4\n        /* \"Crowdfunding.sol\":7790:7806  state = newState */\n      0x02\n      dup2\n      gt\n      iszero\n      tag_173\n      jumpi\n      tag_173\n      tag_163\n      jump\t// in\n    tag_173:\n      mul\n      or\n      swap1\n      sstore\n      pop\n        /* \"Crowdfunding.sol\":7822:7852  CampaignStateChanged(newState) */\n      0x13b412722da5cda189ed162d85e2af22617754f62ab390934bb3153b3e05470e\n        /* \"Crowdfunding.sol\":7843:7851  newState */\n      dup2\n        /* \"Crowdfunding.sol\":7822:7852  CampaignStateChanged(newState) */\n      mload(0x40)\n      tag_174\n      swap2\n      swap1\n      tag_100\n      jump\t// in\n    tag_174:\n      mload(0x40)\n      dup1\n      swap2\n      sub\n      swap1\n      log1\n        /* \"Crowdfunding.sol\":7572:7860  {... */\n      pop\n        /* \"Crowdfunding.sol\":7512:7860  function manualStopCampaign() public onlyOwner campaignOpen {... */\n      jump\t// out\n        /* \"Crowdfunding.sol\":2726:2945  function addRewardTier(string memory _description, uint256 _requiredAmountInWei) public onlyOwner campaignOpen { // (SỬA) Đổi tên... */\n    tag_49:\n        /* \"Crowdfunding.sol\":1511:1516  owner */\n      and(sub(shl(0xa0, 0x01), 0x01), sload(0x05))\n        /* \"Crowdfunding.sol\":1497:1507  msg.sender */\n      caller\n        /* \"Crowdfunding.sol\":1497:1516  msg.sender == owner */\n      eq\n        /* \"Crowdfunding.sol\":1489:1534  require(msg.sender == owner, \"Not the owner\") */\n      tag_176\n      jumpi\n      mload(0x40)\n      shl(0xe5, 0x461bcd)\n      dup2\n      mstore\n        /* \"#utility.yul\":6957:6959   */\n      0x20\n        /* \"Crowdfunding.sol\":1489:1534  require(msg.sender == owner, \"Not the owner\") */\n      0x04\n      dup3\n      add\n        /* \"#utility.yul\":6939:6960   */\n      mstore\n        /* \"#utility.yul\":6996:6998   */\n      0x0d\n        /* \"#utility.yul\":6976:6994   */\n      0x24\n      dup3\n      add\n        /* \"#utility.yul\":6969:6999   */\n      mstore\n      shl(0x99, 0x2737ba103a34329037bbb732b9)\n        /* \"#utility.yul\":7015:7033   */\n      0x44\n      dup3\n      add\n        /* \"#utility.yul\":7008:7051   */\n      mstore\n        /* \"#utility.yul\":7068:7086   */\n      0x64\n      add\n        /* \"Crowdfunding.sol\":1489:1534  require(msg.sender == owner, \"Not the owner\") */\n      tag_158\n        /* \"#utility.yul\":6755:7092   */\n      jump\n        /* \"Crowdfunding.sol\":1489:1534  require(msg.sender == owner, \"Not the owner\") */\n    tag_176:\n        /* \"Crowdfunding.sol\":1612:1632  CampaignState.Active */\n      0x00\n        /* \"Crowdfunding.sol\":1603:1608  state */\n      sload(0x05)\n      shl(0xb0, 0x01)\n      swap1\n      div\n      0xff\n      and\n        /* \"Crowdfunding.sol\":1603:1632  state == CampaignState.Active */\n      0x02\n      dup2\n      gt\n      iszero\n      tag_182\n      jumpi\n      tag_182\n      tag_163\n      jump\t// in\n    tag_182:\n      eq\n        /* \"Crowdfunding.sol\":1595:1659  require(state == CampaignState.Active, \"Campaign is not active\") */\n      tag_183\n      jumpi\n      mload(0x40)\n      shl(0xe5, 0x461bcd)\n      dup2\n      mstore\n        /* \"#utility.yul\":7299:7301   */\n      0x20\n        /* \"Crowdfunding.sol\":1595:1659  require(state == CampaignState.Active, \"Campaign is not active\") */\n      0x04\n      dup3\n      add\n        /* \"#utility.yul\":7281:7302   */\n      mstore\n        /* \"#utility.yul\":7338:7340   */\n      0x16\n        /* \"#utility.yul\":7318:7336   */\n      0x24\n      dup3\n      add\n        /* \"#utility.yul\":7311:7341   */\n      mstore\n      shl(0x50, 0x43616d706169676e206973206e6f7420616374697665)\n        /* \"#utility.yul\":7357:7375   */\n      0x44\n      dup3\n      add\n        /* \"#utility.yul\":7350:7402   */\n      mstore\n        /* \"#utility.yul\":7419:7437   */\n      0x64\n      add\n        /* \"Crowdfunding.sol\":1595:1659  require(state == CampaignState.Active, \"Campaign is not active\") */\n      tag_158\n        /* \"#utility.yul\":7097:7443   */\n      jump\n        /* \"Crowdfunding.sol\":1595:1659  require(state == CampaignState.Active, \"Campaign is not active\") */\n    tag_183:\n        /* \"Crowdfunding.sol\":2888:2934  RewardTier(_description, _requiredAmountInWei) */\n      0x40\n      dup1\n      mload\n      dup1\n      dup3\n      add\n      swap1\n      swap2\n      mstore\n      dup3\n      dup2\n      mstore\n      0x20\n      dup2\n      add\n      dup3\n      swap1\n      mstore\n        /* \"Crowdfunding.sol\":2871:2882  rewardTiers */\n      0x06\n        /* \"Crowdfunding.sol\":2871:2935  rewardTiers.push(RewardTier(_description, _requiredAmountInWei)) */\n      dup1\n      sload\n      0x01\n      dup2\n      add\n      dup3\n      sstore\n      0x00\n      swap2\n      swap1\n      swap2\n      mstore\n      dup2\n      mload\n      0x02\n      swap1\n      swap2\n      mul\n      0xf652222313e28459528d920b65115c16c04f3efc82aaedc97be59f3f377c0d3f\n      add\n      swap1\n      dup2\n      swap1\n      tag_187\n      swap1\n      dup3\n      tag_188\n      jump\t// in\n    tag_187:\n      pop\n      0x20\n      dup3\n      add\n      mload\n      dup2\n      0x01\n      add\n      sstore\n      pop\n      pop\n        /* \"Crowdfunding.sol\":2726:2945  function addRewardTier(string memory _description, uint256 _requiredAmountInWei) public onlyOwner campaignOpen { // (SỬA) Đổi tên... */\n      pop\n      pop\n      jump\t// out\n        /* \"Crowdfunding.sol\":7123:7247  function extendDeadline(uint256 _daysToAdd) public onlyOwner campaignOpen {... */\n    tag_59:\n        /* \"Crowdfunding.sol\":1511:1516  owner */\n      and(sub(shl(0xa0, 0x01), 0x01), sload(0x05))\n        /* \"Crowdfunding.sol\":1497:1507  msg.sender */\n      caller\n        /* \"Crowdfunding.sol\":1497:1516  msg.sender == owner */\n      eq\n        /* \"Crowdfunding.sol\":1489:1534  require(msg.sender == owner, \"Not the owner\") */\n      tag_190\n      jumpi\n      mload(0x40)\n      shl(0xe5, 0x461bcd)\n      dup2\n      mstore\n        /* \"#utility.yul\":6957:6959   */\n      0x20\n        /* \"Crowdfunding.sol\":1489:1534  require(msg.sender == owner, \"Not the owner\") */\n      0x04\n      dup3\n      add\n        /* \"#utility.yul\":6939:6960   */\n      mstore\n        /* \"#utility.yul\":6996:6998   */\n      0x0d\n        /* \"#utility.yul\":6976:6994   */\n      0x24\n      dup3\n      add\n        /* \"#utility.yul\":6969:6999   */\n      mstore\n      shl(0x99, 0x2737ba103a34329037bbb732b9)\n        /* \"#utility.yul\":7015:7033   */\n      0x44\n      dup3\n      add\n        /* \"#utility.yul\":7008:7051   */\n      mstore\n        /* \"#utility.yul\":7068:7086   */\n      0x64\n      add\n        /* \"Crowdfunding.sol\":1489:1534  require(msg.sender == owner, \"Not the owner\") */\n      tag_158\n        /* \"#utility.yul\":6755:7092   */\n      jump\n        /* \"Crowdfunding.sol\":1489:1534  require(msg.sender == owner, \"Not the owner\") */\n    tag_190:\n        /* \"Crowdfunding.sol\":1612:1632  CampaignState.Active */\n      0x00\n        /* \"Crowdfunding.sol\":1603:1608  state */\n      sload(0x05)\n      shl(0xb0, 0x01)\n      swap1\n      div\n      0xff\n      and\n        /* \"Crowdfunding.sol\":1603:1632  state == CampaignState.Active */\n      0x02\n      dup2\n      gt\n      iszero\n      tag_196\n      jumpi\n      tag_196\n      tag_163\n      jump\t// in\n    tag_196:\n      eq\n        /* \"Crowdfunding.sol\":1595:1659  require(state == CampaignState.Active, \"Campaign is not active\") */\n      tag_197\n      jumpi\n      mload(0x40)\n      shl(0xe5, 0x461bcd)\n      dup2\n      mstore\n        /* \"#utility.yul\":7299:7301   */\n      0x20\n        /* \"Crowdfunding.sol\":1595:1659  require(state == CampaignState.Active, \"Campaign is not active\") */\n      0x04\n      dup3\n      add\n        /* \"#utility.yul\":7281:7302   */\n      mstore\n        /* \"#utility.yul\":7338:7340   */\n      0x16\n        /* \"#utility.yul\":7318:7336   */\n      0x24\n      dup3\n      add\n        /* \"#utility.yul\":7311:7341   */\n      mstore\n      shl(0x50, 0x43616d706169676e206973206e6f7420616374697665)\n        /* \"#utility.yul\":7357:7375   */\n      0x44\n      dup3\n      add\n        /* \"#utility.yul\":7350:7402   */\n      mstore\n        /* \"#utility.yul\":7419:7437   */\n      0x64\n      add\n        /* \"Crowdfunding.sol\":1595:1659  require(state == CampaignState.Active, \"Campaign is not active\") */\n      tag_158\n        /* \"#utility.yul\":7097:7443   */\n      jump\n        /* \"Crowdfunding.sol\":1595:1659  require(state == CampaignState.Active, \"Campaign is not active\") */\n    tag_197:\n        /* \"Crowdfunding.sol\":7220:7239  _daysToAdd * 1 days */\n      tag_200\n        /* \"Crowdfunding.sol\":7220:7230  _daysToAdd */\n      dup2\n        /* \"Crowdfunding.sol\":7233:7239  1 days */\n      0x015180\n        /* \"Crowdfunding.sol\":7220:7239  _daysToAdd * 1 days */\n      tag_201\n      jump\t// in\n    tag_200:\n        /* \"Crowdfunding.sol\":7208:7216  deadline */\n      0x04\n      0x00\n        /* \"Crowdfunding.sol\":7208:7239  deadline += _daysToAdd * 1 days */\n      dup3\n      dup3\n      sload\n      tag_202\n      swap2\n      swap1\n      tag_203\n      jump\t// in\n    tag_202:\n      swap1\n      swap2\n      sstore\n      pop\n      pop\n      pop\n        /* \"Crowdfunding.sol\":7123:7247  function extendDeadline(uint256 _daysToAdd) public onlyOwner campaignOpen {... */\n      jump\t// out\n        /* \"Crowdfunding.sol\":5172:5609  function withdraw() public onlyOwner {... */\n    tag_62:\n        /* \"Crowdfunding.sol\":1511:1516  owner */\n      and(sub(shl(0xa0, 0x01), 0x01), sload(0x05))\n        /* \"Crowdfunding.sol\":1497:1507  msg.sender */\n      caller\n        /* \"Crowdfunding.sol\":1497:1516  msg.sender == owner */\n      eq\n        /* \"Crowdfunding.sol\":1489:1534  require(msg.sender == owner, \"Not the owner\") */\n      tag_205\n      jumpi\n      mload(0x40)\n      shl(0xe5, 0x461bcd)\n      dup2\n      mstore\n        /* \"#utility.yul\":6957:6959   */\n      0x20\n        /* \"Crowdfunding.sol\":1489:1534  require(msg.sender == owner, \"Not the owner\") */\n      0x04\n      dup3\n      add\n        /* \"#utility.yul\":6939:6960   */\n      mstore\n        /* \"#utility.yul\":6996:6998   */\n      0x0d\n        /* \"#utility.yul\":6976:6994   */\n      0x24\n      dup3\n      add\n        /* \"#utility.yul\":6969:6999   */\n      mstore\n      shl(0x99, 0x2737ba103a34329037bbb732b9)\n        /* \"#utility.yul\":7015:7033   */\n      0x44\n      dup3\n      add\n        /* \"#utility.yul\":7008:7051   */\n      mstore\n        /* \"#utility.yul\":7068:7086   */\n      0x64\n      add\n        /* \"Crowdfunding.sol\":1489:1534  require(msg.sender == owner, \"Not the owner\") */\n      tag_158\n        /* \"#utility.yul\":6755:7092   */\n      jump\n        /* \"Crowdfunding.sol\":1489:1534  require(msg.sender == owner, \"Not the owner\") */\n    tag_205:\n        /* \"Crowdfunding.sol\":5220:5249  checkAndUpdateCampaignState() */\n      tag_208\n        /* \"Crowdfunding.sol\":5220:5247  checkAndUpdateCampaignState */\n      tag_209\n        /* \"Crowdfunding.sol\":5220:5249  checkAndUpdateCampaignState() */\n      jump\t// in\n    tag_208:\n        /* \"Crowdfunding.sol\":5277:5301  CampaignState.Successful */\n      0x01\n        /* \"Crowdfunding.sol\":5268:5273  state */\n      sload(0x05)\n      shl(0xb0, 0x01)\n      swap1\n      div\n      0xff\n      and\n        /* \"Crowdfunding.sol\":5268:5301  state == CampaignState.Successful */\n      0x02\n      dup2\n      gt\n      iszero\n      tag_213\n      jumpi\n      tag_213\n      tag_163\n      jump\t// in\n    tag_213:\n      eq\n        /* \"Crowdfunding.sol\":5260:5329  require(state == CampaignState.Successful, \"Campaign not successful\") */\n      tag_214\n      jumpi\n      mload(0x40)\n      shl(0xe5, 0x461bcd)\n      dup2\n      mstore\n        /* \"#utility.yul\":10255:10257   */\n      0x20\n        /* \"Crowdfunding.sol\":5260:5329  require(state == CampaignState.Successful, \"Campaign not successful\") */\n      0x04\n      dup3\n      add\n        /* \"#utility.yul\":10237:10258   */\n      mstore\n        /* \"#utility.yul\":10294:10296   */\n      0x17\n        /* \"#utility.yul\":10274:10292   */\n      0x24\n      dup3\n      add\n        /* \"#utility.yul\":10267:10297   */\n      mstore\n        /* \"#utility.yul\":10333:10358   */\n      0x43616d706169676e206e6f74207375636365737366756c000000000000000000\n        /* \"#utility.yul\":10313:10331   */\n      0x44\n      dup3\n      add\n        /* \"#utility.yul\":10306:10359   */\n      mstore\n        /* \"#utility.yul\":10376:10394   */\n      0x64\n      add\n        /* \"Crowdfunding.sol\":5260:5329  require(state == CampaignState.Successful, \"Campaign not successful\") */\n      tag_158\n        /* \"#utility.yul\":10053:10400   */\n      jump\n        /* \"Crowdfunding.sol\":5260:5329  require(state == CampaignState.Successful, \"Campaign not successful\") */\n    tag_214:\n        /* \"Crowdfunding.sol\":5368:5389  address(this).balance */\n      selfbalance\n        /* \"Crowdfunding.sol\":5408:5419  balance > 0 */\n      dup1\n        /* \"Crowdfunding.sol\":5400:5446  require(balance > 0, \"No balance to withdraw\") */\n      tag_217\n      jumpi\n      mload(0x40)\n      shl(0xe5, 0x461bcd)\n      dup2\n      mstore\n        /* \"#utility.yul\":10607:10609   */\n      0x20\n        /* \"Crowdfunding.sol\":5400:5446  require(balance > 0, \"No balance to withdraw\") */\n      0x04\n      dup3\n      add\n        /* \"#utility.yul\":10589:10610   */\n      mstore\n        /* \"#utility.yul\":10646:10648   */\n      0x16\n        /* \"#utility.yul\":10626:10644   */\n      0x24\n      dup3\n      add\n        /* \"#utility.yul\":10619:10649   */\n      mstore\n        /* \"#utility.yul\":10685:10709   */\n      0x4e6f2062616c616e636520746f20776974686472617700000000000000000000\n        /* \"#utility.yul\":10665:10683   */\n      0x44\n      dup3\n      add\n        /* \"#utility.yul\":10658:10710   */\n      mstore\n        /* \"#utility.yul\":10727:10745   */\n      0x64\n      add\n        /* \"Crowdfunding.sol\":5400:5446  require(balance > 0, \"No balance to withdraw\") */\n      tag_158\n        /* \"#utility.yul\":10405:10751   */\n      jump\n        /* \"Crowdfunding.sol\":5400:5446  require(balance > 0, \"No balance to withdraw\") */\n    tag_217:\n        /* \"Crowdfunding.sol\":5475:5480  owner */\n      sload(0x05)\n        /* \"Crowdfunding.sol\":5475:5505  owner.call{value: balance}(\"\") */\n      mload(0x40)\n        /* \"Crowdfunding.sol\":5460:5469  bool sent */\n      0x00\n      swap2\n      sub(shl(0xa0, 0x01), 0x01)\n        /* \"Crowdfunding.sol\":5475:5480  owner */\n      and\n      swap1\n        /* \"Crowdfunding.sol\":5493:5500  balance */\n      dup4\n      swap1\n        /* \"Crowdfunding.sol\":5460:5469  bool sent */\n      dup4\n        /* \"Crowdfunding.sol\":5475:5505  owner.call{value: balance}(\"\") */\n      dup2\n        /* \"Crowdfunding.sol\":5460:5469  bool sent */\n      dup2\n        /* \"Crowdfunding.sol\":5475:5505  owner.call{value: balance}(\"\") */\n      dup2\n        /* \"Crowdfunding.sol\":5493:5500  balance */\n      dup6\n        /* \"Crowdfunding.sol\":5475:5480  owner */\n      dup8\n        /* \"Crowdfunding.sol\":5475:5505  owner.call{value: balance}(\"\") */\n      gas\n      call\n      swap3\n      pop\n      pop\n      pop\n      returndatasize\n      dup1\n      0x00\n      dup2\n      eq\n      tag_224\n      jumpi\n      mload(0x40)\n      swap2\n      pop\n      and(add(returndatasize, 0x3f), not(0x1f))\n      dup3\n      add\n      0x40\n      mstore\n      returndatasize\n      dup3\n      mstore\n      returndatasize\n      0x00\n      0x20\n      dup5\n      add\n      returndatacopy\n      jump(tag_223)\n    tag_224:\n      0x60\n      swap2\n      pop\n    tag_223:\n      pop\n        /* \"Crowdfunding.sol\":5459:5505  (bool sent, ) = owner.call{value: balance}(\"\") */\n      pop\n      swap1\n      pop\n        /* \"Crowdfunding.sol\":5524:5528  sent */\n      dup1\n        /* \"Crowdfunding.sol\":5516:5557  require(sent, \"Failed to withdraw funds\") */\n      tag_225\n      jumpi\n      mload(0x40)\n      shl(0xe5, 0x461bcd)\n      dup2\n      mstore\n        /* \"#utility.yul\":11168:11170   */\n      0x20\n        /* \"Crowdfunding.sol\":5516:5557  require(sent, \"Failed to withdraw funds\") */\n      0x04\n      dup3\n      add\n        /* \"#utility.yul\":11150:11171   */\n      mstore\n        /* \"#utility.yul\":11207:11209   */\n      0x18\n        /* \"#utility.yul\":11187:11205   */\n      0x24\n      dup3\n      add\n        /* \"#utility.yul\":11180:11210   */\n      mstore\n        /* \"#utility.yul\":11246:11272   */\n      0x4661696c656420746f2077697468647261772066756e64730000000000000000\n        /* \"#utility.yul\":11226:11244   */\n      0x44\n      dup3\n      add\n        /* \"#utility.yul\":11219:11273   */\n      mstore\n        /* \"#utility.yul\":11290:11308   */\n      0x64\n      add\n        /* \"Crowdfunding.sol\":5516:5557  require(sent, \"Failed to withdraw funds\") */\n      tag_158\n        /* \"#utility.yul\":10966:11314   */\n      jump\n        /* \"Crowdfunding.sol\":5516:5557  require(sent, \"Failed to withdraw funds\") */\n    tag_225:\n        /* \"Crowdfunding.sol\":5586:5591  owner */\n      sload(0x05)\n        /* \"Crowdfunding.sol\":5575:5601  Withdrawal(owner, balance) */\n      mload(0x40)\n        /* \"#utility.yul\":3358:3383   */\n      dup4\n      dup2\n      mstore\n      sub(shl(0xa0, 0x01), 0x01)\n        /* \"Crowdfunding.sol\":5586:5591  owner */\n      swap1\n      swap2\n      and\n      swap1\n        /* \"Crowdfunding.sol\":5575:5601  Withdrawal(owner, balance) */\n      0x7fcf532c15f0a6db0bd6d0e038bea71d30d808c7d98cb3bf7268a95bf5081b65\n      swap1\n        /* \"#utility.yul\":3346:3348   */\n      0x20\n        /* \"#utility.yul\":3331:3349   */\n      add\n        /* \"Crowdfunding.sol\":5575:5601  Withdrawal(owner, balance) */\n    tag_228:\n      mload(0x40)\n      dup1\n      swap2\n      sub\n      swap1\n      log2\n        /* \"Crowdfunding.sol\":5209:5609  {... */\n      pop\n      pop\n        /* \"Crowdfunding.sol\":5172:5609  function withdraw() public onlyOwner {... */\n      jump\t// out\n        /* \"Crowdfunding.sol\":5732:6473  function refund() public {... */\n    tag_69:\n        /* \"Crowdfunding.sol\":5768:5797  checkAndUpdateCampaignState() */\n      tag_230\n        /* \"Crowdfunding.sol\":5768:5795  checkAndUpdateCampaignState */\n      tag_209\n        /* \"Crowdfunding.sol\":5768:5797  checkAndUpdateCampaignState() */\n      jump\t// in\n    tag_230:\n        /* \"Crowdfunding.sol\":5825:5845  CampaignState.Failed */\n      0x02\n        /* \"Crowdfunding.sol\":5816:5821  state */\n      sload(0x05)\n      shl(0xb0, 0x01)\n      swap1\n      div\n      0xff\n      and\n        /* \"Crowdfunding.sol\":5816:5845  state == CampaignState.Failed */\n      0x02\n      dup2\n      gt\n      iszero\n      tag_234\n      jumpi\n      tag_234\n      tag_163\n      jump\t// in\n    tag_234:\n      eq\n        /* \"Crowdfunding.sol\":5808:5871  require(state == CampaignState.Failed, \"Refunds not available\") */\n      tag_235\n      jumpi\n      mload(0x40)\n      shl(0xe5, 0x461bcd)\n      dup2\n      mstore\n        /* \"#utility.yul\":11521:11523   */\n      0x20\n        /* \"Crowdfunding.sol\":5808:5871  require(state == CampaignState.Failed, \"Refunds not available\") */\n      0x04\n      dup3\n      add\n        /* \"#utility.yul\":11503:11524   */\n      mstore\n        /* \"#utility.yul\":11560:11562   */\n      0x15\n        /* \"#utility.yul\":11540:11558   */\n      0x24\n      dup3\n      add\n        /* \"#utility.yul\":11533:11563   */\n      mstore\n        /* \"#utility.yul\":11599:11622   */\n      0x526566756e6473206e6f7420617661696c61626c650000000000000000000000\n        /* \"#utility.yul\":11579:11597   */\n      0x44\n      dup3\n      add\n        /* \"#utility.yul\":11572:11623   */\n      mstore\n        /* \"#utility.yul\":11640:11658   */\n      0x64\n      add\n        /* \"Crowdfunding.sol\":5808:5871  require(state == CampaignState.Failed, \"Refunds not available\") */\n      tag_158\n        /* \"#utility.yul\":11319:11664   */\n      jump\n        /* \"Crowdfunding.sol\":5808:5871  require(state == CampaignState.Failed, \"Refunds not available\") */\n    tag_235:\n        /* \"Crowdfunding.sol\":5917:5927  msg.sender */\n      caller\n        /* \"Crowdfunding.sol\":5892:5906  uint256 amount */\n      0x00\n        /* \"Crowdfunding.sol\":5909:5928  backers[msg.sender] */\n      swap1\n      dup2\n      mstore\n        /* \"Crowdfunding.sol\":5909:5916  backers */\n      0x07\n        /* \"Crowdfunding.sol\":5909:5928  backers[msg.sender] */\n      0x20\n      mstore\n      0x40\n      swap1\n      keccak256\n        /* \"Crowdfunding.sol\":5909:5946  backers[msg.sender].totalContribution */\n      sload\n        /* \"Crowdfunding.sol\":5965:5975  amount > 0 */\n      dup1\n        /* \"Crowdfunding.sol\":5957:6005  require(amount > 0, \"No contribution to refund\") */\n      tag_238\n      jumpi\n      mload(0x40)\n      shl(0xe5, 0x461bcd)\n      dup2\n      mstore\n        /* \"#utility.yul\":11871:11873   */\n      0x20\n        /* \"Crowdfunding.sol\":5957:6005  require(amount > 0, \"No contribution to refund\") */\n      0x04\n      dup3\n      add\n        /* \"#utility.yul\":11853:11874   */\n      mstore\n        /* \"#utility.yul\":11910:11912   */\n      0x19\n        /* \"#utility.yul\":11890:11908   */\n      0x24\n      dup3\n      add\n        /* \"#utility.yul\":11883:11913   */\n      mstore\n        /* \"#utility.yul\":11949:11976   */\n      0x4e6f20636f6e747269627574696f6e20746f20726566756e6400000000000000\n        /* \"#utility.yul\":11929:11947   */\n      0x44\n      dup3\n      add\n        /* \"#utility.yul\":11922:11977   */\n      mstore\n        /* \"#utility.yul\":11994:12012   */\n      0x64\n      add\n        /* \"Crowdfunding.sol\":5957:6005  require(amount > 0, \"No contribution to refund\") */\n      tag_158\n        /* \"#utility.yul\":11669:12018   */\n      jump\n        /* \"Crowdfunding.sol\":5957:6005  require(amount > 0, \"No contribution to refund\") */\n    tag_238:\n        /* \"Crowdfunding.sol\":6033:6043  msg.sender */\n      caller\n        /* \"Crowdfunding.sol\":6025:6044  backers[msg.sender] */\n      0x00\n      swap1\n      dup2\n      mstore\n        /* \"Crowdfunding.sol\":6025:6032  backers */\n      0x07\n        /* \"Crowdfunding.sol\":6025:6044  backers[msg.sender] */\n      0x20\n      mstore\n      0x40\n      swap1\n      keccak256\n        /* \"Crowdfunding.sol\":6025:6061  backers[msg.sender].hasClaimedRefund */\n      0x01\n      add\n      sload\n      0xff\n      and\n        /* \"Crowdfunding.sol\":6024:6061  !backers[msg.sender].hasClaimedRefund */\n      iszero\n        /* \"Crowdfunding.sol\":6016:6088  require(!backers[msg.sender].hasClaimedRefund, \"Refund already claimed\") */\n      tag_241\n      jumpi\n      mload(0x40)\n      shl(0xe5, 0x461bcd)\n      dup2\n      mstore\n        /* \"#utility.yul\":12225:12227   */\n      0x20\n        /* \"Crowdfunding.sol\":6016:6088  require(!backers[msg.sender].hasClaimedRefund, \"Refund already claimed\") */\n      0x04\n      dup3\n      add\n        /* \"#utility.yul\":12207:12228   */\n      mstore\n        /* \"#utility.yul\":12264:12266   */\n      0x16\n        /* \"#utility.yul\":12244:12262   */\n      0x24\n      dup3\n      add\n        /* \"#utility.yul\":12237:12267   */\n      mstore\n        /* \"#utility.yul\":12303:12327   */\n      0x526566756e6420616c726561647920636c61696d656400000000000000000000\n        /* \"#utility.yul\":12283:12301   */\n      0x44\n      dup3\n      add\n        /* \"#utility.yul\":12276:12328   */\n      mstore\n        /* \"#utility.yul\":12345:12363   */\n      0x64\n      add\n        /* \"Crowdfunding.sol\":6016:6088  require(!backers[msg.sender].hasClaimedRefund, \"Refund already claimed\") */\n      tag_158\n        /* \"#utility.yul\":12023:12369   */\n      jump\n        /* \"Crowdfunding.sol\":6016:6088  require(!backers[msg.sender].hasClaimedRefund, \"Refund already claimed\") */\n    tag_241:\n        /* \"Crowdfunding.sol\":6217:6227  msg.sender */\n      caller\n        /* \"Crowdfunding.sol\":6209:6228  backers[msg.sender] */\n      0x00\n      dup2\n      dup2\n      mstore\n        /* \"Crowdfunding.sol\":6209:6216  backers */\n      0x07\n        /* \"Crowdfunding.sol\":6209:6228  backers[msg.sender] */\n      0x20\n      mstore\n      0x40\n      dup1\n      dup3\n      keccak256\n        /* \"Crowdfunding.sol\":6248:6252  true */\n      0x01\n        /* \"Crowdfunding.sol\":6209:6245  backers[msg.sender].hasClaimedRefund */\n      swap1\n      dup2\n      add\n        /* \"Crowdfunding.sol\":6209:6252  backers[msg.sender].hasClaimedRefund = true */\n      dup1\n      sload\n      not(0xff)\n      and\n      swap1\n      swap2\n      or\n      swap1\n      sstore\n        /* \"Crowdfunding.sol\":6333:6367  msg.sender.call{value: amount}(\"\") */\n      mload\n        /* \"Crowdfunding.sol\":6209:6228  backers[msg.sender] */\n      swap1\n      swap2\n        /* \"Crowdfunding.sol\":6217:6227  msg.sender */\n      swap1\n        /* \"Crowdfunding.sol\":6356:6362  amount */\n      dup4\n      swap1\n        /* \"Crowdfunding.sol\":6209:6228  backers[msg.sender] */\n      dup4\n        /* \"Crowdfunding.sol\":6333:6367  msg.sender.call{value: amount}(\"\") */\n      dup2\n        /* \"Crowdfunding.sol\":6209:6228  backers[msg.sender] */\n      dup2\n        /* \"Crowdfunding.sol\":6333:6367  msg.sender.call{value: amount}(\"\") */\n      dup2\n        /* \"Crowdfunding.sol\":6356:6362  amount */\n      dup6\n        /* \"Crowdfunding.sol\":6217:6227  msg.sender */\n      dup8\n        /* \"Crowdfunding.sol\":6333:6367  msg.sender.call{value: amount}(\"\") */\n      gas\n      call\n      swap3\n      pop\n      pop\n      pop\n      returndatasize\n      dup1\n      0x00\n      dup2\n      eq\n      tag_247\n      jumpi\n      mload(0x40)\n      swap2\n      pop\n      and(add(returndatasize, 0x3f), not(0x1f))\n      dup3\n      add\n      0x40\n      mstore\n      returndatasize\n      dup3\n      mstore\n      returndatasize\n      0x00\n      0x20\n      dup5\n      add\n      returndatacopy\n      jump(tag_246)\n    tag_247:\n      0x60\n      swap2\n      pop\n    tag_246:\n      pop\n        /* \"Crowdfunding.sol\":6317:6367  (bool sent, ) = msg.sender.call{value: amount}(\"\") */\n      pop\n      swap1\n      pop\n        /* \"Crowdfunding.sol\":6386:6390  sent */\n      dup1\n        /* \"Crowdfunding.sol\":6378:6411  require(sent, \"Failed to refund\") */\n      tag_248\n      jumpi\n      mload(0x40)\n      shl(0xe5, 0x461bcd)\n      dup2\n      mstore\n        /* \"#utility.yul\":12576:12578   */\n      0x20\n        /* \"Crowdfunding.sol\":6378:6411  require(sent, \"Failed to refund\") */\n      0x04\n      dup3\n      add\n        /* \"#utility.yul\":12558:12579   */\n      mstore\n        /* \"#utility.yul\":12615:12617   */\n      0x10\n        /* \"#utility.yul\":12595:12613   */\n      0x24\n      dup3\n      add\n        /* \"#utility.yul\":12588:12618   */\n      mstore\n        /* \"#utility.yul\":12654:12672   */\n      0x4661696c656420746f20726566756e6400000000000000000000000000000000\n        /* \"#utility.yul\":12634:12652   */\n      0x44\n      dup3\n      add\n        /* \"#utility.yul\":12627:12673   */\n      mstore\n        /* \"#utility.yul\":12690:12708   */\n      0x64\n      add\n        /* \"Crowdfunding.sol\":6378:6411  require(sent, \"Failed to refund\") */\n      tag_158\n        /* \"#utility.yul\":12374:12714   */\n      jump\n        /* \"Crowdfunding.sol\":6378:6411  require(sent, \"Failed to refund\") */\n    tag_248:\n        /* \"Crowdfunding.sol\":6437:6465  Refunded(msg.sender, amount) */\n      mload(0x40)\n        /* \"#utility.yul\":3358:3383   */\n      dup3\n      dup2\n      mstore\n        /* \"Crowdfunding.sol\":6446:6456  msg.sender */\n      caller\n      swap1\n        /* \"Crowdfunding.sol\":6437:6465  Refunded(msg.sender, amount) */\n      0xd7dee2702d63ad89917b6a4da9981c90c4d24f8c2bdfd64c604ecae57d8d0651\n      swap1\n        /* \"#utility.yul\":3346:3348   */\n      0x20\n        /* \"#utility.yul\":3331:3349   */\n      add\n        /* \"Crowdfunding.sol\":6437:6465  Refunded(msg.sender, amount) */\n      tag_228\n        /* \"#utility.yul\":3212:3389   */\n      jump\n        /* \"Crowdfunding.sol\":7046:7115  function Pause() public onlyOwner {... */\n    tag_77:\n        /* \"Crowdfunding.sol\":1511:1516  owner */\n      and(sub(shl(0xa0, 0x01), 0x01), sload(0x05))\n        /* \"Crowdfunding.sol\":1497:1507  msg.sender */\n      caller\n        /* \"Crowdfunding.sol\":1497:1516  msg.sender == owner */\n      eq\n        /* \"Crowdfunding.sol\":1489:1534  require(msg.sender == owner, \"Not the owner\") */\n      tag_253\n      jumpi\n      mload(0x40)\n      shl(0xe5, 0x461bcd)\n      dup2\n      mstore\n        /* \"#utility.yul\":6957:6959   */\n      0x20\n        /* \"Crowdfunding.sol\":1489:1534  require(msg.sender == owner, \"Not the owner\") */\n      0x04\n      dup3\n      add\n        /* \"#utility.yul\":6939:6960   */\n      mstore\n        /* \"#utility.yul\":6996:6998   */\n      0x0d\n        /* \"#utility.yul\":6976:6994   */\n      0x24\n      dup3\n      add\n        /* \"#utility.yul\":6969:6999   */\n      mstore\n      shl(0x99, 0x2737ba103a34329037bbb732b9)\n        /* \"#utility.yul\":7015:7033   */\n      0x44\n      dup3\n      add\n        /* \"#utility.yul\":7008:7051   */\n      mstore\n        /* \"#utility.yul\":7068:7086   */\n      0x64\n      add\n        /* \"Crowdfunding.sol\":1489:1534  require(msg.sender == owner, \"Not the owner\") */\n      tag_158\n        /* \"#utility.yul\":6755:7092   */\n      jump\n        /* \"Crowdfunding.sol\":1489:1534  require(msg.sender == owner, \"Not the owner\") */\n    tag_253:\n        /* \"Crowdfunding.sol\":7101:7107  paused */\n      0x05\n      dup1\n      sload\n        /* \"Crowdfunding.sol\":7091:7107  paused = !paused */\n      0xffffffffffffffffffffff00ffffffffffffffffffffffffffffffffffffffff\n      dup2\n      and\n      shl(0xa0, 0x01)\n        /* \"Crowdfunding.sol\":7101:7107  paused */\n      swap2\n      dup3\n      swap1\n      div\n      0xff\n      and\n        /* \"Crowdfunding.sol\":7100:7107  !paused */\n      iszero\n        /* \"Crowdfunding.sol\":7091:7107  paused = !paused */\n      swap1\n      swap2\n      mul\n      or\n      swap1\n      sstore\n        /* \"Crowdfunding.sol\":7046:7115  function Pause() public onlyOwner {... */\n      jump\t// out\n        /* \"Crowdfunding.sol\":699:724  string public description */\n    tag_80:\n      0x01\n      dup1\n      sload\n      tag_134\n      swap1\n      tag_135\n      jump\t// in\n        /* \"Crowdfunding.sol\":4040:4411  function fund() public payable campaignOpen notPaused {... */\n    tag_88:\n        /* \"Crowdfunding.sol\":1612:1632  CampaignState.Active */\n      0x00\n        /* \"Crowdfunding.sol\":1603:1608  state */\n      sload(0x05)\n      shl(0xb0, 0x01)\n      swap1\n      div\n      0xff\n      and\n        /* \"Crowdfunding.sol\":1603:1632  state == CampaignState.Active */\n      0x02\n      dup2\n      gt\n      iszero\n      tag_265\n      jumpi\n      tag_265\n      tag_163\n      jump\t// in\n    tag_265:\n      eq\n        /* \"Crowdfunding.sol\":1595:1659  require(state == CampaignState.Active, \"Campaign is not active\") */\n      tag_266\n      jumpi\n      mload(0x40)\n      shl(0xe5, 0x461bcd)\n      dup2\n      mstore\n        /* \"#utility.yul\":7299:7301   */\n      0x20\n        /* \"Crowdfunding.sol\":1595:1659  require(state == CampaignState.Active, \"Campaign is not active\") */\n      0x04\n      dup3\n      add\n        /* \"#utility.yul\":7281:7302   */\n      mstore\n        /* \"#utility.yul\":7338:7340   */\n      0x16\n        /* \"#utility.yul\":7318:7336   */\n      0x24\n      dup3\n      add\n        /* \"#utility.yul\":7311:7341   */\n      mstore\n      shl(0x50, 0x43616d706169676e206973206e6f7420616374697665)\n        /* \"#utility.yul\":7357:7375   */\n      0x44\n      dup3\n      add\n        /* \"#utility.yul\":7350:7402   */\n      mstore\n        /* \"#utility.yul\":7419:7437   */\n      0x64\n      add\n        /* \"Crowdfunding.sol\":1595:1659  require(state == CampaignState.Active, \"Campaign is not active\") */\n      tag_158\n        /* \"#utility.yul\":7097:7443   */\n      jump\n        /* \"Crowdfunding.sol\":1595:1659  require(state == CampaignState.Active, \"Campaign is not active\") */\n    tag_266:\n        /* \"Crowdfunding.sol\":1726:1732  paused */\n      sload(0x05)\n      shl(0xa0, 0x01)\n      swap1\n      div\n      0xff\n      and\n        /* \"Crowdfunding.sol\":1725:1732  !paused */\n      iszero\n        /* \"Crowdfunding.sol\":1717:1755  require(!paused, \"Contract is paused\") */\n      tag_269\n      jumpi\n      mload(0x40)\n      shl(0xe5, 0x461bcd)\n      dup2\n      mstore\n        /* \"#utility.yul\":12921:12923   */\n      0x20\n        /* \"Crowdfunding.sol\":1717:1755  require(!paused, \"Contract is paused\") */\n      0x04\n      dup3\n      add\n        /* \"#utility.yul\":12903:12924   */\n      mstore\n        /* \"#utility.yul\":12960:12962   */\n      0x12\n        /* \"#utility.yul\":12940:12958   */\n      0x24\n      dup3\n      add\n        /* \"#utility.yul\":12933:12963   */\n      mstore\n        /* \"#utility.yul\":12999:13019   */\n      0x436f6e7472616374206973207061757365640000000000000000000000000000\n        /* \"#utility.yul\":12979:12997   */\n      0x44\n      dup3\n      add\n        /* \"#utility.yul\":12972:13020   */\n      mstore\n        /* \"#utility.yul\":13037:13055   */\n      0x64\n      add\n        /* \"Crowdfunding.sol\":1717:1755  require(!paused, \"Contract is paused\") */\n      tag_158\n        /* \"#utility.yul\":12719:13061   */\n      jump\n        /* \"Crowdfunding.sol\":1717:1755  require(!paused, \"Contract is paused\") */\n    tag_269:\n        /* \"Crowdfunding.sol\":4125:4126  0 */\n      0x00\n        /* \"Crowdfunding.sol\":4113:4122  msg.value */\n      callvalue\n        /* \"Crowdfunding.sol\":4113:4126  msg.value > 0 */\n      gt\n        /* \"Crowdfunding.sol\":4105:4166  require(msg.value > 0, \"Contribution must be greater than 0\") */\n      tag_273\n      jumpi\n      mload(0x40)\n      shl(0xe5, 0x461bcd)\n      dup2\n      mstore\n        /* \"#utility.yul\":13268:13270   */\n      0x20\n        /* \"Crowdfunding.sol\":4105:4166  require(msg.value > 0, \"Contribution must be greater than 0\") */\n      0x04\n      dup3\n      add\n        /* \"#utility.yul\":13250:13271   */\n      mstore\n        /* \"#utility.yul\":13307:13309   */\n      0x23\n        /* \"#utility.yul\":13287:13305   */\n      0x24\n      dup3\n      add\n        /* \"#utility.yul\":13280:13310   */\n      mstore\n        /* \"#utility.yul\":13346:13380   */\n      0x436f6e747269627574696f6e206d757374206265206772656174657220746861\n        /* \"#utility.yul\":13326:13344   */\n      0x44\n      dup3\n      add\n        /* \"#utility.yul\":13319:13381   */\n      mstore\n      shl(0xec, 0x06e203)\n        /* \"#utility.yul\":13397:13415   */\n      0x64\n      dup3\n      add\n        /* \"#utility.yul\":13390:13423   */\n      mstore\n        /* \"#utility.yul\":13440:13459   */\n      0x84\n      add\n        /* \"Crowdfunding.sol\":4105:4166  require(msg.value > 0, \"Contribution must be greater than 0\") */\n      tag_158\n        /* \"#utility.yul\":13066:13465   */\n      jump\n        /* \"Crowdfunding.sol\":4105:4166  require(msg.value > 0, \"Contribution must be greater than 0\") */\n    tag_273:\n        /* \"Crowdfunding.sol\":4187:4197  msg.sender */\n      caller\n        /* \"Crowdfunding.sol\":4179:4198  backers[msg.sender] */\n      0x00\n      swap1\n      dup2\n      mstore\n        /* \"Crowdfunding.sol\":4179:4186  backers */\n      0x07\n        /* \"Crowdfunding.sol\":4179:4198  backers[msg.sender] */\n      0x20\n      mstore\n      0x40\n      dup2\n      keccak256\n        /* \"Crowdfunding.sol\":4179:4229  backers[msg.sender].totalContribution += msg.value */\n      dup1\n      sload\n        /* \"Crowdfunding.sol\":4220:4229  msg.value */\n      callvalue\n      swap3\n        /* \"Crowdfunding.sol\":4179:4198  backers[msg.sender] */\n      swap1\n        /* \"Crowdfunding.sol\":4179:4229  backers[msg.sender].totalContribution += msg.value */\n      tag_276\n      swap1\n        /* \"Crowdfunding.sol\":4220:4229  msg.value */\n      dup5\n      swap1\n        /* \"Crowdfunding.sol\":4179:4229  backers[msg.sender].totalContribution += msg.value */\n      tag_203\n      jump\t// in\n    tag_276:\n      swap3\n      pop\n      pop\n      dup2\n      swap1\n      sstore\n      pop\n        /* \"Crowdfunding.sol\":4258:4267  msg.value */\n      callvalue\n        /* \"Crowdfunding.sol\":4240:4254  totalCollected */\n      0x08\n      0x00\n        /* \"Crowdfunding.sol\":4240:4267  totalCollected += msg.value */\n      dup3\n      dup3\n      sload\n      tag_277\n      swap2\n      swap1\n      tag_203\n      jump\t// in\n    tag_277:\n      swap1\n      swap2\n      sstore\n      pop\n      pop\n        /* \"Crowdfunding.sol\":4292:4302  msg.sender */\n      caller\n        /* \"Crowdfunding.sol\":4315:4334  backers[msg.sender] */\n      0x00\n      dup2\n      dup2\n      mstore\n        /* \"Crowdfunding.sol\":4315:4322  backers */\n      0x07\n        /* \"Crowdfunding.sol\":4315:4334  backers[msg.sender] */\n      0x20\n      swap1\n      dup2\n      mstore\n      0x40\n      swap2\n      dup3\n      swap1\n      keccak256\n        /* \"Crowdfunding.sol\":4315:4352  backers[msg.sender].totalContribution */\n      sload\n        /* \"Crowdfunding.sol\":4285:4353  Funded(msg.sender, msg.value, backers[msg.sender].totalContribution) */\n      dup3\n      mload\n        /* \"Crowdfunding.sol\":4304:4313  msg.value */\n      callvalue\n        /* \"#utility.yul\":13644:13669   */\n      dup2\n      mstore\n        /* \"#utility.yul\":13685:13703   */\n      swap2\n      dup3\n      add\n        /* \"#utility.yul\":13678:13712   */\n      mstore\n        /* \"Crowdfunding.sol\":4285:4353  Funded(msg.sender, msg.value, backers[msg.sender].totalContribution) */\n      0xcd909ec339185c4598a4096e174308fbdf136d117f230960f873a2f2e81f63af\n      swap2\n        /* \"#utility.yul\":13617:13635   */\n      add\n        /* \"Crowdfunding.sol\":4285:4353  Funded(msg.sender, msg.value, backers[msg.sender].totalContribution) */\n      mload(0x40)\n      dup1\n      swap2\n      sub\n      swap1\n      log2\n        /* \"Crowdfunding.sol\":4374:4403  checkAndUpdateCampaignState() */\n      tag_280\n        /* \"Crowdfunding.sol\":4374:4401  checkAndUpdateCampaignState */\n      tag_209\n        /* \"Crowdfunding.sol\":4374:4403  checkAndUpdateCampaignState() */\n      jump\t// in\n    tag_280:\n        /* \"Crowdfunding.sol\":4040:4411  function fund() public payable campaignOpen notPaused {... */\n      jump\t// out\n        /* \"Crowdfunding.sol\":3238:3901  function removeRewardTier(uint256 _index) public onlyOwner campaignOpen {... */\n    tag_108:\n        /* \"Crowdfunding.sol\":1511:1516  owner */\n      and(sub(shl(0xa0, 0x01), 0x01), sload(0x05))\n        /* \"Crowdfunding.sol\":1497:1507  msg.sender */\n      caller\n        /* \"Crowdfunding.sol\":1497:1516  msg.sender == owner */\n      eq\n        /* \"Crowdfunding.sol\":1489:1534  require(msg.sender == owner, \"Not the owner\") */\n      tag_282\n      jumpi\n      mload(0x40)\n      shl(0xe5, 0x461bcd)\n      dup2\n      mstore\n        /* \"#utility.yul\":6957:6959   */\n      0x20\n        /* \"Crowdfunding.sol\":1489:1534  require(msg.sender == owner, \"Not the owner\") */\n      0x04\n      dup3\n      add\n        /* \"#utility.yul\":6939:6960   */\n      mstore\n        /* \"#utility.yul\":6996:6998   */\n      0x0d\n        /* \"#utility.yul\":6976:6994   */\n      0x24\n      dup3\n      add\n        /* \"#utility.yul\":6969:6999   */\n      mstore\n      shl(0x99, 0x2737ba103a34329037bbb732b9)\n        /* \"#utility.yul\":7015:7033   */\n      0x44\n      dup3\n      add\n        /* \"#utility.yul\":7008:7051   */\n      mstore\n        /* \"#utility.yul\":7068:7086   */\n      0x64\n      add\n        /* \"Crowdfunding.sol\":1489:1534  require(msg.sender == owner, \"Not the owner\") */\n      tag_158\n        /* \"#utility.yul\":6755:7092   */\n      jump\n        /* \"Crowdfunding.sol\":1489:1534  require(msg.sender == owner, \"Not the owner\") */\n    tag_282:\n        /* \"Crowdfunding.sol\":1612:1632  CampaignState.Active */\n      0x00\n        /* \"Crowdfunding.sol\":1603:1608  state */\n      sload(0x05)\n      shl(0xb0, 0x01)\n      swap1\n      div\n      0xff\n      and\n        /* \"Crowdfunding.sol\":1603:1632  state == CampaignState.Active */\n      0x02\n      dup2\n      gt\n      iszero\n      tag_288\n      jumpi\n      tag_288\n      tag_163\n      jump\t// in\n    tag_288:\n      eq\n        /* \"Crowdfunding.sol\":1595:1659  require(state == CampaignState.Active, \"Campaign is not active\") */\n      tag_289\n      jumpi\n      mload(0x40)\n      shl(0xe5, 0x461bcd)\n      dup2\n      mstore\n        /* \"#utility.yul\":7299:7301   */\n      0x20\n        /* \"Crowdfunding.sol\":1595:1659  require(state == CampaignState.Active, \"Campaign is not active\") */\n      0x04\n      dup3\n      add\n        /* \"#utility.yul\":7281:7302   */\n      mstore\n        /* \"#utility.yul\":7338:7340   */\n      0x16\n        /* \"#utility.yul\":7318:7336   */\n      0x24\n      dup3\n      add\n        /* \"#utility.yul\":7311:7341   */\n      mstore\n      shl(0x50, 0x43616d706169676e206973206e6f7420616374697665)\n        /* \"#utility.yul\":7357:7375   */\n      0x44\n      dup3\n      add\n        /* \"#utility.yul\":7350:7402   */\n      mstore\n        /* \"#utility.yul\":7419:7437   */\n      0x64\n      add\n        /* \"Crowdfunding.sol\":1595:1659  require(state == CampaignState.Active, \"Campaign is not active\") */\n      tag_158\n        /* \"#utility.yul\":7097:7443   */\n      jump\n        /* \"Crowdfunding.sol\":1595:1659  require(state == CampaignState.Active, \"Campaign is not active\") */\n    tag_289:\n        /* \"Crowdfunding.sol\":3338:3349  rewardTiers */\n      0x06\n        /* \"Crowdfunding.sol\":3338:3356  rewardTiers.length */\n      sload\n        /* \"Crowdfunding.sol\":3329:3356  _index < rewardTiers.length */\n      dup2\n      lt\n        /* \"Crowdfunding.sol\":3321:3379  require(_index < rewardTiers.length, \"Invalid tier index\") */\n      tag_292\n      jumpi\n      mload(0x40)\n      shl(0xe5, 0x461bcd)\n      dup2\n      mstore\n        /* \"#utility.yul\":13925:13927   */\n      0x20\n        /* \"Crowdfunding.sol\":3321:3379  require(_index < rewardTiers.length, \"Invalid tier index\") */\n      0x04\n      dup3\n      add\n        /* \"#utility.yul\":13907:13928   */\n      mstore\n        /* \"#utility.yul\":13964:13966   */\n      0x12\n        /* \"#utility.yul\":13944:13962   */\n      0x24\n      dup3\n      add\n        /* \"#utility.yul\":13937:13967   */\n      mstore\n        /* \"#utility.yul\":14003:14023   */\n      0x496e76616c6964207469657220696e6465780000000000000000000000000000\n        /* \"#utility.yul\":13983:14001   */\n      0x44\n      dup3\n      add\n        /* \"#utility.yul\":13976:14024   */\n      mstore\n        /* \"#utility.yul\":14041:14059   */\n      0x64\n      add\n        /* \"Crowdfunding.sol\":3321:3379  require(_index < rewardTiers.length, \"Invalid tier index\") */\n      tag_158\n        /* \"#utility.yul\":13723:14065   */\n      jump\n        /* \"Crowdfunding.sol\":3321:3379  require(_index < rewardTiers.length, \"Invalid tier index\") */\n    tag_292:\n        /* \"Crowdfunding.sol\":3573:3587  totalCollected */\n      sload(0x08)\n        /* \"Crowdfunding.sol\":3573:3592  totalCollected == 0 */\n      iszero\n        /* \"Crowdfunding.sol\":3565:3642  require(totalCollected == 0, \"Cannot remove tiers after funding has started\") */\n      tag_295\n      jumpi\n      mload(0x40)\n      shl(0xe5, 0x461bcd)\n      dup2\n      mstore\n        /* \"#utility.yul\":14272:14274   */\n      0x20\n        /* \"Crowdfunding.sol\":3565:3642  require(totalCollected == 0, \"Cannot remove tiers after funding has started\") */\n      0x04\n      dup3\n      add\n        /* \"#utility.yul\":14254:14275   */\n      mstore\n        /* \"#utility.yul\":14311:14313   */\n      0x2d\n        /* \"#utility.yul\":14291:14309   */\n      0x24\n      dup3\n      add\n        /* \"#utility.yul\":14284:14314   */\n      mstore\n        /* \"#utility.yul\":14350:14384   */\n      0x43616e6e6f742072656d6f76652074696572732061667465722066756e64696e\n        /* \"#utility.yul\":14330:14348   */\n      0x44\n      dup3\n      add\n        /* \"#utility.yul\":14323:14385   */\n      mstore\n        /* \"#utility.yul\":14421:14436   */\n      0x6720686173207374617274656400000000000000000000000000000000000000\n        /* \"#utility.yul\":14401:14419   */\n      0x64\n      dup3\n      add\n        /* \"#utility.yul\":14394:14437   */\n      mstore\n        /* \"#utility.yul\":14454:14473   */\n      0x84\n      add\n        /* \"Crowdfunding.sol\":3565:3642  require(totalCollected == 0, \"Cannot remove tiers after funding has started\") */\n      tag_158\n        /* \"#utility.yul\":14070:14479   */\n      jump\n        /* \"Crowdfunding.sol\":3565:3642  require(totalCollected == 0, \"Cannot remove tiers after funding has started\") */\n    tag_295:\n        /* \"Crowdfunding.sol\":3756:3767  rewardTiers */\n      0x06\n        /* \"Crowdfunding.sol\":3768:3786  rewardTiers.length */\n      dup1\n      sload\n        /* \"Crowdfunding.sol\":3768:3790  rewardTiers.length - 1 */\n      tag_298\n      swap1\n        /* \"Crowdfunding.sol\":3789:3790  1 */\n      0x01\n      swap1\n        /* \"Crowdfunding.sol\":3768:3790  rewardTiers.length - 1 */\n      tag_299\n      jump\t// in\n    tag_298:\n        /* \"Crowdfunding.sol\":3756:3791  rewardTiers[rewardTiers.length - 1] */\n      dup2\n      sload\n      dup2\n      lt\n      tag_301\n      jumpi\n      tag_301\n      tag_302\n      jump\t// in\n    tag_301:\n      swap1\n      0x00\n      mstore\n      keccak256(0x00, 0x20)\n      swap1\n      0x02\n      mul\n      add\n        /* \"Crowdfunding.sol\":3734:3745  rewardTiers */\n      0x06\n        /* \"Crowdfunding.sol\":3746:3752  _index */\n      dup3\n        /* \"Crowdfunding.sol\":3734:3753  rewardTiers[_index] */\n      dup2\n      sload\n      dup2\n      lt\n      tag_305\n      jumpi\n      tag_305\n      tag_302\n      jump\t// in\n    tag_305:\n      0x00\n      swap2\n      dup3\n      mstore\n      0x20\n      swap1\n      swap2\n      keccak256\n      0x02\n      swap1\n      swap2\n      mul\n      add\n      dup1\n        /* \"Crowdfunding.sol\":3734:3791  rewardTiers[_index] = rewardTiers[rewardTiers.length - 1] */\n      tag_307\n      dup4\n        /* \"Crowdfunding.sol\":3734:3753  rewardTiers[_index] */\n      dup3\n        /* \"Crowdfunding.sol\":3734:3791  rewardTiers[_index] = rewardTiers[rewardTiers.length - 1] */\n      tag_308\n      jump\t// in\n    tag_307:\n      pop\n      0x01\n      swap2\n      dup3\n      add\n      sload\n      swap2\n      add\n      sstore\n        /* \"Crowdfunding.sol\":3876:3887  rewardTiers */\n      0x06\n        /* \"Crowdfunding.sol\":3876:3893  rewardTiers.pop() */\n      dup1\n      sload\n      dup1\n      tag_310\n      jumpi\n      tag_310\n      tag_311\n      jump\t// in\n    tag_310:\n      0x00\n      dup3\n      dup2\n      mstore\n      0x20\n      dup2\n      keccak256\n      not(0x00)\n      swap1\n      swap3\n      add\n      swap2\n      0x02\n      dup4\n      mul\n      add\n      swap1\n      tag_313\n      dup3\n      dup3\n      tag_314\n      jump\t// in\n    tag_313:\n      0x01\n      dup3\n      add\n      0x00\n      swap1\n      sstore\n      pop\n      pop\n      swap1\n      sstore\n        /* \"Crowdfunding.sol\":3238:3901  function removeRewardTier(uint256 _index) public onlyOwner campaignOpen {... */\n      pop\n      jump\t// out\n        /* \"Crowdfunding.sol\":6933:7038  function getRewardTiers() public view returns (RewardTier[] memory) {... */\n    tag_111:\n        /* \"Crowdfunding.sol\":6980:6999  RewardTier[] memory */\n      0x60\n        /* \"Crowdfunding.sol\":7019:7030  rewardTiers */\n      0x06\n        /* \"Crowdfunding.sol\":7012:7030  return rewardTiers */\n      dup1\n      sload\n      dup1\n      0x20\n      mul\n      0x20\n      add\n      mload(0x40)\n      swap1\n      dup2\n      add\n      0x40\n      mstore\n      dup1\n      swap3\n      swap2\n      swap1\n      dup2\n      dup2\n      mstore\n      0x20\n      add\n      0x00\n      swap1\n    tag_316:\n      dup3\n      dup3\n      lt\n      iszero\n      tag_317\n      jumpi\n      dup4\n      dup3\n      swap1\n      0x00\n      mstore\n      keccak256(0x00, 0x20)\n      swap1\n      0x02\n      mul\n      add\n      mload(0x40)\n      dup1\n      0x40\n      add\n      0x40\n      mstore\n      swap1\n      dup2\n      0x00\n      dup3\n      add\n      dup1\n      sload\n      tag_319\n      swap1\n      tag_135\n      jump\t// in\n    tag_319:\n      dup1\n      0x1f\n      add\n      0x20\n      dup1\n      swap2\n      div\n      mul\n      0x20\n      add\n      mload(0x40)\n      swap1\n      dup2\n      add\n      0x40\n      mstore\n      dup1\n      swap3\n      swap2\n      swap1\n      dup2\n      dup2\n      mstore\n      0x20\n      add\n      dup3\n      dup1\n      sload\n      tag_320\n      swap1\n      tag_135\n      jump\t// in\n    tag_320:\n      dup1\n      iszero\n      tag_321\n      jumpi\n      dup1\n      0x1f\n      lt\n      tag_322\n      jumpi\n      0x0100\n      dup1\n      dup4\n      sload\n      div\n      mul\n      dup4\n      mstore\n      swap2\n      0x20\n      add\n      swap2\n      jump(tag_321)\n    tag_322:\n      dup3\n      add\n      swap2\n      swap1\n      0x00\n      mstore\n      keccak256(0x00, 0x20)\n      swap1\n    tag_323:\n      dup2\n      sload\n      dup2\n      mstore\n      swap1\n      0x01\n      add\n      swap1\n      0x20\n      add\n      dup1\n      dup4\n      gt\n      tag_323\n      jumpi\n      dup3\n      swap1\n      sub\n      0x1f\n      and\n      dup3\n      add\n      swap2\n    tag_321:\n      pop\n      pop\n      pop\n      pop\n      pop\n      dup2\n      mstore\n      0x20\n      add\n      0x01\n      dup3\n      add\n      sload\n      dup2\n      mstore\n      pop\n      pop\n      dup2\n      mstore\n      0x20\n      add\n      swap1\n      0x01\n      add\n      swap1\n      jump(tag_316)\n    tag_317:\n      pop\n      pop\n      pop\n      pop\n      swap1\n      pop\n        /* \"Crowdfunding.sol\":6933:7038  function getRewardTiers() public view returns (RewardTier[] memory) {... */\n      swap1\n      jump\t// out\n        /* \"Crowdfunding.sol\":731:750  string public image */\n    tag_121:\n      0x02\n      dup1\n      sload\n      tag_134\n      swap1\n      tag_135\n      jump\t// in\n        /* \"Crowdfunding.sol\":1248:1279  RewardTier[] public rewardTiers */\n    tag_126:\n      0x06\n      dup2\n      dup2\n      sload\n      dup2\n      lt\n      tag_329\n      jumpi\n      0x00\n      dup1\n      revert\n    tag_329:\n      swap1\n      0x00\n      mstore\n      keccak256(0x00, 0x20)\n      swap1\n      0x02\n      mul\n      add\n      0x00\n      swap2\n      pop\n      swap1\n      pop\n      dup1\n      0x00\n      add\n      dup1\n      sload\n      tag_331\n      swap1\n      tag_135\n      jump\t// in\n    tag_331:\n      dup1\n      0x1f\n      add\n      0x20\n      dup1\n      swap2\n      div\n      mul\n      0x20\n      add\n      mload(0x40)\n      swap1\n      dup2\n      add\n      0x40\n      mstore\n      dup1\n      swap3\n      swap2\n      swap1\n      dup2\n      dup2\n      mstore\n      0x20\n      add\n      dup3\n      dup1\n      sload\n      tag_332\n      swap1\n      tag_135\n      jump\t// in\n    tag_332:\n      dup1\n      iszero\n      tag_333\n      jumpi\n      dup1\n      0x1f\n      lt\n      tag_334\n      jumpi\n      0x0100\n      dup1\n      dup4\n      sload\n      div\n      mul\n      dup4\n      mstore\n      swap2\n      0x20\n      add\n      swap2\n      jump(tag_333)\n    tag_334:\n      dup3\n      add\n      swap2\n      swap1\n      0x00\n      mstore\n      keccak256(0x00, 0x20)\n      swap1\n    tag_335:\n      dup2\n      sload\n      dup2\n      mstore\n      swap1\n      0x01\n      add\n      swap1\n      0x20\n      add\n      dup1\n      dup4\n      gt\n      tag_335\n      jumpi\n      dup3\n      swap1\n      sub\n      0x1f\n      and\n      dup3\n      add\n      swap2\n    tag_333:\n      pop\n      pop\n      pop\n      pop\n      pop\n      swap1\n      dup1\n      0x01\n      add\n      sload\n      swap1\n      pop\n      dup3\n      jump\t// out\n        /* \"Crowdfunding.sol\":4539:5058  function checkAndUpdateCampaignState() internal {... */\n    tag_209:\n        /* \"Crowdfunding.sol\":4611:4631  CampaignState.Active */\n      0x00\n        /* \"Crowdfunding.sol\":4602:4607  state */\n      sload(0x05)\n      shl(0xb0, 0x01)\n      swap1\n      div\n      0xff\n      and\n        /* \"Crowdfunding.sol\":4602:4631  state == CampaignState.Active */\n      0x02\n      dup2\n      gt\n      iszero\n      tag_341\n      jumpi\n      tag_341\n      tag_163\n      jump\t// in\n    tag_341:\n      sub\n        /* \"Crowdfunding.sol\":4598:5051  if (state == CampaignState.Active) {... */\n      tag_280\n      jumpi\n        /* \"Crowdfunding.sol\":4673:4678  state */\n      sload(0x05)\n        /* \"Crowdfunding.sol\":4715:4719  goal */\n      sload(0x03)\n        /* \"Crowdfunding.sol\":4697:4711  totalCollected */\n      sload(0x08)\n      shl(0xb0, 0x01)\n        /* \"Crowdfunding.sol\":4673:4678  state */\n      swap1\n      swap3\n      div\n      0xff\n      and\n      swap2\n        /* \"Crowdfunding.sol\":4697:4719  totalCollected >= goal */\n      lt\n        /* \"Crowdfunding.sol\":4693:4896  if (totalCollected >= goal) {... */\n      tag_343\n      jumpi\n      pop\n        /* \"Crowdfunding.sol\":4751:4775  CampaignState.Successful */\n      0x01\n        /* \"Crowdfunding.sol\":4693:4896  if (totalCollected >= goal) {... */\n      jump(tag_345)\n    tag_343:\n        /* \"Crowdfunding.sol\":4820:4828  deadline */\n      sload(0x04)\n        /* \"Crowdfunding.sol\":4801:4816  block.timestamp */\n      timestamp\n        /* \"Crowdfunding.sol\":4801:4828  block.timestamp >= deadline */\n      lt\n        /* \"Crowdfunding.sol\":4797:4896  if (block.timestamp >= deadline) {... */\n      tag_345\n      jumpi\n      pop\n        /* \"Crowdfunding.sol\":4860:4880  CampaignState.Failed */\n      0x02\n        /* \"Crowdfunding.sol\":4797:4896  if (block.timestamp >= deadline) {... */\n    tag_345:\n        /* \"Crowdfunding.sol\":4928:4933  state */\n      sload(0x05)\n      shl(0xb0, 0x01)\n      swap1\n      div\n      0xff\n      and\n        /* \"Crowdfunding.sol\":4916:4933  newState != state */\n      0x02\n      dup2\n      gt\n      iszero\n      tag_347\n      jumpi\n      tag_347\n      tag_163\n      jump\t// in\n    tag_347:\n        /* \"Crowdfunding.sol\":4916:4924  newState */\n      dup2\n        /* \"Crowdfunding.sol\":4916:4933  newState != state */\n      0x02\n      dup2\n      gt\n      iszero\n      tag_349\n      jumpi\n      tag_349\n      tag_163\n      jump\t// in\n    tag_349:\n      eq\n        /* \"Crowdfunding.sol\":4912:5040  if (newState != state) {... */\n      tag_350\n      jumpi\n        /* \"Crowdfunding.sol\":4954:4959  state */\n      0x05\n        /* \"Crowdfunding.sol\":4954:4970  state = newState */\n      dup1\n      sload\n        /* \"Crowdfunding.sol\":4962:4970  newState */\n      dup3\n      swap2\n        /* \"Crowdfunding.sol\":4954:4959  state */\n      swap1\n      not(shl(0xb0, 0xff))\n        /* \"Crowdfunding.sol\":4954:4970  state = newState */\n      and\n      shl(0xb0, 0x01)\n        /* \"Crowdfunding.sol\":4962:4970  newState */\n      dup4\n        /* \"Crowdfunding.sol\":4954:4970  state = newState */\n      0x02\n      dup2\n      gt\n      iszero\n      tag_173\n      jumpi\n      tag_173\n      tag_163\n      jump\t// in\n        /* \"Crowdfunding.sol\":4912:5040  if (newState != state) {... */\n    tag_350:\n        /* \"Crowdfunding.sol\":4633:5051  {... */\n      pop\n        /* \"Crowdfunding.sol\":4539:5058  function checkAndUpdateCampaignState() internal {... */\n      jump\t// out\n    tag_314:\n      pop\n      dup1\n      sload\n      tag_354\n      swap1\n      tag_135\n      jump\t// in\n    tag_354:\n      0x00\n      dup3\n      sstore\n      dup1\n      0x1f\n      lt\n      tag_356\n      jumpi\n      pop\n      pop\n      jump\t// out\n    tag_356:\n      0x1f\n      add\n      0x20\n      swap1\n      div\n      swap1\n      0x00\n      mstore\n      keccak256(0x00, 0x20)\n      swap1\n      dup2\n      add\n      swap1\n      tag_350\n      swap2\n      swap1\n    tag_359:\n      dup1\n      dup3\n      gt\n      iszero\n      tag_360\n      jumpi\n      0x00\n      dup2\n      sstore\n      0x01\n      add\n      jump(tag_359)\n    tag_360:\n      pop\n      swap1\n      jump\t// out\n        /* \"#utility.yul\":14:303   */\n    tag_361:\n        /* \"#utility.yul\":56:59   */\n      0x00\n        /* \"#utility.yul\":94:99   */\n      dup2\n        /* \"#utility.yul\":88:100   */\n      mload\n        /* \"#utility.yul\":121:127   */\n      dup1\n        /* \"#utility.yul\":116:119   */\n      dup5\n        /* \"#utility.yul\":109:128   */\n      mstore\n        /* \"#utility.yul\":177:183   */\n      dup1\n        /* \"#utility.yul\":170:174   */\n      0x20\n        /* \"#utility.yul\":163:168   */\n      dup5\n        /* \"#utility.yul\":159:175   */\n      add\n        /* \"#utility.yul\":152:156   */\n      0x20\n        /* \"#utility.yul\":147:150   */\n      dup7\n        /* \"#utility.yul\":143:157   */\n      add\n        /* \"#utility.yul\":137:184   */\n      mcopy\n        /* \"#utility.yul\":229:230   */\n      0x00\n        /* \"#utility.yul\":222:226   */\n      0x20\n        /* \"#utility.yul\":213:219   */\n      dup3\n        /* \"#utility.yul\":208:211   */\n      dup7\n        /* \"#utility.yul\":204:220   */\n      add\n        /* \"#utility.yul\":200:227   */\n      add\n        /* \"#utility.yul\":193:231   */\n      mstore\n        /* \"#utility.yul\":292:296   */\n      0x20\n        /* \"#utility.yul\":285:287   */\n      0x1f\n        /* \"#utility.yul\":281:288   */\n      not\n        /* \"#utility.yul\":276:278   */\n      0x1f\n        /* \"#utility.yul\":268:274   */\n      dup4\n        /* \"#utility.yul\":264:279   */\n      add\n        /* \"#utility.yul\":260:289   */\n      and\n        /* \"#utility.yul\":255:258   */\n      dup6\n        /* \"#utility.yul\":251:290   */\n      add\n        /* \"#utility.yul\":247:297   */\n      add\n        /* \"#utility.yul\":240:297   */\n      swap2\n      pop\n      pop\n        /* \"#utility.yul\":14:303   */\n      swap3\n      swap2\n      pop\n      pop\n      jump\t// out\n        /* \"#utility.yul\":308:528   */\n    tag_36:\n        /* \"#utility.yul\":457:459   */\n      0x20\n        /* \"#utility.yul\":446:455   */\n      dup2\n        /* \"#utility.yul\":439:460   */\n      mstore\n        /* \"#utility.yul\":420:424   */\n      0x00\n        /* \"#utility.yul\":477:522   */\n      tag_372\n        /* \"#utility.yul\":518:520   */\n      0x20\n        /* \"#utility.yul\":507:516   */\n      dup4\n        /* \"#utility.yul\":503:521   */\n      add\n        /* \"#utility.yul\":495:501   */\n      dup5\n        /* \"#utility.yul\":477:522   */\n      tag_361\n      jump\t// in\n    tag_372:\n        /* \"#utility.yul\":469:522   */\n      swap4\n        /* \"#utility.yul\":308:528   */\n      swap3\n      pop\n      pop\n      pop\n      jump\t// out\n        /* \"#utility.yul\":533:660   */\n    tag_163:\n        /* \"#utility.yul\":594:604   */\n      0x4e487b71\n        /* \"#utility.yul\":589:592   */\n      0xe0\n        /* \"#utility.yul\":585:605   */\n      shl\n        /* \"#utility.yul\":582:583   */\n      0x00\n        /* \"#utility.yul\":575:606   */\n      mstore\n        /* \"#utility.yul\":625:629   */\n      0x21\n        /* \"#utility.yul\":622:623   */\n      0x04\n        /* \"#utility.yul\":615:630   */\n      mstore\n        /* \"#utility.yul\":649:653   */\n      0x24\n        /* \"#utility.yul\":646:647   */\n      0x00\n        /* \"#utility.yul\":639:654   */\n      revert\n        /* \"#utility.yul\":665:809   */\n    tag_362:\n        /* \"#utility.yul\":750:751   */\n      0x03\n        /* \"#utility.yul\":743:748   */\n      dup2\n        /* \"#utility.yul\":740:752   */\n      lt\n        /* \"#utility.yul\":730:776   */\n      tag_376\n      jumpi\n        /* \"#utility.yul\":756:774   */\n      tag_376\n      tag_163\n      jump\t// in\n    tag_376:\n        /* \"#utility.yul\":785:803   */\n      swap1\n      mstore\n        /* \"#utility.yul\":665:809   */\n      jump\t// out\n        /* \"#utility.yul\":814:953   */\n    tag_363:\n        /* \"#utility.yul\":894:895   */\n      0x07\n        /* \"#utility.yul\":887:892   */\n      dup2\n        /* \"#utility.yul\":884:896   */\n      lt\n        /* \"#utility.yul\":874:920   */\n      tag_376\n      jumpi\n        /* \"#utility.yul\":900:918   */\n      tag_376\n      tag_163\n      jump\t// in\n        /* \"#utility.yul\":958:2070   */\n    tag_41:\n        /* \"#utility.yul\":1357:1361   */\n      0x00\n        /* \"#utility.yul\":1386:1389   */\n      0x0120\n        /* \"#utility.yul\":1416:1418   */\n      dup1\n        /* \"#utility.yul\":1405:1414   */\n      dup4\n        /* \"#utility.yul\":1398:1419   */\n      mstore\n        /* \"#utility.yul\":1442:1487   */\n      tag_381\n        /* \"#utility.yul\":1483:1485   */\n      dup2\n        /* \"#utility.yul\":1472:1481   */\n      dup5\n        /* \"#utility.yul\":1468:1486   */\n      add\n        /* \"#utility.yul\":1460:1466   */\n      dup14\n        /* \"#utility.yul\":1442:1487   */\n      tag_361\n      jump\t// in\n    tag_381:\n        /* \"#utility.yul\":1428:1487   */\n      swap1\n      pop\n        /* \"#utility.yul\":1535:1544   */\n      dup3\n        /* \"#utility.yul\":1527:1533   */\n      dup2\n        /* \"#utility.yul\":1523:1545   */\n      sub\n        /* \"#utility.yul\":1518:1520   */\n      0x20\n        /* \"#utility.yul\":1507:1516   */\n      dup5\n        /* \"#utility.yul\":1503:1521   */\n      add\n        /* \"#utility.yul\":1496:1546   */\n      mstore\n        /* \"#utility.yul\":1569:1602   */\n      tag_382\n        /* \"#utility.yul\":1595:1601   */\n      dup2\n        /* \"#utility.yul\":1587:1593   */\n      dup13\n        /* \"#utility.yul\":1569:1602   */\n      tag_361\n      jump\t// in\n    tag_382:\n        /* \"#utility.yul\":1555:1602   */\n      swap1\n      pop\n        /* \"#utility.yul\":1650:1659   */\n      dup3\n        /* \"#utility.yul\":1642:1648   */\n      dup2\n        /* \"#utility.yul\":1638:1660   */\n      sub\n        /* \"#utility.yul\":1633:1635   */\n      0x40\n        /* \"#utility.yul\":1622:1631   */\n      dup5\n        /* \"#utility.yul\":1618:1636   */\n      add\n        /* \"#utility.yul\":1611:1661   */\n      mstore\n        /* \"#utility.yul\":1678:1711   */\n      tag_383\n        /* \"#utility.yul\":1704:1710   */\n      dup2\n        /* \"#utility.yul\":1696:1702   */\n      dup12\n        /* \"#utility.yul\":1678:1711   */\n      tag_361\n      jump\t// in\n    tag_383:\n        /* \"#utility.yul\":1670:1711   */\n      swap2\n      pop\n      pop\n        /* \"#utility.yul\":1747:1753   */\n      dup8\n        /* \"#utility.yul\":1742:1744   */\n      0x60\n        /* \"#utility.yul\":1731:1740   */\n      dup4\n        /* \"#utility.yul\":1727:1745   */\n      add\n        /* \"#utility.yul\":1720:1754   */\n      mstore\n        /* \"#utility.yul\":1791:1797   */\n      dup7\n        /* \"#utility.yul\":1785:1788   */\n      0x80\n        /* \"#utility.yul\":1774:1783   */\n      dup4\n        /* \"#utility.yul\":1770:1789   */\n      add\n        /* \"#utility.yul\":1763:1798   */\n      mstore\n      sub(shl(0xa0, 0x01), 0x01)\n        /* \"#utility.yul\":1839:1845   */\n      dup7\n        /* \"#utility.yul\":1835:1890   */\n      and\n        /* \"#utility.yul\":1829:1832   */\n      0xa0\n        /* \"#utility.yul\":1818:1827   */\n      dup4\n        /* \"#utility.yul\":1814:1833   */\n      add\n        /* \"#utility.yul\":1807:1891   */\n      mstore\n        /* \"#utility.yul\":1900:1958   */\n      tag_384\n        /* \"#utility.yul\":1953:1956   */\n      0xc0\n        /* \"#utility.yul\":1942:1951   */\n      dup4\n        /* \"#utility.yul\":1938:1957   */\n      add\n        /* \"#utility.yul\":1930:1936   */\n      dup7\n        /* \"#utility.yul\":1900:1958   */\n      tag_362\n      jump\t// in\n    tag_384:\n        /* \"#utility.yul\":1967:2020   */\n      tag_385\n        /* \"#utility.yul\":2015:2018   */\n      0xe0\n        /* \"#utility.yul\":2004:2013   */\n      dup4\n        /* \"#utility.yul\":2000:2019   */\n      add\n        /* \"#utility.yul\":1992:1998   */\n      dup6\n        /* \"#utility.yul\":1967:2020   */\n      tag_363\n      jump\t// in\n    tag_385:\n        /* \"#utility.yul\":2057:2063   */\n      dup3\n        /* \"#utility.yul\":2051:2054   */\n      0x0100\n        /* \"#utility.yul\":2040:2049   */\n      dup4\n        /* \"#utility.yul\":2036:2055   */\n      add\n        /* \"#utility.yul\":2029:2064   */\n      mstore\n        /* \"#utility.yul\":958:2070   */\n      swap11\n      swap10\n      pop\n      pop\n      pop\n      pop\n      pop\n      pop\n      pop\n      pop\n      pop\n      pop\n      jump\t// out\n        /* \"#utility.yul\":2075:2202   */\n    tag_364:\n        /* \"#utility.yul\":2136:2146   */\n      0x4e487b71\n        /* \"#utility.yul\":2131:2134   */\n      0xe0\n        /* \"#utility.yul\":2127:2147   */\n      shl\n        /* \"#utility.yul\":2124:2125   */\n      0x00\n        /* \"#utility.yul\":2117:2148   */\n      mstore\n        /* \"#utility.yul\":2167:2171   */\n      0x41\n        /* \"#utility.yul\":2164:2165   */\n      0x04\n        /* \"#utility.yul\":2157:2172   */\n      mstore\n        /* \"#utility.yul\":2191:2195   */\n      0x24\n        /* \"#utility.yul\":2188:2189   */\n      0x00\n        /* \"#utility.yul\":2181:2196   */\n      revert\n        /* \"#utility.yul\":2207:3207   */\n    tag_48:\n        /* \"#utility.yul\":2285:2291   */\n      0x00\n        /* \"#utility.yul\":2293:2299   */\n      dup1\n        /* \"#utility.yul\":2346:2348   */\n      0x40\n        /* \"#utility.yul\":2334:2343   */\n      dup4\n        /* \"#utility.yul\":2325:2332   */\n      dup6\n        /* \"#utility.yul\":2321:2344   */\n      sub\n        /* \"#utility.yul\":2317:2349   */\n      slt\n        /* \"#utility.yul\":2314:2366   */\n      iszero\n      tag_388\n      jumpi\n        /* \"#utility.yul\":2362:2363   */\n      0x00\n        /* \"#utility.yul\":2359:2360   */\n      dup1\n        /* \"#utility.yul\":2352:2364   */\n      revert\n        /* \"#utility.yul\":2314:2366   */\n    tag_388:\n        /* \"#utility.yul\":2402:2411   */\n      dup3\n        /* \"#utility.yul\":2389:2412   */\n      calldataload\n        /* \"#utility.yul\":2431:2449   */\n      0xffffffffffffffff\n        /* \"#utility.yul\":2472:2474   */\n      dup1\n        /* \"#utility.yul\":2464:2470   */\n      dup3\n        /* \"#utility.yul\":2461:2475   */\n      gt\n        /* \"#utility.yul\":2458:2492   */\n      iszero\n      tag_389\n      jumpi\n        /* \"#utility.yul\":2488:2489   */\n      0x00\n        /* \"#utility.yul\":2485:2486   */\n      dup1\n        /* \"#utility.yul\":2478:2490   */\n      revert\n        /* \"#utility.yul\":2458:2492   */\n    tag_389:\n        /* \"#utility.yul\":2526:2532   */\n      dup2\n        /* \"#utility.yul\":2515:2524   */\n      dup6\n        /* \"#utility.yul\":2511:2533   */\n      add\n        /* \"#utility.yul\":2501:2533   */\n      swap2\n      pop\n        /* \"#utility.yul\":2571:2578   */\n      dup6\n        /* \"#utility.yul\":2564:2568   */\n      0x1f\n        /* \"#utility.yul\":2560:2562   */\n      dup4\n        /* \"#utility.yul\":2556:2569   */\n      add\n        /* \"#utility.yul\":2552:2579   */\n      slt\n        /* \"#utility.yul\":2542:2597   */\n      tag_390\n      jumpi\n        /* \"#utility.yul\":2593:2594   */\n      0x00\n        /* \"#utility.yul\":2590:2591   */\n      dup1\n        /* \"#utility.yul\":2583:2595   */\n      revert\n        /* \"#utility.yul\":2542:2597   */\n    tag_390:\n        /* \"#utility.yul\":2629:2631   */\n      dup2\n        /* \"#utility.yul\":2616:2632   */\n      calldataload\n        /* \"#utility.yul\":2651:2653   */\n      dup2\n        /* \"#utility.yul\":2647:2649   */\n      dup2\n        /* \"#utility.yul\":2644:2654   */\n      gt\n        /* \"#utility.yul\":2641:2677   */\n      iszero\n      tag_392\n      jumpi\n        /* \"#utility.yul\":2657:2675   */\n      tag_392\n      tag_364\n      jump\t// in\n    tag_392:\n        /* \"#utility.yul\":2732:2734   */\n      0x40\n        /* \"#utility.yul\":2726:2735   */\n      mload\n        /* \"#utility.yul\":2700:2702   */\n      0x1f\n        /* \"#utility.yul\":2786:2799   */\n      dup3\n      add\n      not(0x1f)\n        /* \"#utility.yul\":2782:2804   */\n      swap1\n      dup2\n      and\n        /* \"#utility.yul\":2806:2808   */\n      0x3f\n        /* \"#utility.yul\":2778:2809   */\n      add\n        /* \"#utility.yul\":2774:2814   */\n      and\n        /* \"#utility.yul\":2762:2815   */\n      dup2\n      add\n      swap1\n        /* \"#utility.yul\":2830:2848   */\n      dup4\n      dup3\n      gt\n        /* \"#utility.yul\":2850:2872   */\n      dup2\n      dup4\n      lt\n        /* \"#utility.yul\":2827:2873   */\n      or\n        /* \"#utility.yul\":2824:2896   */\n      iszero\n      tag_394\n      jumpi\n        /* \"#utility.yul\":2876:2894   */\n      tag_394\n      tag_364\n      jump\t// in\n    tag_394:\n        /* \"#utility.yul\":2916:2926   */\n      dup2\n        /* \"#utility.yul\":2912:2914   */\n      0x40\n        /* \"#utility.yul\":2905:2927   */\n      mstore\n        /* \"#utility.yul\":2951:2953   */\n      dup3\n        /* \"#utility.yul\":2943:2949   */\n      dup2\n        /* \"#utility.yul\":2936:2954   */\n      mstore\n        /* \"#utility.yul\":2993:3000   */\n      dup9\n        /* \"#utility.yul\":2986:2990   */\n      0x20\n        /* \"#utility.yul\":2981:2983   */\n      dup5\n        /* \"#utility.yul\":2977:2979   */\n      dup8\n        /* \"#utility.yul\":2973:2984   */\n      add\n        /* \"#utility.yul\":2969:2991   */\n      add\n        /* \"#utility.yul\":2966:3001   */\n      gt\n        /* \"#utility.yul\":2963:3018   */\n      iszero\n      tag_395\n      jumpi\n        /* \"#utility.yul\":3014:3015   */\n      0x00\n        /* \"#utility.yul\":3011:3012   */\n      dup1\n        /* \"#utility.yul\":3004:3016   */\n      revert\n        /* \"#utility.yul\":2963:3018   */\n    tag_395:\n        /* \"#utility.yul\":3074:3076   */\n      dup3\n        /* \"#utility.yul\":3067:3071   */\n      0x20\n        /* \"#utility.yul\":3063:3065   */\n      dup7\n        /* \"#utility.yul\":3059:3072   */\n      add\n        /* \"#utility.yul\":3052:3056   */\n      0x20\n        /* \"#utility.yul\":3044:3050   */\n      dup4\n        /* \"#utility.yul\":3040:3057   */\n      add\n        /* \"#utility.yul\":3027:3077   */\n      calldatacopy\n        /* \"#utility.yul\":3121:3122   */\n      0x00\n        /* \"#utility.yul\":3114:3118   */\n      0x20\n        /* \"#utility.yul\":3097:3112   */\n      swap4\n      dup3\n      add\n        /* \"#utility.yul\":3093:3119   */\n      dup5\n      add\n        /* \"#utility.yul\":3086:3123   */\n      mstore\n        /* \"#utility.yul\":3097:3112   */\n      swap9\n        /* \"#utility.yul\":3180:3200   */\n      swap7\n      swap1\n      swap2\n      add\n        /* \"#utility.yul\":3167:3201   */\n      calldataload\n      swap7\n      pop\n      pop\n      pop\n      pop\n      pop\n      pop\n        /* \"#utility.yul\":2207:3207   */\n      jump\t// out\n        /* \"#utility.yul\":3394:3574   */\n    tag_58:\n        /* \"#utility.yul\":3453:3459   */\n      0x00\n        /* \"#utility.yul\":3506:3508   */\n      0x20\n        /* \"#utility.yul\":3494:3503   */\n      dup3\n        /* \"#utility.yul\":3485:3492   */\n      dup5\n        /* \"#utility.yul\":3481:3504   */\n      sub\n        /* \"#utility.yul\":3477:3509   */\n      slt\n        /* \"#utility.yul\":3474:3526   */\n      iszero\n      tag_398\n      jumpi\n        /* \"#utility.yul\":3522:3523   */\n      0x00\n        /* \"#utility.yul\":3519:3520   */\n      dup1\n        /* \"#utility.yul\":3512:3524   */\n      revert\n        /* \"#utility.yul\":3474:3526   */\n    tag_398:\n      pop\n        /* \"#utility.yul\":3545:3568   */\n      calldataload\n      swap2\n        /* \"#utility.yul\":3394:3574   */\n      swap1\n      pop\n      jump\t// out\n        /* \"#utility.yul\":4002:4311   */\n    tag_92:\n        /* \"#utility.yul\":4061:4067   */\n      0x00\n        /* \"#utility.yul\":4114:4116   */\n      0x20\n        /* \"#utility.yul\":4102:4111   */\n      dup3\n        /* \"#utility.yul\":4093:4100   */\n      dup5\n        /* \"#utility.yul\":4089:4112   */\n      sub\n        /* \"#utility.yul\":4085:4117   */\n      slt\n        /* \"#utility.yul\":4082:4134   */\n      iszero\n      tag_402\n      jumpi\n        /* \"#utility.yul\":4130:4131   */\n      0x00\n        /* \"#utility.yul\":4127:4128   */\n      dup1\n        /* \"#utility.yul\":4120:4132   */\n      revert\n        /* \"#utility.yul\":4082:4134   */\n    tag_402:\n        /* \"#utility.yul\":4169:4178   */\n      dup2\n        /* \"#utility.yul\":4156:4179   */\n      calldataload\n      sub(shl(0xa0, 0x01), 0x01)\n        /* \"#utility.yul\":4212:4217   */\n      dup2\n        /* \"#utility.yul\":4208:4262   */\n      and\n        /* \"#utility.yul\":4201:4206   */\n      dup2\n        /* \"#utility.yul\":4198:4263   */\n      eq\n        /* \"#utility.yul\":4188:4281   */\n      tag_372\n      jumpi\n        /* \"#utility.yul\":4277:4278   */\n      0x00\n        /* \"#utility.yul\":4274:4275   */\n      dup1\n        /* \"#utility.yul\":4267:4279   */\n      revert\n        /* \"#utility.yul\":4579:4793   */\n    tag_100:\n        /* \"#utility.yul\":4727:4729   */\n      0x20\n        /* \"#utility.yul\":4712:4730   */\n      dup2\n      add\n        /* \"#utility.yul\":4739:4787   */\n      tag_406\n        /* \"#utility.yul\":4716:4725   */\n      dup3\n        /* \"#utility.yul\":4769:4775   */\n      dup5\n        /* \"#utility.yul\":4739:4787   */\n      tag_362\n      jump\t// in\n    tag_406:\n        /* \"#utility.yul\":4579:4793   */\n      swap3\n      swap2\n      pop\n      pop\n      jump\t// out\n        /* \"#utility.yul\":4798:5860   */\n    tag_113:\n        /* \"#utility.yul\":4992:4996   */\n      0x00\n        /* \"#utility.yul\":5021:5023   */\n      0x20\n        /* \"#utility.yul\":5061:5063   */\n      dup1\n        /* \"#utility.yul\":5050:5059   */\n      dup4\n        /* \"#utility.yul\":5046:5064   */\n      add\n        /* \"#utility.yul\":5091:5093   */\n      dup2\n        /* \"#utility.yul\":5080:5089   */\n      dup5\n        /* \"#utility.yul\":5073:5094   */\n      mstore\n        /* \"#utility.yul\":5114:5120   */\n      dup1\n        /* \"#utility.yul\":5149:5155   */\n      dup6\n        /* \"#utility.yul\":5143:5156   */\n      mload\n        /* \"#utility.yul\":5180:5186   */\n      dup1\n        /* \"#utility.yul\":5172:5178   */\n      dup4\n        /* \"#utility.yul\":5165:5187   */\n      mstore\n        /* \"#utility.yul\":5206:5208   */\n      0x40\n        /* \"#utility.yul\":5196:5208   */\n      swap3\n      pop\n        /* \"#utility.yul\":5239:5241   */\n      0x40\n        /* \"#utility.yul\":5228:5237   */\n      dup7\n        /* \"#utility.yul\":5224:5242   */\n      add\n        /* \"#utility.yul\":5217:5242   */\n      swap2\n      pop\n        /* \"#utility.yul\":5301:5303   */\n      0x40\n        /* \"#utility.yul\":5291:5297   */\n      dup2\n        /* \"#utility.yul\":5288:5289   */\n      0x05\n        /* \"#utility.yul\":5284:5298   */\n      shl\n        /* \"#utility.yul\":5273:5282   */\n      dup8\n        /* \"#utility.yul\":5269:5299   */\n      add\n        /* \"#utility.yul\":5265:5304   */\n      add\n        /* \"#utility.yul\":5339:5341   */\n      dup5\n        /* \"#utility.yul\":5331:5337   */\n      dup9\n        /* \"#utility.yul\":5327:5342   */\n      add\n        /* \"#utility.yul\":5360:5361   */\n      0x00\n        /* \"#utility.yul\":5370:5831   */\n    tag_408:\n        /* \"#utility.yul\":5384:5390   */\n      dup4\n        /* \"#utility.yul\":5381:5382   */\n      dup2\n        /* \"#utility.yul\":5378:5391   */\n      lt\n        /* \"#utility.yul\":5370:5831   */\n      iszero\n      tag_410\n      jumpi\n        /* \"#utility.yul\":5449:5471   */\n      dup9\n      dup4\n      sub\n      not(0x3f)\n        /* \"#utility.yul\":5445:5481   */\n      add\n        /* \"#utility.yul\":5433:5482   */\n      dup6\n      mstore\n        /* \"#utility.yul\":5505:5518   */\n      dup2\n      mload\n        /* \"#utility.yul\":5551:5560   */\n      dup1\n      mload\n        /* \"#utility.yul\":5573:5591   */\n      dup8\n      dup6\n      mstore\n        /* \"#utility.yul\":5618:5666   */\n      tag_411\n        /* \"#utility.yul\":5650:5665   */\n      dup9\n      dup7\n      add\n        /* \"#utility.yul\":5551:5560   */\n      dup3\n        /* \"#utility.yul\":5618:5666   */\n      tag_361\n      jump\t// in\n    tag_411:\n        /* \"#utility.yul\":5709:5720   */\n      swap2\n      dup10\n      add\n        /* \"#utility.yul\":5703:5721   */\n      mload\n        /* \"#utility.yul\":5686:5701   */\n      swap5\n      dup10\n      add\n        /* \"#utility.yul\":5679:5722   */\n      swap5\n      swap1\n      swap5\n      mstore\n        /* \"#utility.yul\":5809:5821   */\n      swap5\n      dup8\n      add\n      swap5\n        /* \"#utility.yul\":5604:5666   */\n      swap3\n      pop\n        /* \"#utility.yul\":5774:5789   */\n      swap1\n      dup7\n      add\n      swap1\n        /* \"#utility.yul\":5406:5407   */\n      0x01\n        /* \"#utility.yul\":5399:5408   */\n      add\n        /* \"#utility.yul\":5370:5831   */\n      jump(tag_408)\n    tag_410:\n      pop\n        /* \"#utility.yul\":5848:5854   */\n      swap1\n      swap9\n        /* \"#utility.yul\":4798:5860   */\n      swap8\n      pop\n      pop\n      pop\n      pop\n      pop\n      pop\n      pop\n      pop\n      jump\t// out\n        /* \"#utility.yul\":5865:6069   */\n    tag_118:\n        /* \"#utility.yul\":6008:6010   */\n      0x20\n        /* \"#utility.yul\":5993:6011   */\n      dup2\n      add\n        /* \"#utility.yul\":6020:6063   */\n      tag_406\n        /* \"#utility.yul\":5997:6006   */\n      dup3\n        /* \"#utility.yul\":6045:6051   */\n      dup5\n        /* \"#utility.yul\":6020:6063   */\n      tag_363\n      jump\t// in\n        /* \"#utility.yul\":6074:6365   */\n    tag_128:\n        /* \"#utility.yul\":6251:6253   */\n      0x40\n        /* \"#utility.yul\":6240:6249   */\n      dup2\n        /* \"#utility.yul\":6233:6254   */\n      mstore\n        /* \"#utility.yul\":6214:6218   */\n      0x00\n        /* \"#utility.yul\":6271:6316   */\n      tag_415\n        /* \"#utility.yul\":6312:6314   */\n      0x40\n        /* \"#utility.yul\":6301:6310   */\n      dup4\n        /* \"#utility.yul\":6297:6315   */\n      add\n        /* \"#utility.yul\":6289:6295   */\n      dup6\n        /* \"#utility.yul\":6271:6316   */\n      tag_361\n      jump\t// in\n    tag_415:\n        /* \"#utility.yul\":6263:6316   */\n      swap1\n      pop\n        /* \"#utility.yul\":6352:6358   */\n      dup3\n        /* \"#utility.yul\":6347:6349   */\n      0x20\n        /* \"#utility.yul\":6336:6345   */\n      dup4\n        /* \"#utility.yul\":6332:6350   */\n      add\n        /* \"#utility.yul\":6325:6359   */\n      mstore\n        /* \"#utility.yul\":6074:6365   */\n      swap4\n      swap3\n      pop\n      pop\n      pop\n      jump\t// out\n        /* \"#utility.yul\":6370:6750   */\n    tag_135:\n        /* \"#utility.yul\":6449:6450   */\n      0x01\n        /* \"#utility.yul\":6445:6457   */\n      dup2\n      dup2\n      shr\n      swap1\n        /* \"#utility.yul\":6492:6504   */\n      dup3\n      and\n      dup1\n        /* \"#utility.yul\":6513:6574   */\n      tag_417\n      jumpi\n        /* \"#utility.yul\":6567:6571   */\n      0x7f\n        /* \"#utility.yul\":6559:6565   */\n      dup3\n        /* \"#utility.yul\":6555:6572   */\n      and\n        /* \"#utility.yul\":6545:6572   */\n      swap2\n      pop\n        /* \"#utility.yul\":6513:6574   */\n    tag_417:\n        /* \"#utility.yul\":6620:6622   */\n      0x20\n        /* \"#utility.yul\":6612:6618   */\n      dup3\n        /* \"#utility.yul\":6609:6623   */\n      lt\n        /* \"#utility.yul\":6589:6607   */\n      dup2\n        /* \"#utility.yul\":6586:6624   */\n      sub\n        /* \"#utility.yul\":6583:6744   */\n      tag_418\n      jumpi\n        /* \"#utility.yul\":6666:6676   */\n      0x4e487b71\n        /* \"#utility.yul\":6661:6664   */\n      0xe0\n        /* \"#utility.yul\":6657:6677   */\n      shl\n        /* \"#utility.yul\":6654:6655   */\n      0x00\n        /* \"#utility.yul\":6647:6678   */\n      mstore\n        /* \"#utility.yul\":6701:6705   */\n      0x22\n        /* \"#utility.yul\":6698:6699   */\n      0x04\n        /* \"#utility.yul\":6691:6706   */\n      mstore\n        /* \"#utility.yul\":6729:6733   */\n      0x24\n        /* \"#utility.yul\":6726:6727   */\n      0x00\n        /* \"#utility.yul\":6719:6734   */\n      revert\n        /* \"#utility.yul\":6583:6744   */\n    tag_418:\n      pop\n        /* \"#utility.yul\":6370:6750   */\n      swap2\n      swap1\n      pop\n      jump\t// out\n        /* \"#utility.yul\":7574:8092   */\n    tag_366:\n        /* \"#utility.yul\":7676:7678   */\n      0x1f\n        /* \"#utility.yul\":7671:7674   */\n      dup3\n        /* \"#utility.yul\":7668:7679   */\n      gt\n        /* \"#utility.yul\":7665:8086   */\n      iszero\n      tag_423\n      jumpi\n        /* \"#utility.yul\":7712:7717   */\n      dup1\n        /* \"#utility.yul\":7709:7710   */\n      0x00\n        /* \"#utility.yul\":7702:7718   */\n      mstore\n        /* \"#utility.yul\":7756:7760   */\n      0x20\n        /* \"#utility.yul\":7753:7754   */\n      0x00\n        /* \"#utility.yul\":7743:7761   */\n      keccak256\n        /* \"#utility.yul\":7826:7828   */\n      0x1f\n        /* \"#utility.yul\":7814:7824   */\n      dup5\n        /* \"#utility.yul\":7810:7829   */\n      add\n        /* \"#utility.yul\":7807:7808   */\n      0x05\n        /* \"#utility.yul\":7803:7830   */\n      shr\n        /* \"#utility.yul\":7797:7801   */\n      dup2\n        /* \"#utility.yul\":7793:7831   */\n      add\n        /* \"#utility.yul\":7862:7866   */\n      0x20\n        /* \"#utility.yul\":7850:7860   */\n      dup6\n        /* \"#utility.yul\":7847:7867   */\n      lt\n        /* \"#utility.yul\":7844:7891   */\n      iszero\n      tag_424\n      jumpi\n      pop\n        /* \"#utility.yul\":7885:7889   */\n      dup1\n        /* \"#utility.yul\":7844:7891   */\n    tag_424:\n        /* \"#utility.yul\":7940:7942   */\n      0x1f\n        /* \"#utility.yul\":7935:7938   */\n      dup5\n        /* \"#utility.yul\":7931:7943   */\n      add\n        /* \"#utility.yul\":7928:7929   */\n      0x05\n        /* \"#utility.yul\":7924:7944   */\n      shr\n        /* \"#utility.yul\":7918:7922   */\n      dup3\n        /* \"#utility.yul\":7914:7945   */\n      add\n        /* \"#utility.yul\":7904:7945   */\n      swap2\n      pop\n        /* \"#utility.yul\":7995:8076   */\n    tag_425:\n        /* \"#utility.yul\":8013:8015   */\n      dup2\n        /* \"#utility.yul\":8006:8011   */\n      dup2\n        /* \"#utility.yul\":8003:8016   */\n      lt\n        /* \"#utility.yul\":7995:8076   */\n      iszero\n      tag_427\n      jumpi\n        /* \"#utility.yul\":8072:8073   */\n      0x00\n        /* \"#utility.yul\":8058:8074   */\n      dup2\n      sstore\n        /* \"#utility.yul\":8039:8040   */\n      0x01\n        /* \"#utility.yul\":8028:8041   */\n      add\n        /* \"#utility.yul\":7995:8076   */\n      jump(tag_425)\n    tag_427:\n        /* \"#utility.yul\":7999:8002   */\n      pop\n      pop\n        /* \"#utility.yul\":7665:8086   */\n    tag_423:\n        /* \"#utility.yul\":7574:8092   */\n      pop\n      pop\n      pop\n      jump\t// out\n        /* \"#utility.yul\":8268:9613   */\n    tag_188:\n        /* \"#utility.yul\":8394:8397   */\n      dup2\n        /* \"#utility.yul\":8388:8398   */\n      mload\n        /* \"#utility.yul\":8421:8439   */\n      0xffffffffffffffff\n        /* \"#utility.yul\":8413:8419   */\n      dup2\n        /* \"#utility.yul\":8410:8440   */\n      gt\n        /* \"#utility.yul\":8407:8463   */\n      iszero\n      tag_431\n      jumpi\n        /* \"#utility.yul\":8443:8461   */\n      tag_431\n      tag_364\n      jump\t// in\n    tag_431:\n        /* \"#utility.yul\":8472:8569   */\n      tag_432\n        /* \"#utility.yul\":8562:8568   */\n      dup2\n        /* \"#utility.yul\":8522:8560   */\n      tag_433\n        /* \"#utility.yul\":8554:8558   */\n      dup5\n        /* \"#utility.yul\":8548:8559   */\n      sload\n        /* \"#utility.yul\":8522:8560   */\n      tag_135\n      jump\t// in\n    tag_433:\n        /* \"#utility.yul\":8516:8520   */\n      dup5\n        /* \"#utility.yul\":8472:8569   */\n      tag_366\n      jump\t// in\n    tag_432:\n        /* \"#utility.yul\":8624:8628   */\n      0x20\n      dup1\n        /* \"#utility.yul\":8681:8683   */\n      0x1f\n        /* \"#utility.yul\":8670:8684   */\n      dup4\n      gt\n        /* \"#utility.yul\":8698:8699   */\n      0x01\n        /* \"#utility.yul\":8693:9356   */\n      dup2\n      eq\n      tag_435\n      jumpi\n        /* \"#utility.yul\":9400:9401   */\n      0x00\n        /* \"#utility.yul\":9417:9423   */\n      dup5\n        /* \"#utility.yul\":9414:9503   */\n      iszero\n      tag_436\n      jumpi\n      pop\n        /* \"#utility.yul\":9469:9488   */\n      dup6\n      dup4\n      add\n        /* \"#utility.yul\":9463:9489   */\n      mload\n        /* \"#utility.yul\":9414:9503   */\n    tag_436:\n      not(0x00)\n        /* \"#utility.yul\":8225:8226   */\n      0x03\n        /* \"#utility.yul\":8221:8232   */\n      dup7\n      swap1\n      shl\n        /* \"#utility.yul\":8217:8241   */\n      shr\n        /* \"#utility.yul\":8213:8242   */\n      not\n        /* \"#utility.yul\":8203:8243   */\n      and\n        /* \"#utility.yul\":8249:8250   */\n      0x01\n        /* \"#utility.yul\":8245:8256   */\n      dup6\n      swap1\n      shl\n        /* \"#utility.yul\":8200:8257   */\n      or\n        /* \"#utility.yul\":9516:9597   */\n      dup6\n      sstore\n        /* \"#utility.yul\":8663:9607   */\n      jump(tag_434)\n        /* \"#utility.yul\":8693:9356   */\n    tag_435:\n        /* \"#utility.yul\":7521:7522   */\n      0x00\n        /* \"#utility.yul\":7514:7528   */\n      dup6\n      dup2\n      mstore\n        /* \"#utility.yul\":7558:7562   */\n      0x20\n        /* \"#utility.yul\":7545:7563   */\n      dup2\n      keccak256\n      not(0x1f)\n        /* \"#utility.yul\":8729:8749   */\n      dup7\n      and\n      swap2\n        /* \"#utility.yul\":8847:9083   */\n    tag_439:\n        /* \"#utility.yul\":8861:8868   */\n      dup3\n        /* \"#utility.yul\":8858:8859   */\n      dup2\n        /* \"#utility.yul\":8855:8869   */\n      lt\n        /* \"#utility.yul\":8847:9083   */\n      iszero\n      tag_441\n      jumpi\n        /* \"#utility.yul\":8950:8969   */\n      dup9\n      dup7\n      add\n        /* \"#utility.yul\":8944:8970   */\n      mload\n        /* \"#utility.yul\":8929:8971   */\n      dup3\n      sstore\n        /* \"#utility.yul\":9042:9069   */\n      swap5\n      dup5\n      add\n      swap5\n        /* \"#utility.yul\":9010:9011   */\n      0x01\n        /* \"#utility.yul\":8998:9012   */\n      swap1\n      swap2\n      add\n      swap1\n        /* \"#utility.yul\":8877:8896   */\n      dup5\n      add\n        /* \"#utility.yul\":8847:9083   */\n      jump(tag_439)\n    tag_441:\n        /* \"#utility.yul\":8851:8854   */\n      pop\n        /* \"#utility.yul\":9111:9117   */\n      dup6\n        /* \"#utility.yul\":9102:9109   */\n      dup3\n        /* \"#utility.yul\":9099:9118   */\n      lt\n        /* \"#utility.yul\":9096:9297   */\n      iszero\n      tag_442\n      jumpi\n        /* \"#utility.yul\":9172:9191   */\n      dup8\n      dup6\n      add\n        /* \"#utility.yul\":9166:9192   */\n      mload\n      not(0x00)\n        /* \"#utility.yul\":9255:9256   */\n      0x03\n        /* \"#utility.yul\":9251:9265   */\n      dup9\n      swap1\n      shl\n        /* \"#utility.yul\":9267:9270   */\n      0xf8\n        /* \"#utility.yul\":9247:9271   */\n      and\n        /* \"#utility.yul\":9243:9280   */\n      shr\n        /* \"#utility.yul\":9239:9281   */\n      not\n        /* \"#utility.yul\":9224:9282   */\n      and\n        /* \"#utility.yul\":9209:9283   */\n      dup2\n      sstore\n        /* \"#utility.yul\":9096:9297   */\n    tag_442:\n      pop\n      pop\n        /* \"#utility.yul\":9343:9344   */\n      0x01\n        /* \"#utility.yul\":9334:9340   */\n      dup5\n        /* \"#utility.yul\":9331:9332   */\n      0x01\n        /* \"#utility.yul\":9327:9341   */\n      shl\n        /* \"#utility.yul\":9323:9345   */\n      add\n        /* \"#utility.yul\":9317:9321   */\n      dup6\n        /* \"#utility.yul\":9310:9346   */\n      sstore\n        /* \"#utility.yul\":8663:9607   */\n    tag_434:\n      pop\n      pop\n      pop\n      pop\n        /* \"#utility.yul\":8268:9613   */\n      pop\n      pop\n      jump\t// out\n        /* \"#utility.yul\":9618:9745   */\n    tag_368:\n        /* \"#utility.yul\":9679:9689   */\n      0x4e487b71\n        /* \"#utility.yul\":9674:9677   */\n      0xe0\n        /* \"#utility.yul\":9670:9690   */\n      shl\n        /* \"#utility.yul\":9667:9668   */\n      0x00\n        /* \"#utility.yul\":9660:9691   */\n      mstore\n        /* \"#utility.yul\":9710:9714   */\n      0x11\n        /* \"#utility.yul\":9707:9708   */\n      0x04\n        /* \"#utility.yul\":9700:9715   */\n      mstore\n        /* \"#utility.yul\":9734:9738   */\n      0x24\n        /* \"#utility.yul\":9731:9732   */\n      0x00\n        /* \"#utility.yul\":9724:9739   */\n      revert\n        /* \"#utility.yul\":9750:9918   */\n    tag_201:\n        /* \"#utility.yul\":9823:9832   */\n      dup1\n      dup3\n      mul\n        /* \"#utility.yul\":9854:9863   */\n      dup2\n      iszero\n        /* \"#utility.yul\":9871:9886   */\n      dup3\n      dup3\n      div\n        /* \"#utility.yul\":9865:9887   */\n      dup5\n      eq\n        /* \"#utility.yul\":9851:9888   */\n      or\n        /* \"#utility.yul\":9841:9912   */\n      tag_406\n      jumpi\n        /* \"#utility.yul\":9892:9910   */\n      tag_406\n      tag_368\n      jump\t// in\n        /* \"#utility.yul\":9923:10048   */\n    tag_203:\n        /* \"#utility.yul\":9988:9997   */\n      dup1\n      dup3\n      add\n        /* \"#utility.yul\":10009:10019   */\n      dup1\n      dup3\n      gt\n        /* \"#utility.yul\":10006:10042   */\n      iszero\n      tag_406\n      jumpi\n        /* \"#utility.yul\":10022:10040   */\n      tag_406\n      tag_368\n      jump\t// in\n        /* \"#utility.yul\":14484:14612   */\n    tag_299:\n        /* \"#utility.yul\":14551:14560   */\n      dup2\n      dup2\n      sub\n        /* \"#utility.yul\":14572:14583   */\n      dup2\n      dup2\n      gt\n        /* \"#utility.yul\":14569:14606   */\n      iszero\n      tag_406\n      jumpi\n        /* \"#utility.yul\":14586:14604   */\n      tag_406\n      tag_368\n      jump\t// in\n        /* \"#utility.yul\":14617:14744   */\n    tag_302:\n        /* \"#utility.yul\":14678:14688   */\n      0x4e487b71\n        /* \"#utility.yul\":14673:14676   */\n      0xe0\n        /* \"#utility.yul\":14669:14689   */\n      shl\n        /* \"#utility.yul\":14666:14667   */\n      0x00\n        /* \"#utility.yul\":14659:14690   */\n      mstore\n        /* \"#utility.yul\":14709:14713   */\n      0x32\n        /* \"#utility.yul\":14706:14707   */\n      0x04\n        /* \"#utility.yul\":14699:14714   */\n      mstore\n        /* \"#utility.yul\":14733:14737   */\n      0x24\n        /* \"#utility.yul\":14730:14731   */\n      0x00\n        /* \"#utility.yul\":14723:14738   */\n      revert\n        /* \"#utility.yul\":14749:16172   */\n    tag_308:\n        /* \"#utility.yul\":14864:14867   */\n      dup2\n        /* \"#utility.yul\":14858:14862   */\n      dup2\n        /* \"#utility.yul\":14855:14868   */\n      sub\n        /* \"#utility.yul\":14852:14878   */\n      tag_468\n      jumpi\n        /* \"#utility.yul\":14871:14876   */\n      pop\n      pop\n        /* \"#utility.yul\":14749:16172   */\n      jump\t// out\n        /* \"#utility.yul\":14852:14878   */\n    tag_468:\n        /* \"#utility.yul\":14901:14938   */\n      tag_469\n        /* \"#utility.yul\":14933:14936   */\n      dup3\n        /* \"#utility.yul\":14927:14937   */\n      sload\n        /* \"#utility.yul\":14901:14938   */\n      tag_135\n      jump\t// in\n    tag_469:\n        /* \"#utility.yul\":14961:14979   */\n      0xffffffffffffffff\n        /* \"#utility.yul\":14953:14959   */\n      dup2\n        /* \"#utility.yul\":14950:14980   */\n      gt\n        /* \"#utility.yul\":14947:15003   */\n      iszero\n      tag_471\n      jumpi\n        /* \"#utility.yul\":14983:15001   */\n      tag_471\n      tag_364\n      jump\t// in\n    tag_471:\n        /* \"#utility.yul\":15012:15109   */\n      tag_472\n        /* \"#utility.yul\":15102:15108   */\n      dup2\n        /* \"#utility.yul\":15062:15100   */\n      tag_433\n        /* \"#utility.yul\":15094:15098   */\n      dup5\n        /* \"#utility.yul\":15088:15099   */\n      sload\n        /* \"#utility.yul\":15062:15100   */\n      tag_135\n      jump\t// in\n        /* \"#utility.yul\":15012:15109   */\n    tag_472:\n        /* \"#utility.yul\":15135:15136   */\n      0x00\n        /* \"#utility.yul\":15163:15165   */\n      0x1f\n        /* \"#utility.yul\":15155:15161   */\n      dup3\n        /* \"#utility.yul\":15152:15166   */\n      gt\n        /* \"#utility.yul\":15180:15181   */\n      0x01\n        /* \"#utility.yul\":15175:15915   */\n      dup2\n      eq\n      tag_475\n      jumpi\n        /* \"#utility.yul\":15959:15960   */\n      0x00\n        /* \"#utility.yul\":15976:15982   */\n      dup4\n        /* \"#utility.yul\":15973:16062   */\n      iszero\n      tag_476\n      jumpi\n      pop\n        /* \"#utility.yul\":16028:16047   */\n      dup5\n      dup3\n      add\n        /* \"#utility.yul\":16022:16048   */\n      sload\n        /* \"#utility.yul\":15973:16062   */\n    tag_476:\n      not(0x00)\n        /* \"#utility.yul\":8225:8226   */\n      0x03\n        /* \"#utility.yul\":8221:8232   */\n      dup6\n      swap1\n      shl\n        /* \"#utility.yul\":8217:8241   */\n      shr\n        /* \"#utility.yul\":8213:8242   */\n      not\n        /* \"#utility.yul\":8203:8243   */\n      and\n        /* \"#utility.yul\":8249:8250   */\n      0x01\n        /* \"#utility.yul\":8245:8256   */\n      dup5\n      swap1\n      shl\n        /* \"#utility.yul\":8200:8257   */\n      or\n        /* \"#utility.yul\":16075:16156   */\n      dup5\n      sstore\n        /* \"#utility.yul\":15145:16166   */\n      jump(tag_427)\n        /* \"#utility.yul\":15175:15915   */\n    tag_475:\n        /* \"#utility.yul\":7521:7522   */\n      0x00\n        /* \"#utility.yul\":7514:7528   */\n      dup6\n      dup2\n      mstore\n        /* \"#utility.yul\":7558:7562   */\n      0x20\n        /* \"#utility.yul\":7545:7563   */\n      dup1\n      dup3\n      keccak256\n        /* \"#utility.yul\":7514:7528   */\n      dup7\n      dup4\n      mstore\n        /* \"#utility.yul\":7545:7563   */\n      swap1\n      dup3\n      keccak256\n      not(0x1f)\n        /* \"#utility.yul\":15211:15231   */\n      dup7\n      and\n      swap3\n        /* \"#utility.yul\":15389:15640   */\n    tag_480:\n        /* \"#utility.yul\":15403:15410   */\n      dup4\n        /* \"#utility.yul\":15400:15401   */\n      dup2\n        /* \"#utility.yul\":15397:15411   */\n      lt\n        /* \"#utility.yul\":15389:15640   */\n      iszero\n      tag_482\n      jumpi\n        /* \"#utility.yul\":15485:15506   */\n      dup3\n      dup7\n      add\n        /* \"#utility.yul\":15479:15507   */\n      sload\n        /* \"#utility.yul\":15464:15508   */\n      dup3\n      sstore\n        /* \"#utility.yul\":15535:15536   */\n      0x01\n        /* \"#utility.yul\":15608:15626   */\n      swap6\n      dup7\n      add\n      swap6\n        /* \"#utility.yul\":15563:15578   */\n      swap1\n      swap2\n      add\n      swap1\n        /* \"#utility.yul\":15426:15430   */\n      0x20\n        /* \"#utility.yul\":15419:15431   */\n      add\n        /* \"#utility.yul\":15389:15640   */\n      jump(tag_480)\n    tag_482:\n        /* \"#utility.yul\":15393:15396   */\n      pop\n        /* \"#utility.yul\":15668:15674   */\n      dup6\n        /* \"#utility.yul\":15659:15666   */\n      dup4\n        /* \"#utility.yul\":15656:15675   */\n      lt\n        /* \"#utility.yul\":15653:15856   */\n      iszero\n      tag_483\n      jumpi\n        /* \"#utility.yul\":15729:15750   */\n      dup2\n      dup6\n      add\n        /* \"#utility.yul\":15723:15751   */\n      sload\n      not(0x00)\n        /* \"#utility.yul\":15814:15815   */\n      0x03\n        /* \"#utility.yul\":15810:15824   */\n      dup9\n      swap1\n      shl\n        /* \"#utility.yul\":15826:15829   */\n      0xf8\n        /* \"#utility.yul\":15806:15830   */\n      and\n        /* \"#utility.yul\":15802:15839   */\n      shr\n        /* \"#utility.yul\":15798:15840   */\n      not\n        /* \"#utility.yul\":15783:15841   */\n      and\n        /* \"#utility.yul\":15768:15842   */\n      dup2\n      sstore\n        /* \"#utility.yul\":15653:15856   */\n    tag_483:\n      pop\n      pop\n      pop\n      pop\n      pop\n        /* \"#utility.yul\":15902:15903   */\n      0x01\n        /* \"#utility.yul\":15886:15900   */\n      swap1\n      dup2\n      shl\n        /* \"#utility.yul\":15882:15904   */\n      add\n        /* \"#utility.yul\":15869:15905   */\n      swap1\n      sstore\n      pop\n        /* \"#utility.yul\":14749:16172   */\n      jump\t// out\n        /* \"#utility.yul\":16177:16304   */\n    tag_311:\n        /* \"#utility.yul\":16238:16248   */\n      0x4e487b71\n        /* \"#utility.yul\":16233:16236   */\n      0xe0\n        /* \"#utility.yul\":16229:16249   */\n      shl\n        /* \"#utility.yul\":16226:16227   */\n      0x00\n        /* \"#utility.yul\":16219:16250   */\n      mstore\n        /* \"#utility.yul\":16269:16273   */\n      0x31\n        /* \"#utility.yul\":16266:16267   */\n      0x04\n        /* \"#utility.yul\":16259:16274   */\n      mstore\n        /* \"#utility.yul\":16293:16297   */\n      0x24\n        /* \"#utility.yul\":16290:16291   */\n      0x00\n        /* \"#utility.yul\":16283:16298   */\n      revert\n\n    auxdata: 0xa26469706673582212209d208eba10ece913ffa18f8dac71b960a630fd1d2ea0862a9fae033f635dc5ba64736f6c63430008190033\n}\n",
    "bytecode": {
      "linkReferences": {},
      "object": "608060405234801561000f575f80fd5b50604051611ebf380380611ebf83398101604081905261002e9161017e565b600580546001600160a01b0319166001600160a01b0389161790555f61005487826102c4565b50600161006186826102c4565b50600261006e85826102c4565b5060038390556100818262015180610397565b61008b90426103b4565b6004556005805460ff60b01b198116825582919061ffff60a81b1916600160a81b8360068111156100be576100be6103c7565b0217905550505050505050506103db565b634e487b7160e01b5f52604160045260245ffd5b5f82601f8301126100f2575f80fd5b81516001600160401b038082111561010c5761010c6100cf565b604051601f8301601f19908116603f01168101908282118183101715610134576101346100cf565b8160405283815286602085880101111561014c575f80fd5b8360208701602083015e5f602085830101528094505050505092915050565b805160078110610179575f80fd5b919050565b5f805f805f805f60e0888a031215610194575f80fd5b87516001600160a01b03811681146101aa575f80fd5b60208901519097506001600160401b03808211156101c6575f80fd5b6101d28b838c016100e3565b975060408a01519150808211156101e7575f80fd5b6101f38b838c016100e3565b965060608a0151915080821115610208575f80fd5b506102158a828b016100e3565b9450506080880151925060a0880151915061023260c0890161016b565b905092959891949750929550565b600181811c9082168061025457607f821691505b60208210810361027257634e487b7160e01b5f52602260045260245ffd5b50919050565b601f8211156102bf57805f5260205f20601f840160051c8101602085101561029d5750805b601f840160051c820191505b818110156102bc575f81556001016102a9565b50505b505050565b81516001600160401b038111156102dd576102dd6100cf565b6102f1816102eb8454610240565b84610278565b602080601f831160018114610324575f841561030d5750858301515b5f19600386901b1c1916600185901b17855561037b565b5f85815260208120601f198616915b8281101561035257888601518255948401946001909101908401610333565b508582101561036f57878501515f19600388901b60f8161c191681555b505060018460011b0185555b505050505050565b634e487b7160e01b5f52601160045260245ffd5b80820281158282048414176103ae576103ae610383565b92915050565b808201808211156103ae576103ae610383565b634e487b7160e01b5f52602160045260245ffd5b611ad7806103e85f395ff3fe608060405260043610610178575f3560e01c80637284e416116100d1578063ecb0382e1161007c578063f3ccaac011610057578063f3ccaac014610425578063ff20111414610439578063ff48826b14610466575f80fd5b8063ecb0382e146103a6578063ecb6c66a146103c5578063ef430aa6146103e6575f80fd5b8063b85dfb80116100ac578063b85dfb801461031a578063c19d93fb14610364578063e29eb83614610391575f80fd5b80637284e416146102c75780638da5cb5b146102db578063b60d428814610312575f80fd5b8063389b753311610131578063590e1ae31161010c578063590e1ae31461026f5780635c975abb146102835780636985a022146102b3575f80fd5b8063389b7533146102275780633ccfd60b14610246578063401938831461025a575f80fd5b8063141f51c411610161578063141f51c4146101cf57806322cc505a146101e557806329dcb0cf14610204575f80fd5b806306fdde031461017c5780630c611f24146101a6575b5f80fd5b348015610187575f80fd5b5061019061049a565b60405161019d9190611583565b60405180910390f35b3480156101b1575f80fd5b506101ba610525565b60405161019d999897969594939291906115d4565b3480156101da575f80fd5b506101e361072e565b005b3480156101f0575f80fd5b506101e36101ff366004611670565b61085e565b34801561020f575f80fd5b5061021960045481565b60405190815260200161019d565b348015610232575f80fd5b506101e361024136600461171f565b610977565b348015610251575f80fd5b506101e3610a4b565b348015610265575f80fd5b5061021960035481565b34801561027a575f80fd5b506101e3610c3f565b34801561028e575f80fd5b506005546102a390600160a01b900460ff1681565b604051901515815260200161019d565b3480156102be575f80fd5b506101e3610e55565b3480156102d2575f80fd5b50610190610edb565b3480156102e6575f80fd5b506005546102fa906001600160a01b031681565b6040516001600160a01b03909116815260200161019d565b6101e3610ee8565b348015610325575f80fd5b5061034f610334366004611736565b60076020525f90815260409020805460019091015460ff1682565b6040805192835290151560208301520161019d565b34801561036f575f80fd5b5060055461038490600160b01b900460ff1681565b60405161019d919061175c565b34801561039c575f80fd5b5061021960085481565b3480156103b1575f80fd5b506101e36103c036600461171f565b61108e565b3480156103d0575f80fd5b506103d96112a4565b60405161019d9190611770565b3480156103f1575f80fd5b50600554610418907501000000000000000000000000000000000000000000900460ff1681565b60405161019d91906117e6565b348015610430575f80fd5b50610190611399565b348015610444575f80fd5b5061045861045336600461171f565b6113a6565b60405161019d9291906117f4565b348015610471575f80fd5b50610219610480366004611736565b6001600160a01b03165f9081526007602052604090205490565b5f80546104a690611815565b80601f01602080910402602001604051908101604052809291908181526020018280546104d290611815565b801561051d5780601f106104f45761010080835404028352916020019161051d565b820191905f5260205f20905b81548152906001019060200180831161050057829003601f168201915b505050505081565b60608060605f805f805f805f6001600260035460045460055f9054906101000a90046001600160a01b0316600560169054906101000a900460ff16600560159054906101000a900460ff1660085488805461057f90611815565b80601f01602080910402602001604051908101604052809291908181526020018280546105ab90611815565b80156105f65780601f106105cd576101008083540402835291602001916105f6565b820191905f5260205f20905b8154815290600101906020018083116105d957829003601f168201915b5050505050985087805461060990611815565b80601f016020809104026020016040519081016040528092919081815260200182805461063590611815565b80156106805780601f1061065757610100808354040283529160200191610680565b820191905f5260205f20905b81548152906001019060200180831161066357829003601f168201915b5050505050975086805461069390611815565b80601f01602080910402602001604051908101604052809291908181526020018280546106bf90611815565b801561070a5780601f106106e15761010080835404028352916020019161070a565b820191905f5260205f20905b8154815290600101906020018083116106ed57829003601f168201915b50505050509650985098509850985098509850985098509850909192939495969798565b6005546001600160a01b0316331461077d5760405162461bcd60e51b815260206004820152600d60248201526c2737ba103a34329037bbb732b960991b60448201526064015b60405180910390fd5b5f600554600160b01b900460ff16600281111561079c5761079c61159c565b146107e25760405162461bcd60e51b815260206004820152601660248201527543616d706169676e206973206e6f742061637469766560501b6044820152606401610774565b5f600354600854106107f6575060016107fa565b5060025b6005805482919060ff60b01b1916600160b01b83600281111561081f5761081f61159c565b02179055507f13b412722da5cda189ed162d85e2af22617754f62ab390934bb3153b3e05470e81604051610853919061175c565b60405180910390a150565b6005546001600160a01b031633146108a85760405162461bcd60e51b815260206004820152600d60248201526c2737ba103a34329037bbb732b960991b6044820152606401610774565b5f600554600160b01b900460ff1660028111156108c7576108c761159c565b1461090d5760405162461bcd60e51b815260206004820152601660248201527543616d706169676e206973206e6f742061637469766560501b6044820152606401610774565b6040805180820190915282815260208101829052600680546001810182555f91909152815160029091027ff652222313e28459528d920b65115c16c04f3efc82aaedc97be59f3f377c0d3f019081906109669082611899565b506020820151816001015550505050565b6005546001600160a01b031633146109c15760405162461bcd60e51b815260206004820152600d60248201526c2737ba103a34329037bbb732b960991b6044820152606401610774565b5f600554600160b01b900460ff1660028111156109e0576109e061159c565b14610a265760405162461bcd60e51b815260206004820152601660248201527543616d706169676e206973206e6f742061637469766560501b6044820152606401610774565b610a33816201518061196d565b60045f828254610a439190611984565b909155505050565b6005546001600160a01b03163314610a955760405162461bcd60e51b815260206004820152600d60248201526c2737ba103a34329037bbb732b960991b6044820152606401610774565b610a9d61145b565b6001600554600160b01b900460ff166002811115610abd57610abd61159c565b14610b0a5760405162461bcd60e51b815260206004820152601760248201527f43616d706169676e206e6f74207375636365737366756c0000000000000000006044820152606401610774565b4780610b585760405162461bcd60e51b815260206004820152601660248201527f4e6f2062616c616e636520746f207769746864726177000000000000000000006044820152606401610774565b6005546040515f916001600160a01b03169083908381818185875af1925050503d805f8114610ba2576040519150601f19603f3d011682016040523d82523d5f602084013e610ba7565b606091505b5050905080610bf85760405162461bcd60e51b815260206004820152601860248201527f4661696c656420746f2077697468647261772066756e647300000000000000006044820152606401610774565b6005546040518381526001600160a01b03909116907f7fcf532c15f0a6db0bd6d0e038bea71d30d808c7d98cb3bf7268a95bf5081b65906020015b60405180910390a25050565b610c4761145b565b6002600554600160b01b900460ff166002811115610c6757610c6761159c565b14610cb45760405162461bcd60e51b815260206004820152601560248201527f526566756e6473206e6f7420617661696c61626c6500000000000000000000006044820152606401610774565b335f9081526007602052604090205480610d105760405162461bcd60e51b815260206004820152601960248201527f4e6f20636f6e747269627574696f6e20746f20726566756e64000000000000006044820152606401610774565b335f9081526007602052604090206001015460ff1615610d725760405162461bcd60e51b815260206004820152601660248201527f526566756e6420616c726561647920636c61696d6564000000000000000000006044820152606401610774565b335f818152600760205260408082206001908101805460ff191690911790555190919083908381818185875af1925050503d805f8114610dcd576040519150601f19603f3d011682016040523d82523d5f602084013e610dd2565b606091505b5050905080610e235760405162461bcd60e51b815260206004820152601060248201527f4661696c656420746f20726566756e64000000000000000000000000000000006044820152606401610774565b60405182815233907fd7dee2702d63ad89917b6a4da9981c90c4d24f8c2bdfd64c604ecae57d8d065190602001610c33565b6005546001600160a01b03163314610e9f5760405162461bcd60e51b815260206004820152600d60248201526c2737ba103a34329037bbb732b960991b6044820152606401610774565b600580547fffffffffffffffffffffff00ffffffffffffffffffffffffffffffffffffffff8116600160a01b9182900460ff1615909102179055565b600180546104a690611815565b5f600554600160b01b900460ff166002811115610f0757610f0761159c565b14610f4d5760405162461bcd60e51b815260206004820152601660248201527543616d706169676e206973206e6f742061637469766560501b6044820152606401610774565b600554600160a01b900460ff1615610fa75760405162461bcd60e51b815260206004820152601260248201527f436f6e74726163742069732070617573656400000000000000000000000000006044820152606401610774565b5f34116110025760405162461bcd60e51b815260206004820152602360248201527f436f6e747269627574696f6e206d75737420626520677265617465722074686160448201526206e20360ec1b6064820152608401610774565b335f9081526007602052604081208054349290611020908490611984565b925050819055503460085f8282546110389190611984565b9091555050335f81815260076020908152604091829020548251348152918201527fcd909ec339185c4598a4096e174308fbdf136d117f230960f873a2f2e81f63af910160405180910390a261108c61145b565b565b6005546001600160a01b031633146110d85760405162461bcd60e51b815260206004820152600d60248201526c2737ba103a34329037bbb732b960991b6044820152606401610774565b5f600554600160b01b900460ff1660028111156110f7576110f761159c565b1461113d5760405162461bcd60e51b815260206004820152601660248201527543616d706169676e206973206e6f742061637469766560501b6044820152606401610774565b600654811061118e5760405162461bcd60e51b815260206004820152601260248201527f496e76616c6964207469657220696e64657800000000000000000000000000006044820152606401610774565b600854156112045760405162461bcd60e51b815260206004820152602d60248201527f43616e6e6f742072656d6f76652074696572732061667465722066756e64696e60448201527f67206861732073746172746564000000000000000000000000000000000000006064820152608401610774565b6006805461121490600190611997565b81548110611224576112246119aa565b905f5260205f20906002020160068281548110611243576112436119aa565b5f91825260209091206002909102018061125d83826119be565b50600191820154910155600680548061127857611278611a8d565b5f828152602081205f1990920191600283020190611296828261150b565b600182015f90555050905550565b60606006805480602002602001604051908101604052809291908181526020015f905b82821015611390578382905f5260205f2090600202016040518060400160405290815f820180546112f790611815565b80601f016020809104026020016040519081016040528092919081815260200182805461132390611815565b801561136e5780601f106113455761010080835404028352916020019161136e565b820191905f5260205f20905b81548152906001019060200180831161135157829003601f168201915b50505050508152602001600182015481525050815260200190600101906112c7565b50505050905090565b600280546104a690611815565b600681815481106113b5575f80fd5b905f5260205f2090600202015f91509050805f0180546113d490611815565b80601f016020809104026020016040519081016040528092919081815260200182805461140090611815565b801561144b5780601f106114225761010080835404028352916020019161144b565b820191905f5260205f20905b81548152906001019060200180831161142e57829003601f168201915b5050505050908060010154905082565b5f600554600160b01b900460ff16600281111561147a5761147a61159c565b0361108c57600554600354600854600160b01b90920460ff1691106114a1575060016114ae565b60045442106114ae575060025b600554600160b01b900460ff1660028111156114cc576114cc61159c565b8160028111156114de576114de61159c565b14611508576005805482919060ff60b01b1916600160b01b83600281111561081f5761081f61159c565b50565b50805461151790611815565b5f825580601f10611526575050565b601f0160209004905f5260205f209081019061150891905b80821115611551575f815560010161153e565b5090565b5f81518084528060208401602086015e5f602082860101526020601f19601f83011685010191505092915050565b602081525f6115956020830184611555565b9392505050565b634e487b7160e01b5f52602160045260245ffd5b600381106115c0576115c061159c565b9052565b600781106115c0576115c061159c565b5f6101208083526115e78184018d611555565b905082810360208401526115fb818c611555565b9050828103604084015261160f818b611555565b9150508760608301528660808301526001600160a01b03861660a083015261163a60c08301866115b0565b61164760e08301856115c4565b826101008301529a9950505050505050505050565b634e487b7160e01b5f52604160045260245ffd5b5f8060408385031215611681575f80fd5b823567ffffffffffffffff80821115611698575f80fd5b818501915085601f8301126116ab575f80fd5b8135818111156116bd576116bd61165c565b604051601f8201601f19908116603f011681019083821181831017156116e5576116e561165c565b816040528281528860208487010111156116fd575f80fd5b826020860160208301375f602093820184015298969091013596505050505050565b5f6020828403121561172f575f80fd5b5035919050565b5f60208284031215611746575f80fd5b81356001600160a01b0381168114611595575f80fd5b6020810161176a82846115b0565b92915050565b5f60208083018184528085518083526040925060408601915060408160051b8701018488015f5b838110156117d857888303603f19018552815180518785526117bb88860182611555565b918901519489019490945294870194925090860190600101611797565b509098975050505050505050565b6020810161176a82846115c4565b604081525f6118066040830185611555565b90508260208301529392505050565b600181811c9082168061182957607f821691505b60208210810361184757634e487b7160e01b5f52602260045260245ffd5b50919050565b601f82111561189457805f5260205f20601f840160051c810160208510156118725750805b601f840160051c820191505b81811015611891575f815560010161187e565b50505b505050565b815167ffffffffffffffff8111156118b3576118b361165c565b6118c7816118c18454611815565b8461184d565b602080601f8311600181146118fa575f84156118e35750858301515b5f19600386901b1c1916600185901b178555611951565b5f85815260208120601f198616915b8281101561192857888601518255948401946001909101908401611909565b508582101561194557878501515f19600388901b60f8161c191681555b505060018460011b0185555b505050505050565b634e487b7160e01b5f52601160045260245ffd5b808202811582820484141761176a5761176a611959565b8082018082111561176a5761176a611959565b8181038181111561176a5761176a611959565b634e487b7160e01b5f52603260045260245ffd5b8181036119c9575050565b6119d38254611815565b67ffffffffffffffff8111156119eb576119eb61165c565b6119f9816118c18454611815565b5f601f821160018114611a2a575f8315611a135750848201545b5f19600385901b1c1916600184901b178455611891565b5f8581526020808220868352908220601f198616925b83811015611a605782860154825560019586019590910190602001611a40565b5085831015611a7d57818501545f19600388901b60f8161c191681555b5050505050600190811b01905550565b634e487b7160e01b5f52603160045260245ffdfea26469706673582212209d208eba10ece913ffa18f8dac71b960a630fd1d2ea0862a9fae033f635dc5ba64736f6c63430008190033",
      "opcodes": "PUSH1 0x80 PUSH1 0x40 MSTORE CALLVALUE DUP1 ISZERO PUSH2 0xF JUMPI PUSH0 DUP1 REVERT JUMPDEST POP PUSH1 0x40 MLOAD PUSH2 0x1EBF CODESIZE SUB DUP1 PUSH2 0x1EBF DUP4 CODECOPY DUP2 ADD PUSH1 0x40 DUP2 SWAP1 MSTORE PUSH2 0x2E SWAP2 PUSH2 0x17E JUMP JUMPDEST PUSH1 0x5 DUP1 SLOAD PUSH1 0x1 PUSH1 0x1 PUSH1 0xA0 SHL SUB NOT AND PUSH1 0x1 PUSH1 0x1 PUSH1 0xA0 SHL SUB DUP10 AND OR SWAP1 SSTORE PUSH0 PUSH2 0x54 DUP8 DUP3 PUSH2 0x2C4 JUMP JUMPDEST POP PUSH1 0x1 PUSH2 0x61 DUP7 DUP3 PUSH2 0x2C4 JUMP JUMPDEST POP PUSH1 0x2 PUSH2 0x6E DUP6 DUP3 PUSH2 0x2C4 JUMP JUMPDEST POP PUSH1 0x3 DUP4 SWAP1 SSTORE PUSH2 0x81 DUP3 PUSH3 0x15180 PUSH2 0x397 JUMP JUMPDEST PUSH2 0x8B SWAP1 TIMESTAMP PUSH2 0x3B4 JUMP JUMPDEST PUSH1 0x4 SSTORE PUSH1 0x5 DUP1 SLOAD PUSH1 0xFF PUSH1 0xB0 SHL NOT DUP2 AND DUP3 SSTORE DUP3 SWAP2 SWAP1 PUSH2 0xFFFF PUSH1 0xA8 SHL NOT AND PUSH1 0x1 PUSH1 0xA8 SHL DUP4 PUSH1 0x6 DUP2 GT ISZERO PUSH2 0xBE JUMPI PUSH2 0xBE PUSH2 0x3C7 JUMP JUMPDEST MUL OR SWAP1 SSTORE POP POP POP POP POP POP POP POP PUSH2 0x3DB JUMP JUMPDEST PUSH4 0x4E487B71 PUSH1 0xE0 SHL PUSH0 MSTORE PUSH1 0x41 PUSH1 0x4 MSTORE PUSH1 0x24 PUSH0 REVERT JUMPDEST PUSH0 DUP3 PUSH1 0x1F DUP4 ADD SLT PUSH2 0xF2 JUMPI PUSH0 DUP1 REVERT JUMPDEST DUP2 MLOAD PUSH1 0x1 PUSH1 0x1 PUSH1 0x40 SHL SUB DUP1 DUP3 GT ISZERO PUSH2 0x10C JUMPI PUSH2 0x10C PUSH2 0xCF JUMP JUMPDEST PUSH1 0x40 MLOAD PUSH1 0x1F DUP4 ADD PUSH1 0x1F NOT SWAP1 DUP2 AND PUSH1 0x3F ADD AND DUP2 ADD SWAP1 DUP3 DUP3 GT DUP2 DUP4 LT OR ISZERO PUSH2 0x134 JUMPI PUSH2 0x134 PUSH2 0xCF JUMP JUMPDEST DUP2 PUSH1 0x40 MSTORE DUP4 DUP2 MSTORE DUP7 PUSH1 0x20 DUP6 DUP9 ADD ADD GT ISZERO PUSH2 0x14C JUMPI PUSH0 DUP1 REVERT JUMPDEST DUP4 PUSH1 0x20 DUP8 ADD PUSH1 0x20 DUP4 ADD MCOPY PUSH0 PUSH1 0x20 DUP6 DUP4 ADD ADD MSTORE DUP1 SWAP5 POP POP POP POP POP SWAP3 SWAP2 POP POP JUMP JUMPDEST DUP1 MLOAD PUSH1 0x7 DUP2 LT PUSH2 0x179 JUMPI PUSH0 DUP1 REVERT JUMPDEST SWAP2 SWAP1 POP JUMP JUMPDEST PUSH0 DUP1 PUSH0 DUP1 PUSH0 DUP1 PUSH0 PUSH1 0xE0 DUP9 DUP11 SUB SLT ISZERO PUSH2 0x194 JUMPI PUSH0 DUP1 REVERT JUMPDEST DUP8 MLOAD PUSH1 0x1 PUSH1 0x1 PUSH1 0xA0 SHL SUB DUP2 AND DUP2 EQ PUSH2 0x1AA JUMPI PUSH0 DUP1 REVERT JUMPDEST PUSH1 0x20 DUP10 ADD MLOAD SWAP1 SWAP8 POP PUSH1 0x1 PUSH1 0x1 PUSH1 0x40 SHL SUB DUP1 DUP3 GT ISZERO PUSH2 0x1C6 JUMPI PUSH0 DUP1 REVERT JUMPDEST PUSH2 0x1D2 DUP12 DUP4 DUP13 ADD PUSH2 0xE3 JUMP JUMPDEST SWAP8 POP PUSH1 0x40 DUP11 ADD MLOAD SWAP2 POP DUP1 DUP3 GT ISZERO PUSH2 0x1E7 JUMPI PUSH0 DUP1 REVERT JUMPDEST PUSH2 0x1F3 DUP12 DUP4 DUP13 ADD PUSH2 0xE3 JUMP JUMPDEST SWAP7 POP PUSH1 0x60 DUP11 ADD MLOAD SWAP2 POP DUP1 DUP3 GT ISZERO PUSH2 0x208 JUMPI PUSH0 DUP1 REVERT JUMPDEST POP PUSH2 0x215 DUP11 DUP3 DUP12 ADD PUSH2 0xE3 JUMP JUMPDEST SWAP5 POP POP PUSH1 0x80 DUP9 ADD MLOAD SWAP3 POP PUSH1 0xA0 DUP9 ADD MLOAD SWAP2 POP PUSH2 0x232 PUSH1 0xC0 DUP10 ADD PUSH2 0x16B JUMP JUMPDEST SWAP1 POP SWAP3 SWAP6 SWAP9 SWAP2 SWAP5 SWAP8 POP SWAP3 SWAP6 POP JUMP JUMPDEST PUSH1 0x1 DUP2 DUP2 SHR SWAP1 DUP3 AND DUP1 PUSH2 0x254 JUMPI PUSH1 0x7F DUP3 AND SWAP2 POP JUMPDEST PUSH1 0x20 DUP3 LT DUP2 SUB PUSH2 0x272 JUMPI PUSH4 0x4E487B71 PUSH1 0xE0 SHL PUSH0 MSTORE PUSH1 0x22 PUSH1 0x4 MSTORE PUSH1 0x24 PUSH0 REVERT JUMPDEST POP SWAP2 SWAP1 POP JUMP JUMPDEST PUSH1 0x1F DUP3 GT ISZERO PUSH2 0x2BF JUMPI DUP1 PUSH0 MSTORE PUSH1 0x20 PUSH0 KECCAK256 PUSH1 0x1F DUP5 ADD PUSH1 0x5 SHR DUP2 ADD PUSH1 0x20 DUP6 LT ISZERO PUSH2 0x29D JUMPI POP DUP1 JUMPDEST PUSH1 0x1F DUP5 ADD PUSH1 0x5 SHR DUP3 ADD SWAP2 POP JUMPDEST DUP2 DUP2 LT ISZERO PUSH2 0x2BC JUMPI PUSH0 DUP2 SSTORE PUSH1 0x1 ADD PUSH2 0x2A9 JUMP JUMPDEST POP POP JUMPDEST POP POP POP JUMP JUMPDEST DUP2 MLOAD PUSH1 0x1 PUSH1 0x1 PUSH1 0x40 SHL SUB DUP2 GT ISZERO PUSH2 0x2DD JUMPI PUSH2 0x2DD PUSH2 0xCF JUMP JUMPDEST PUSH2 0x2F1 DUP2 PUSH2 0x2EB DUP5 SLOAD PUSH2 0x240 JUMP JUMPDEST DUP5 PUSH2 0x278 JUMP JUMPDEST PUSH1 0x20 DUP1 PUSH1 0x1F DUP4 GT PUSH1 0x1 DUP2 EQ PUSH2 0x324 JUMPI PUSH0 DUP5 ISZERO PUSH2 0x30D JUMPI POP DUP6 DUP4 ADD MLOAD JUMPDEST PUSH0 NOT PUSH1 0x3 DUP7 SWAP1 SHL SHR NOT AND PUSH1 0x1 DUP6 SWAP1 SHL OR DUP6 SSTORE PUSH2 0x37B JUMP JUMPDEST PUSH0 DUP6 DUP2 MSTORE PUSH1 0x20 DUP2 KECCAK256 PUSH1 0x1F NOT DUP7 AND SWAP2 JUMPDEST DUP3 DUP2 LT ISZERO PUSH2 0x352 JUMPI DUP9 DUP7 ADD MLOAD DUP3 SSTORE SWAP5 DUP5 ADD SWAP5 PUSH1 0x1 SWAP1 SWAP2 ADD SWAP1 DUP5 ADD PUSH2 0x333 JUMP JUMPDEST POP DUP6 DUP3 LT ISZERO PUSH2 0x36F JUMPI DUP8 DUP6 ADD MLOAD PUSH0 NOT PUSH1 0x3 DUP9 SWAP1 SHL PUSH1 0xF8 AND SHR NOT AND DUP2 SSTORE JUMPDEST POP POP PUSH1 0x1 DUP5 PUSH1 0x1 SHL ADD DUP6 SSTORE JUMPDEST POP POP POP POP POP POP JUMP JUMPDEST PUSH4 0x4E487B71 PUSH1 0xE0 SHL PUSH0 MSTORE PUSH1 0x11 PUSH1 0x4 MSTORE PUSH1 0x24 PUSH0 REVERT JUMPDEST DUP1 DUP3 MUL DUP2 ISZERO DUP3 DUP3 DIV DUP5 EQ OR PUSH2 0x3AE JUMPI PUSH2 0x3AE PUSH2 0x383 JUMP JUMPDEST SWAP3 SWAP2 POP POP JUMP JUMPDEST DUP1 DUP3 ADD DUP1 DUP3 GT ISZERO PUSH2 0x3AE JUMPI PUSH2 0x3AE PUSH2 0x383 JUMP JUMPDEST PUSH4 0x4E487B71 PUSH1 0xE0 SHL PUSH0 MSTORE PUSH1 0x21 PUSH1 0x4 MSTORE PUSH1 0x24 PUSH0 REVERT JUMPDEST PUSH2 0x1AD7 DUP1 PUSH2 0x3E8 PUSH0 CODECOPY PUSH0 RETURN INVALID PUSH1 0x80 PUSH1 0x40 MSTORE PUSH1 0x4 CALLDATASIZE LT PUSH2 0x178 JUMPI PUSH0 CALLDATALOAD PUSH1 0xE0 SHR DUP1 PUSH4 0x7284E416 GT PUSH2 0xD1 JUMPI DUP1 PUSH4 0xECB0382E GT PUSH2 0x7C JUMPI DUP1 PUSH4 0xF3CCAAC0 GT PUSH2 0x57 JUMPI DUP1 PUSH4 0xF3CCAAC0 EQ PUSH2 0x425 JUMPI DUP1 PUSH4 0xFF201114 EQ PUSH2 0x439 JUMPI DUP1 PUSH4 0xFF48826B EQ PUSH2 0x466 JUMPI PUSH0 DUP1 REVERT JUMPDEST DUP1 PUSH4 0xECB0382E EQ PUSH2 0x3A6 JUMPI DUP1 PUSH4 0xECB6C66A EQ PUSH2 0x3C5 JUMPI DUP1 PUSH4 0xEF430AA6 EQ PUSH2 0x3E6 JUMPI PUSH0 DUP1 REVERT JUMPDEST DUP1 PUSH4 0xB85DFB80 GT PUSH2 0xAC JUMPI DUP1 PUSH4 0xB85DFB80 EQ PUSH2 0x31A JUMPI DUP1 PUSH4 0xC19D93FB EQ PUSH2 0x364 JUMPI DUP1 PUSH4 0xE29EB836 EQ PUSH2 0x391 JUMPI PUSH0 DUP1 REVERT JUMPDEST DUP1 PUSH4 0x7284E416 EQ PUSH2 0x2C7 JUMPI DUP1 PUSH4 0x8DA5CB5B EQ PUSH2 0x2DB JUMPI DUP1 PUSH4 0xB60D4288 EQ PUSH2 0x312 JUMPI PUSH0 DUP1 REVERT JUMPDEST DUP1 PUSH4 0x389B7533 GT PUSH2 0x131 JUMPI DUP1 PUSH4 0x590E1AE3 GT PUSH2 0x10C JUMPI DUP1 PUSH4 0x590E1AE3 EQ PUSH2 0x26F JUMPI DUP1 PUSH4 0x5C975ABB EQ PUSH2 0x283 JUMPI DUP1 PUSH4 0x6985A022 EQ PUSH2 0x2B3 JUMPI PUSH0 DUP1 REVERT JUMPDEST DUP1 PUSH4 0x389B7533 EQ PUSH2 0x227 JUMPI DUP1 PUSH4 0x3CCFD60B EQ PUSH2 0x246 JUMPI DUP1 PUSH4 0x40193883 EQ PUSH2 0x25A JUMPI PUSH0 DUP1 REVERT JUMPDEST DUP1 PUSH4 0x141F51C4 GT PUSH2 0x161 JUMPI DUP1 PUSH4 0x141F51C4 EQ PUSH2 0x1CF JUMPI DUP1 PUSH4 0x22CC505A EQ PUSH2 0x1E5 JUMPI DUP1 PUSH4 0x29DCB0CF EQ PUSH2 0x204 JUMPI PUSH0 DUP1 REVERT JUMPDEST DUP1 PUSH4 0x6FDDE03 EQ PUSH2 0x17C JUMPI DUP1 PUSH4 0xC611F24 EQ PUSH2 0x1A6 JUMPI JUMPDEST PUSH0 DUP1 REVERT JUMPDEST CALLVALUE DUP1 ISZERO PUSH2 0x187 JUMPI PUSH0 DUP1 REVERT JUMPDEST POP PUSH2 0x190 PUSH2 0x49A JUMP JUMPDEST PUSH1 0x40 MLOAD PUSH2 0x19D SWAP2 SWAP1 PUSH2 0x1583 JUMP JUMPDEST PUSH1 0x40 MLOAD DUP1 SWAP2 SUB SWAP1 RETURN JUMPDEST CALLVALUE DUP1 ISZERO PUSH2 0x1B1 JUMPI PUSH0 DUP1 REVERT JUMPDEST POP PUSH2 0x1BA PUSH2 0x525 JUMP JUMPDEST PUSH1 0x40 MLOAD PUSH2 0x19D SWAP10 SWAP9 SWAP8 SWAP7 SWAP6 SWAP5 SWAP4 SWAP3 SWAP2 SWAP1 PUSH2 0x15D4 JUMP JUMPDEST CALLVALUE DUP1 ISZERO PUSH2 0x1DA JUMPI PUSH0 DUP1 REVERT JUMPDEST POP PUSH2 0x1E3 PUSH2 0x72E JUMP JUMPDEST STOP JUMPDEST CALLVALUE DUP1 ISZERO PUSH2 0x1F0 JUMPI PUSH0 DUP1 REVERT JUMPDEST POP PUSH2 0x1E3 PUSH2 0x1FF CALLDATASIZE PUSH1 0x4 PUSH2 0x1670 JUMP JUMPDEST PUSH2 0x85E JUMP JUMPDEST CALLVALUE DUP1 ISZERO PUSH2 0x20F JUMPI PUSH0 DUP1 REVERT JUMPDEST POP PUSH2 0x219 PUSH1 0x4 SLOAD DUP2 JUMP JUMPDEST PUSH1 0x40 MLOAD SWAP1 DUP2 MSTORE PUSH1 0x20 ADD PUSH2 0x19D JUMP JUMPDEST CALLVALUE DUP1 ISZERO PUSH2 0x232 JUMPI PUSH0 DUP1 REVERT JUMPDEST POP PUSH2 0x1E3 PUSH2 0x241 CALLDATASIZE PUSH1 0x4 PUSH2 0x171F JUMP JUMPDEST PUSH2 0x977 JUMP JUMPDEST CALLVALUE DUP1 ISZERO PUSH2 0x251 JUMPI PUSH0 DUP1 REVERT JUMPDEST POP PUSH2 0x1E3 PUSH2 0xA4B JUMP JUMPDEST CALLVALUE DUP1 ISZERO PUSH2 0x265 JUMPI PUSH0 DUP1 REVERT JUMPDEST POP PUSH2 0x219 PUSH1 0x3 SLOAD DUP2 JUMP JUMPDEST CALLVALUE DUP1 ISZERO PUSH2 0x27A JUMPI PUSH0 DUP1 REVERT JUMPDEST POP PUSH2 0x1E3 PUSH2 0xC3F JUMP JUMPDEST CALLVALUE DUP1 ISZERO PUSH2 0x28E JUMPI PUSH0 DUP1 REVERT JUMPDEST POP PUSH1 0x5 SLOAD PUSH2 0x2A3 SWAP1 PUSH1 0x1 PUSH1 0xA0 SHL SWAP1 DIV PUSH1 0xFF AND DUP2 JUMP JUMPDEST PUSH1 0x40 MLOAD SWAP1 ISZERO ISZERO DUP2 MSTORE PUSH1 0x20 ADD PUSH2 0x19D JUMP JUMPDEST CALLVALUE DUP1 ISZERO PUSH2 0x2BE JUMPI PUSH0 DUP1 REVERT JUMPDEST POP PUSH2 0x1E3 PUSH2 0xE55 JUMP JUMPDEST CALLVALUE DUP1 ISZERO PUSH2 0x2D2 JUMPI PUSH0 DUP1 REVERT JUMPDEST POP PUSH2 0x190 PUSH2 0xEDB JUMP JUMPDEST CALLVALUE DUP1 ISZERO PUSH2 0x2E6 JUMPI PUSH0 DUP1 REVERT JUMPDEST POP PUSH1 0x5 SLOAD PUSH2 0x2FA SWAP1 PUSH1 0x1 PUSH1 0x1 PUSH1 0xA0 SHL SUB AND DUP2 JUMP JUMPDEST PUSH1 0x40 MLOAD PUSH1 0x1 PUSH1 0x1 PUSH1 0xA0 SHL SUB SWAP1 SWAP2 AND DUP2 MSTORE PUSH1 0x20 ADD PUSH2 0x19D JUMP JUMPDEST PUSH2 0x1E3 PUSH2 0xEE8 JUMP JUMPDEST CALLVALUE DUP1 ISZERO PUSH2 0x325 JUMPI PUSH0 DUP1 REVERT JUMPDEST POP PUSH2 0x34F PUSH2 0x334 CALLDATASIZE PUSH1 0x4 PUSH2 0x1736 JUMP JUMPDEST PUSH1 0x7 PUSH1 0x20 MSTORE PUSH0 SWAP1 DUP2 MSTORE PUSH1 0x40 SWAP1 KECCAK256 DUP1 SLOAD PUSH1 0x1 SWAP1 SWAP2 ADD SLOAD PUSH1 0xFF AND DUP3 JUMP JUMPDEST PUSH1 0x40 DUP1 MLOAD SWAP3 DUP4 MSTORE SWAP1 ISZERO ISZERO PUSH1 0x20 DUP4 ADD MSTORE ADD PUSH2 0x19D JUMP JUMPDEST CALLVALUE DUP1 ISZERO PUSH2 0x36F JUMPI PUSH0 DUP1 REVERT JUMPDEST POP PUSH1 0x5 SLOAD PUSH2 0x384 SWAP1 PUSH1 0x1 PUSH1 0xB0 SHL SWAP1 DIV PUSH1 0xFF AND DUP2 JUMP JUMPDEST PUSH1 0x40 MLOAD PUSH2 0x19D SWAP2 SWAP1 PUSH2 0x175C JUMP JUMPDEST CALLVALUE DUP1 ISZERO PUSH2 0x39C JUMPI PUSH0 DUP1 REVERT JUMPDEST POP PUSH2 0x219 PUSH1 0x8 SLOAD DUP2 JUMP JUMPDEST CALLVALUE DUP1 ISZERO PUSH2 0x3B1 JUMPI PUSH0 DUP1 REVERT JUMPDEST POP PUSH2 0x1E3 PUSH2 0x3C0 CALLDATASIZE PUSH1 0x4 PUSH2 0x171F JUMP JUMPDEST PUSH2 0x108E JUMP JUMPDEST CALLVALUE DUP1 ISZERO PUSH2 0x3D0 JUMPI PUSH0 DUP1 REVERT JUMPDEST POP PUSH2 0x3D9 PUSH2 0x12A4 JUMP JUMPDEST PUSH1 0x40 MLOAD PUSH2 0x19D SWAP2 SWAP1 PUSH2 0x1770 JUMP JUMPDEST CALLVALUE DUP1 ISZERO PUSH2 0x3F1 JUMPI PUSH0 DUP1 REVERT JUMPDEST POP PUSH1 0x5 SLOAD PUSH2 0x418 SWAP1 PUSH22 0x1000000000000000000000000000000000000000000 SWAP1 DIV PUSH1 0xFF AND DUP2 JUMP JUMPDEST PUSH1 0x40 MLOAD PUSH2 0x19D SWAP2 SWAP1 PUSH2 0x17E6 JUMP JUMPDEST CALLVALUE DUP1 ISZERO PUSH2 0x430 JUMPI PUSH0 DUP1 REVERT JUMPDEST POP PUSH2 0x190 PUSH2 0x1399 JUMP JUMPDEST CALLVALUE DUP1 ISZERO PUSH2 0x444 JUMPI PUSH0 DUP1 REVERT JUMPDEST POP PUSH2 0x458 PUSH2 0x453 CALLDATASIZE PUSH1 0x4 PUSH2 0x171F JUMP JUMPDEST PUSH2 0x13A6 JUMP JUMPDEST PUSH1 0x40 MLOAD PUSH2 0x19D SWAP3 SWAP2 SWAP1 PUSH2 0x17F4 JUMP JUMPDEST CALLVALUE DUP1 ISZERO PUSH2 0x471 JUMPI PUSH0 DUP1 REVERT JUMPDEST POP PUSH2 0x219 PUSH2 0x480 CALLDATASIZE PUSH1 0x4 PUSH2 0x1736 JUMP JUMPDEST PUSH1 0x1 PUSH1 0x1 PUSH1 0xA0 SHL SUB AND PUSH0 SWAP1 DUP2 MSTORE PUSH1 0x7 PUSH1 0x20 MSTORE PUSH1 0x40 SWAP1 KECCAK256 SLOAD SWAP1 JUMP JUMPDEST PUSH0 DUP1 SLOAD PUSH2 0x4A6 SWAP1 PUSH2 0x1815 JUMP JUMPDEST DUP1 PUSH1 0x1F ADD PUSH1 0x20 DUP1 SWAP2 DIV MUL PUSH1 0x20 ADD PUSH1 0x40 MLOAD SWAP1 DUP2 ADD PUSH1 0x40 MSTORE DUP1 SWAP3 SWAP2 SWAP1 DUP2 DUP2 MSTORE PUSH1 0x20 ADD DUP3 DUP1 SLOAD PUSH2 0x4D2 SWAP1 PUSH2 0x1815 JUMP JUMPDEST DUP1 ISZERO PUSH2 0x51D JUMPI DUP1 PUSH1 0x1F LT PUSH2 0x4F4 JUMPI PUSH2 0x100 DUP1 DUP4 SLOAD DIV MUL DUP4 MSTORE SWAP2 PUSH1 0x20 ADD SWAP2 PUSH2 0x51D JUMP JUMPDEST DUP3 ADD SWAP2 SWAP1 PUSH0 MSTORE PUSH1 0x20 PUSH0 KECCAK256 SWAP1 JUMPDEST DUP2 SLOAD DUP2 MSTORE SWAP1 PUSH1 0x1 ADD SWAP1 PUSH1 0x20 ADD DUP1 DUP4 GT PUSH2 0x500 JUMPI DUP3 SWAP1 SUB PUSH1 0x1F AND DUP3 ADD SWAP2 JUMPDEST POP POP POP POP POP DUP2 JUMP JUMPDEST PUSH1 0x60 DUP1 PUSH1 0x60 PUSH0 DUP1 PUSH0 DUP1 PUSH0 DUP1 PUSH0 PUSH1 0x1 PUSH1 0x2 PUSH1 0x3 SLOAD PUSH1 0x4 SLOAD PUSH1 0x5 PUSH0 SWAP1 SLOAD SWAP1 PUSH2 0x100 EXP SWAP1 DIV PUSH1 0x1 PUSH1 0x1 PUSH1 0xA0 SHL SUB AND PUSH1 0x5 PUSH1 0x16 SWAP1 SLOAD SWAP1 PUSH2 0x100 EXP SWAP1 DIV PUSH1 0xFF AND PUSH1 0x5 PUSH1 0x15 SWAP1 SLOAD SWAP1 PUSH2 0x100 EXP SWAP1 DIV PUSH1 0xFF AND PUSH1 0x8 SLOAD DUP9 DUP1 SLOAD PUSH2 0x57F SWAP1 PUSH2 0x1815 JUMP JUMPDEST DUP1 PUSH1 0x1F ADD PUSH1 0x20 DUP1 SWAP2 DIV MUL PUSH1 0x20 ADD PUSH1 0x40 MLOAD SWAP1 DUP2 ADD PUSH1 0x40 MSTORE DUP1 SWAP3 SWAP2 SWAP1 DUP2 DUP2 MSTORE PUSH1 0x20 ADD DUP3 DUP1 SLOAD PUSH2 0x5AB SWAP1 PUSH2 0x1815 JUMP JUMPDEST DUP1 ISZERO PUSH2 0x5F6 JUMPI DUP1 PUSH1 0x1F LT PUSH2 0x5CD JUMPI PUSH2 0x100 DUP1 DUP4 SLOAD DIV MUL DUP4 MSTORE SWAP2 PUSH1 0x20 ADD SWAP2 PUSH2 0x5F6 JUMP JUMPDEST DUP3 ADD SWAP2 SWAP1 PUSH0 MSTORE PUSH1 0x20 PUSH0 KECCAK256 SWAP1 JUMPDEST DUP2 SLOAD DUP2 MSTORE SWAP1 PUSH1 0x1 ADD SWAP1 PUSH1 0x20 ADD DUP1 DUP4 GT PUSH2 0x5D9 JUMPI DUP3 SWAP1 SUB PUSH1 0x1F AND DUP3 ADD SWAP2 JUMPDEST POP POP POP POP POP SWAP9 POP DUP8 DUP1 SLOAD PUSH2 0x609 SWAP1 PUSH2 0x1815 JUMP JUMPDEST DUP1 PUSH1 0x1F ADD PUSH1 0x20 DUP1 SWAP2 DIV MUL PUSH1 0x20 ADD PUSH1 0x40 MLOAD SWAP1 DUP2 ADD PUSH1 0x40 MSTORE DUP1 SWAP3 SWAP2 SWAP1 DUP2 DUP2 MSTORE PUSH1 0x20 ADD DUP3 DUP1 SLOAD PUSH2 0x635 SWAP1 PUSH2 0x1815 JUMP JUMPDEST DUP1 ISZERO PUSH2 0x680 JUMPI DUP1 PUSH1 0x1F LT PUSH2 0x657 JUMPI PUSH2 0x100 DUP1 DUP4 SLOAD DIV MUL DUP4 MSTORE SWAP2 PUSH1 0x20 ADD SWAP2 PUSH2 0x680 JUMP JUMPDEST DUP3 ADD SWAP2 SWAP1 PUSH0 MSTORE PUSH1 0x20 PUSH0 KECCAK256 SWAP1 JUMPDEST DUP2 SLOAD DUP2 MSTORE SWAP1 PUSH1 0x1 ADD SWAP1 PUSH1 0x20 ADD DUP1 DUP4 GT PUSH2 0x663 JUMPI DUP3 SWAP1 SUB PUSH1 0x1F AND DUP3 ADD SWAP2 JUMPDEST POP POP POP POP POP SWAP8 POP DUP7 DUP1 SLOAD PUSH2 0x693 SWAP1 PUSH2 0x1815 JUMP JUMPDEST DUP1 PUSH1 0x1F ADD PUSH1 0x20 DUP1 SWAP2 DIV MUL PUSH1 0x20 ADD PUSH1 0x40 MLOAD SWAP1 DUP2 ADD PUSH1 0x40 MSTORE DUP1 SWAP3 SWAP2 SWAP1 DUP2 DUP2 MSTORE PUSH1 0x20 ADD DUP3 DUP1 SLOAD PUSH2 0x6BF SWAP1 PUSH2 0x1815 JUMP JUMPDEST DUP1 ISZERO PUSH2 0x70A JUMPI DUP1 PUSH1 0x1F LT PUSH2 0x6E1 JUMPI PUSH2 0x100 DUP1 DUP4 SLOAD DIV MUL DUP4 MSTORE SWAP2 PUSH1 0x20 ADD SWAP2 PUSH2 0x70A JUMP JUMPDEST DUP3 ADD SWAP2 SWAP1 PUSH0 MSTORE PUSH1 0x20 PUSH0 KECCAK256 SWAP1 JUMPDEST DUP2 SLOAD DUP2 MSTORE SWAP1 PUSH1 0x1 ADD SWAP1 PUSH1 0x20 ADD DUP1 DUP4 GT PUSH2 0x6ED JUMPI DUP3 SWAP1 SUB PUSH1 0x1F AND DUP3 ADD SWAP2 JUMPDEST POP POP POP POP POP SWAP7 POP SWAP9 POP SWAP9 POP SWAP9 POP SWAP9 POP SWAP9 POP SWAP9 POP SWAP9 POP SWAP9 POP SWAP9 POP SWAP1 SWAP2 SWAP3 SWAP4 SWAP5 SWAP6 SWAP7 SWAP8 SWAP9 JUMP JUMPDEST PUSH1 0x5 SLOAD PUSH1 0x1 PUSH1 0x1 PUSH1 0xA0 SHL SUB AND CALLER EQ PUSH2 0x77D JUMPI PUSH1 0x40 MLOAD PUSH3 0x461BCD PUSH1 0xE5 SHL DUP2 MSTORE PUSH1 0x20 PUSH1 0x4 DUP3 ADD MSTORE PUSH1 0xD PUSH1 0x24 DUP3 ADD MSTORE PUSH13 0x2737BA103A34329037BBB732B9 PUSH1 0x99 SHL PUSH1 0x44 DUP3 ADD MSTORE PUSH1 0x64 ADD JUMPDEST PUSH1 0x40 MLOAD DUP1 SWAP2 SUB SWAP1 REVERT JUMPDEST PUSH0 PUSH1 0x5 SLOAD PUSH1 0x1 PUSH1 0xB0 SHL SWAP1 DIV PUSH1 0xFF AND PUSH1 0x2 DUP2 GT ISZERO PUSH2 0x79C JUMPI PUSH2 0x79C PUSH2 0x159C JUMP JUMPDEST EQ PUSH2 0x7E2 JUMPI PUSH1 0x40 MLOAD PUSH3 0x461BCD PUSH1 0xE5 SHL DUP2 MSTORE PUSH1 0x20 PUSH1 0x4 DUP3 ADD MSTORE PUSH1 0x16 PUSH1 0x24 DUP3 ADD MSTORE PUSH22 0x43616D706169676E206973206E6F7420616374697665 PUSH1 0x50 SHL PUSH1 0x44 DUP3 ADD MSTORE PUSH1 0x64 ADD PUSH2 0x774 JUMP JUMPDEST PUSH0 PUSH1 0x3 SLOAD PUSH1 0x8 SLOAD LT PUSH2 0x7F6 JUMPI POP PUSH1 0x1 PUSH2 0x7FA JUMP JUMPDEST POP PUSH1 0x2 JUMPDEST PUSH1 0x5 DUP1 SLOAD DUP3 SWAP2 SWAP1 PUSH1 0xFF PUSH1 0xB0 SHL NOT AND PUSH1 0x1 PUSH1 0xB0 SHL DUP4 PUSH1 0x2 DUP2 GT ISZERO PUSH2 0x81F JUMPI PUSH2 0x81F PUSH2 0x159C JUMP JUMPDEST MUL OR SWAP1 SSTORE POP PUSH32 0x13B412722DA5CDA189ED162D85E2AF22617754F62AB390934BB3153B3E05470E DUP2 PUSH1 0x40 MLOAD PUSH2 0x853 SWAP2 SWAP1 PUSH2 0x175C JUMP JUMPDEST PUSH1 0x40 MLOAD DUP1 SWAP2 SUB SWAP1 LOG1 POP JUMP JUMPDEST PUSH1 0x5 SLOAD PUSH1 0x1 PUSH1 0x1 PUSH1 0xA0 SHL SUB AND CALLER EQ PUSH2 0x8A8 JUMPI PUSH1 0x40 MLOAD PUSH3 0x461BCD PUSH1 0xE5 SHL DUP2 MSTORE PUSH1 0x20 PUSH1 0x4 DUP3 ADD MSTORE PUSH1 0xD PUSH1 0x24 DUP3 ADD MSTORE PUSH13 0x2737BA103A34329037BBB732B9 PUSH1 0x99 SHL PUSH1 0x44 DUP3 ADD MSTORE PUSH1 0x64 ADD PUSH2 0x774 JUMP JUMPDEST PUSH0 PUSH1 0x5 SLOAD PUSH1 0x1 PUSH1 0xB0 SHL SWAP1 DIV PUSH1 0xFF AND PUSH1 0x2 DUP2 GT ISZERO PUSH2 0x8C7 JUMPI PUSH2 0x8C7 PUSH2 0x159C JUMP JUMPDEST EQ PUSH2 0x90D JUMPI PUSH1 0x40 MLOAD PUSH3 0x461BCD PUSH1 0xE5 SHL DUP2 MSTORE PUSH1 0x20 PUSH1 0x4 DUP3 ADD MSTORE PUSH1 0x16 PUSH1 0x24 DUP3 ADD MSTORE PUSH22 0x43616D706169676E206973206E6F7420616374697665 PUSH1 0x50 SHL PUSH1 0x44 DUP3 ADD MSTORE PUSH1 0x64 ADD PUSH2 0x774 JUMP JUMPDEST PUSH1 0x40 DUP1 MLOAD DUP1 DUP3 ADD SWAP1 SWAP2 MSTORE DUP3 DUP2 MSTORE PUSH1 0x20 DUP2 ADD DUP3 SWAP1 MSTORE PUSH1 0x6 DUP1 SLOAD PUSH1 0x1 DUP2 ADD DUP3 SSTORE PUSH0 SWAP2 SWAP1 SWAP2 MSTORE DUP2 MLOAD PUSH1 0x2 SWAP1 SWAP2 MUL PUSH32 0xF652222313E28459528D920B65115C16C04F3EFC82AAEDC97BE59F3F377C0D3F ADD SWAP1 DUP2 SWAP1 PUSH2 0x966 SWAP1 DUP3 PUSH2 0x1899 JUMP JUMPDEST POP PUSH1 0x20 DUP3 ADD MLOAD DUP2 PUSH1 0x1 ADD SSTORE POP POP POP POP JUMP JUMPDEST PUSH1 0x5 SLOAD PUSH1 0x1 PUSH1 0x1 PUSH1 0xA0 SHL SUB AND CALLER EQ PUSH2 0x9C1 JUMPI PUSH1 0x40 MLOAD PUSH3 0x461BCD PUSH1 0xE5 SHL DUP2 MSTORE PUSH1 0x20 PUSH1 0x4 DUP3 ADD MSTORE PUSH1 0xD PUSH1 0x24 DUP3 ADD MSTORE PUSH13 0x2737BA103A34329037BBB732B9 PUSH1 0x99 SHL PUSH1 0x44 DUP3 ADD MSTORE PUSH1 0x64 ADD PUSH2 0x774 JUMP JUMPDEST PUSH0 PUSH1 0x5 SLOAD PUSH1 0x1 PUSH1 0xB0 SHL SWAP1 DIV PUSH1 0xFF AND PUSH1 0x2 DUP2 GT ISZERO PUSH2 0x9E0 JUMPI PUSH2 0x9E0 PUSH2 0x159C JUMP JUMPDEST EQ PUSH2 0xA26 JUMPI PUSH1 0x40 MLOAD PUSH3 0x461BCD PUSH1 0xE5 SHL DUP2 MSTORE PUSH1 0x20 PUSH1 0x4 DUP3 ADD MSTORE PUSH1 0x16 PUSH1 0x24 DUP3 ADD MSTORE PUSH22 0x43616D706169676E206973206E6F7420616374697665 PUSH1 0x50 SHL PUSH1 0x44 DUP3 ADD MSTORE PUSH1 0x64 ADD PUSH2 0x774 JUMP JUMPDEST PUSH2 0xA33 DUP2 PUSH3 0x15180 PUSH2 0x196D JUMP JUMPDEST PUSH1 0x4 PUSH0 DUP3 DUP3 SLOAD PUSH2 0xA43 SWAP2 SWAP1 PUSH2 0x1984 JUMP JUMPDEST SWAP1 SWAP2 SSTORE POP POP POP JUMP JUMPDEST PUSH1 0x5 SLOAD PUSH1 0x1 PUSH1 0x1 PUSH1 0xA0 SHL SUB AND CALLER EQ PUSH2 0xA95 JUMPI PUSH1 0x40 MLOAD PUSH3 0x461BCD PUSH1 0xE5 SHL DUP2 MSTORE PUSH1 0x20 PUSH1 0x4 DUP3 ADD MSTORE PUSH1 0xD PUSH1 0x24 DUP3 ADD MSTORE PUSH13 0x2737BA103A34329037BBB732B9 PUSH1 0x99 SHL PUSH1 0x44 DUP3 ADD MSTORE PUSH1 0x64 ADD PUSH2 0x774 JUMP JUMPDEST PUSH2 0xA9D PUSH2 0x145B JUMP JUMPDEST PUSH1 0x1 PUSH1 0x5 SLOAD PUSH1 0x1 PUSH1 0xB0 SHL SWAP1 DIV PUSH1 0xFF AND PUSH1 0x2 DUP2 GT ISZERO PUSH2 0xABD JUMPI PUSH2 0xABD PUSH2 0x159C JUMP JUMPDEST EQ PUSH2 0xB0A JUMPI PUSH1 0x40 MLOAD PUSH3 0x461BCD PUSH1 0xE5 SHL DUP2 MSTORE PUSH1 0x20 PUSH1 0x4 DUP3 ADD MSTORE PUSH1 0x17 PUSH1 0x24 DUP3 ADD MSTORE PUSH32 0x43616D706169676E206E6F74207375636365737366756C000000000000000000 PUSH1 0x44 DUP3 ADD MSTORE PUSH1 0x64 ADD PUSH2 0x774 JUMP JUMPDEST SELFBALANCE DUP1 PUSH2 0xB58 JUMPI PUSH1 0x40 MLOAD PUSH3 0x461BCD PUSH1 0xE5 SHL DUP2 MSTORE PUSH1 0x20 PUSH1 0x4 DUP3 ADD MSTORE PUSH1 0x16 PUSH1 0x24 DUP3 ADD MSTORE PUSH32 0x4E6F2062616C616E636520746F20776974686472617700000000000000000000 PUSH1 0x44 DUP3 ADD MSTORE PUSH1 0x64 ADD PUSH2 0x774 JUMP JUMPDEST PUSH1 0x5 SLOAD PUSH1 0x40 MLOAD PUSH0 SWAP2 PUSH1 0x1 PUSH1 0x1 PUSH1 0xA0 SHL SUB AND SWAP1 DUP4 SWAP1 DUP4 DUP2 DUP2 DUP2 DUP6 DUP8 GAS CALL SWAP3 POP POP POP RETURNDATASIZE DUP1 PUSH0 DUP2 EQ PUSH2 0xBA2 JUMPI PUSH1 0x40 MLOAD SWAP2 POP PUSH1 0x1F NOT PUSH1 0x3F RETURNDATASIZE ADD AND DUP3 ADD PUSH1 0x40 MSTORE RETURNDATASIZE DUP3 MSTORE RETURNDATASIZE PUSH0 PUSH1 0x20 DUP5 ADD RETURNDATACOPY PUSH2 0xBA7 JUMP JUMPDEST PUSH1 0x60 SWAP2 POP JUMPDEST POP POP SWAP1 POP DUP1 PUSH2 0xBF8 JUMPI PUSH1 0x40 MLOAD PUSH3 0x461BCD PUSH1 0xE5 SHL DUP2 MSTORE PUSH1 0x20 PUSH1 0x4 DUP3 ADD MSTORE PUSH1 0x18 PUSH1 0x24 DUP3 ADD MSTORE PUSH32 0x4661696C656420746F2077697468647261772066756E64730000000000000000 PUSH1 0x44 DUP3 ADD MSTORE PUSH1 0x64 ADD PUSH2 0x774 JUMP JUMPDEST PUSH1 0x5 SLOAD PUSH1 0x40 MLOAD DUP4 DUP2 MSTORE PUSH1 0x1 PUSH1 0x1 PUSH1 0xA0 SHL SUB SWAP1 SWAP2 AND SWAP1 PUSH32 0x7FCF532C15F0A6DB0BD6D0E038BEA71D30D808C7D98CB3BF7268A95BF5081B65 SWAP1 PUSH1 0x20 ADD JUMPDEST PUSH1 0x40 MLOAD DUP1 SWAP2 SUB SWAP1 LOG2 POP POP JUMP JUMPDEST PUSH2 0xC47 PUSH2 0x145B JUMP JUMPDEST PUSH1 0x2 PUSH1 0x5 SLOAD PUSH1 0x1 PUSH1 0xB0 SHL SWAP1 DIV PUSH1 0xFF AND PUSH1 0x2 DUP2 GT ISZERO PUSH2 0xC67 JUMPI PUSH2 0xC67 PUSH2 0x159C JUMP JUMPDEST EQ PUSH2 0xCB4 JUMPI PUSH1 0x40 MLOAD PUSH3 0x461BCD PUSH1 0xE5 SHL DUP2 MSTORE PUSH1 0x20 PUSH1 0x4 DUP3 ADD MSTORE PUSH1 0x15 PUSH1 0x24 DUP3 ADD MSTORE PUSH32 0x526566756E6473206E6F7420617661696C61626C650000000000000000000000 PUSH1 0x44 DUP3 ADD MSTORE PUSH1 0x64 ADD PUSH2 0x774 JUMP JUMPDEST CALLER PUSH0 SWAP1 DUP2 MSTORE PUSH1 0x7 PUSH1 0x20 MSTORE PUSH1 0x40 SWAP1 KECCAK256 SLOAD DUP1 PUSH2 0xD10 JUMPI PUSH1 0x40 MLOAD PUSH3 0x461BCD PUSH1 0xE5 SHL DUP2 MSTORE PUSH1 0x20 PUSH1 0x4 DUP3 ADD MSTORE PUSH1 0x19 PUSH1 0x24 DUP3 ADD MSTORE PUSH32 0x4E6F20636F6E747269627574696F6E20746F20726566756E6400000000000000 PUSH1 0x44 DUP3 ADD MSTORE PUSH1 0x64 ADD PUSH2 0x774 JUMP JUMPDEST CALLER PUSH0 SWAP1 DUP2 MSTORE PUSH1 0x7 PUSH1 0x20 MSTORE PUSH1 0x40 SWAP1 KECCAK256 PUSH1 0x1 ADD SLOAD PUSH1 0xFF AND ISZERO PUSH2 0xD72 JUMPI PUSH1 0x40 MLOAD PUSH3 0x461BCD PUSH1 0xE5 SHL DUP2 MSTORE PUSH1 0x20 PUSH1 0x4 DUP3 ADD MSTORE PUSH1 0x16 PUSH1 0x24 DUP3 ADD MSTORE PUSH32 0x526566756E6420616C726561647920636C61696D656400000000000000000000 PUSH1 0x44 DUP3 ADD MSTORE PUSH1 0x64 ADD PUSH2 0x774 JUMP JUMPDEST CALLER PUSH0 DUP2 DUP2 MSTORE PUSH1 0x7 PUSH1 0x20 MSTORE PUSH1 0x40 DUP1 DUP3 KECCAK256 PUSH1 0x1 SWAP1 DUP2 ADD DUP1 SLOAD PUSH1 0xFF NOT AND SWAP1 SWAP2 OR SWAP1 SSTORE MLOAD SWAP1 SWAP2 SWAP1 DUP4 SWAP1 DUP4 DUP2 DUP2 DUP2 DUP6 DUP8 GAS CALL SWAP3 POP POP POP RETURNDATASIZE DUP1 PUSH0 DUP2 EQ PUSH2 0xDCD JUMPI PUSH1 0x40 MLOAD SWAP2 POP PUSH1 0x1F NOT PUSH1 0x3F RETURNDATASIZE ADD AND DUP3 ADD PUSH1 0x40 MSTORE RETURNDATASIZE DUP3 MSTORE RETURNDATASIZE PUSH0 PUSH1 0x20 DUP5 ADD RETURNDATACOPY PUSH2 0xDD2 JUMP JUMPDEST PUSH1 0x60 SWAP2 POP JUMPDEST POP POP SWAP1 POP DUP1 PUSH2 0xE23 JUMPI PUSH1 0x40 MLOAD PUSH3 0x461BCD PUSH1 0xE5 SHL DUP2 MSTORE PUSH1 0x20 PUSH1 0x4 DUP3 ADD MSTORE PUSH1 0x10 PUSH1 0x24 DUP3 ADD MSTORE PUSH32 0x4661696C656420746F20726566756E6400000000000000000000000000000000 PUSH1 0x44 DUP3 ADD MSTORE PUSH1 0x64 ADD PUSH2 0x774 JUMP JUMPDEST PUSH1 0x40 MLOAD DUP3 DUP2 MSTORE CALLER SWAP1 PUSH32 0xD7DEE2702D63AD89917B6A4DA9981C90C4D24F8C2BDFD64C604ECAE57D8D0651 SWAP1 PUSH1 0x20 ADD PUSH2 0xC33 JUMP JUMPDEST PUSH1 0x5 SLOAD PUSH1 0x1 PUSH1 0x1 PUSH1 0xA0 SHL SUB AND CALLER EQ PUSH2 0xE9F JUMPI PUSH1 0x40 MLOAD PUSH3 0x461BCD PUSH1 0xE5 SHL DUP2 MSTORE PUSH1 0x20 PUSH1 0x4 DUP3 ADD MSTORE PUSH1 0xD PUSH1 0x24 DUP3 ADD MSTORE PUSH13 0x2737BA103A34329037BBB732B9 PUSH1 0x99 SHL PUSH1 0x44 DUP3 ADD MSTORE PUSH1 0x64 ADD PUSH2 0x774 JUMP JUMPDEST PUSH1 0x5 DUP1 SLOAD PUSH32 0xFFFFFFFFFFFFFFFFFFFFFF00FFFFFFFFFFFFFFFFFFFFFFFFFFFFFFFFFFFFFFFF DUP2 AND PUSH1 0x1 PUSH1 0xA0 SHL SWAP2 DUP3 SWAP1 DIV PUSH1 0xFF AND ISZERO SWAP1 SWAP2 MUL OR SWAP1 SSTORE JUMP JUMPDEST PUSH1 0x1 DUP1 SLOAD PUSH2 0x4A6 SWAP1 PUSH2 0x1815 JUMP JUMPDEST PUSH0 PUSH1 0x5 SLOAD PUSH1 0x1 PUSH1 0xB0 SHL SWAP1 DIV PUSH1 0xFF AND PUSH1 0x2 DUP2 GT ISZERO PUSH2 0xF07 JUMPI PUSH2 0xF07 PUSH2 0x159C JUMP JUMPDEST EQ PUSH2 0xF4D JUMPI PUSH1 0x40 MLOAD PUSH3 0x461BCD PUSH1 0xE5 SHL DUP2 MSTORE PUSH1 0x20 PUSH1 0x4 DUP3 ADD MSTORE PUSH1 0x16 PUSH1 0x24 DUP3 ADD MSTORE PUSH22 0x43616D706169676E206973206E6F7420616374697665 PUSH1 0x50 SHL PUSH1 0x44 DUP3 ADD MSTORE PUSH1 0x64 ADD PUSH2 0x774 JUMP JUMPDEST PUSH1 0x5 SLOAD PUSH1 0x1 PUSH1 0xA0 SHL SWAP1 DIV PUSH1 0xFF AND ISZERO PUSH2 0xFA7 JUMPI PUSH1 0x40 MLOAD PUSH3 0x461BCD PUSH1 0xE5 SHL DUP2 MSTORE PUSH1 0x20 PUSH1 0x4 DUP3 ADD MSTORE PUSH1 0x12 PUSH1 0x24 DUP3 ADD MSTORE PUSH32 0x436F6E7472616374206973207061757365640000000000000000000000000000 PUSH1 0x44 DUP3 ADD MSTORE PUSH1 0x64 ADD PUSH2 0x774 JUMP JUMPDEST PUSH0 CALLVALUE GT PUSH2 0x1002 JUMPI PUSH1 0x40 MLOAD PUSH3 0x461BCD PUSH1 0xE5 SHL DUP2 MSTORE PUSH1 0x20 PUSH1 0x4 DUP3 ADD MSTORE PUSH1 0x23 PUSH1 0x24 DUP3 ADD MSTORE PUSH32 0x436F6E747269627574696F6E206D757374206265206772656174657220746861 PUSH1 0x44 DUP3 ADD MSTORE PUSH3 0x6E203 PUSH1 0xEC SHL PUSH1 0x64 DUP3 ADD MSTORE PUSH1 0x84 ADD PUSH2 0x774 JUMP JUMPDEST CALLER PUSH0 SWAP1 DUP2 MSTORE PUSH1 0x7 PUSH1 0x20 MSTORE PUSH1 0x40 DUP2 KECCAK256 DUP1 SLOAD CALLVALUE SWAP3 SWAP1 PUSH2 0x1020 SWAP1 DUP5 SWAP1 PUSH2 0x1984 JUMP JUMPDEST SWAP3 POP POP DUP2 SWAP1 SSTORE POP CALLVALUE PUSH1 0x8 PUSH0 DUP3 DUP3 SLOAD PUSH2 0x1038 SWAP2 SWAP1 PUSH2 0x1984 JUMP JUMPDEST SWAP1 SWAP2 SSTORE POP POP CALLER PUSH0 DUP2 DUP2 MSTORE PUSH1 0x7 PUSH1 0x20 SWAP1 DUP2 MSTORE PUSH1 0x40 SWAP2 DUP3 SWAP1 KECCAK256 SLOAD DUP3 MLOAD CALLVALUE DUP2 MSTORE SWAP2 DUP3 ADD MSTORE PUSH32 0xCD909EC339185C4598A4096E174308FBDF136D117F230960F873A2F2E81F63AF SWAP2 ADD PUSH1 0x40 MLOAD DUP1 SWAP2 SUB SWAP1 LOG2 PUSH2 0x108C PUSH2 0x145B JUMP JUMPDEST JUMP JUMPDEST PUSH1 0x5 SLOAD PUSH1 0x1 PUSH1 0x1 PUSH1 0xA0 SHL SUB AND CALLER EQ PUSH2 0x10D8 JUMPI PUSH1 0x40 MLOAD PUSH3 0x461BCD PUSH1 0xE5 SHL DUP2 MSTORE PUSH1 0x20 PUSH1 0x4 DUP3 ADD MSTORE PUSH1 0xD PUSH1 0x24 DUP3 ADD MSTORE PUSH13 0x2737BA103A34329037BBB732B9 PUSH1 0x99 SHL PUSH1 0x44 DUP3 ADD MSTORE PUSH1 0x64 ADD PUSH2 0x774 JUMP JUMPDEST PUSH0 PUSH1 0x5 SLOAD PUSH1 0x1 PUSH1 0xB0 SHL SWAP1 DIV PUSH1 0xFF AND PUSH1 0x2 DUP2 GT ISZERO PUSH2 0x10F7 JUMPI PUSH2 0x10F7 PUSH2 0x159C JUMP JUMPDEST EQ PUSH2 0x113D JUMPI PUSH1 0x40 MLOAD PUSH3 0x461BCD PUSH1 0xE5 SHL DUP2 MSTORE PUSH1 0x20 PUSH1 0x4 DUP3 ADD MSTORE PUSH1 0x16 PUSH1 0x24 DUP3 ADD MSTORE PUSH22 0x43616D706169676E206973206E6F7420616374697665 PUSH1 0x50 SHL PUSH1 0x44 DUP3 ADD MSTORE PUSH1 0x64 ADD PUSH2 0x774 JUMP JUMPDEST PUSH1 0x6 SLOAD DUP2 LT PUSH2 0x118E JUMPI PUSH1 0x40 MLOAD PUSH3 0x461BCD PUSH1 0xE5 SHL DUP2 MSTORE PUSH1 0x20 PUSH1 0x4 DUP3 ADD MSTORE PUSH1 0x12 PUSH1 0x24 DUP3 ADD MSTORE PUSH32 0x496E76616C6964207469657220696E6465780000000000000000000000000000 PUSH1 0x44 DUP3 ADD MSTORE PUSH1 0x64 ADD PUSH2 0x774 JUMP JUMPDEST PUSH1 0x8 SLOAD ISZERO PUSH2 0x1204 JUMPI PUSH1 0x40 MLOAD PUSH3 0x461BCD PUSH1 0xE5 SHL DUP2 MSTORE PUSH1 0x20 PUSH1 0x4 DUP3 ADD MSTORE PUSH1 0x2D PUSH1 0x24 DUP3 ADD MSTORE PUSH32 0x43616E6E6F742072656D6F76652074696572732061667465722066756E64696E PUSH1 0x44 DUP3 ADD MSTORE PUSH32 0x6720686173207374617274656400000000000000000000000000000000000000 PUSH1 0x64 DUP3 ADD MSTORE PUSH1 0x84 ADD PUSH2 0x774 JUMP JUMPDEST PUSH1 0x6 DUP1 SLOAD PUSH2 0x1214 SWAP1 PUSH1 0x1 SWAP1 PUSH2 0x1997 JUMP JUMPDEST DUP2 SLOAD DUP2 LT PUSH2 0x1224 JUMPI PUSH2 0x1224 PUSH2 0x19AA JUMP JUMPDEST SWAP1 PUSH0 MSTORE PUSH1 0x20 PUSH0 KECCAK256 SWAP1 PUSH1 0x2 MUL ADD PUSH1 0x6 DUP3 DUP2 SLOAD DUP2 LT PUSH2 0x1243 JUMPI PUSH2 0x1243 PUSH2 0x19AA JUMP JUMPDEST PUSH0 SWAP2 DUP3 MSTORE PUSH1 0x20 SWAP1 SWAP2 KECCAK256 PUSH1 0x2 SWAP1 SWAP2 MUL ADD DUP1 PUSH2 0x125D DUP4 DUP3 PUSH2 0x19BE JUMP JUMPDEST POP PUSH1 0x1 SWAP2 DUP3 ADD SLOAD SWAP2 ADD SSTORE PUSH1 0x6 DUP1 SLOAD DUP1 PUSH2 0x1278 JUMPI PUSH2 0x1278 PUSH2 0x1A8D JUMP JUMPDEST PUSH0 DUP3 DUP2 MSTORE PUSH1 0x20 DUP2 KECCAK256 PUSH0 NOT SWAP1 SWAP3 ADD SWAP2 PUSH1 0x2 DUP4 MUL ADD SWAP1 PUSH2 0x1296 DUP3 DUP3 PUSH2 0x150B JUMP JUMPDEST PUSH1 0x1 DUP3 ADD PUSH0 SWAP1 SSTORE POP POP SWAP1 SSTORE POP JUMP JUMPDEST PUSH1 0x60 PUSH1 0x6 DUP1 SLOAD DUP1 PUSH1 0x20 MUL PUSH1 0x20 ADD PUSH1 0x40 MLOAD SWAP1 DUP2 ADD PUSH1 0x40 MSTORE DUP1 SWAP3 SWAP2 SWAP1 DUP2 DUP2 MSTORE PUSH1 0x20 ADD PUSH0 SWAP1 JUMPDEST DUP3 DUP3 LT ISZERO PUSH2 0x1390 JUMPI DUP4 DUP3 SWAP1 PUSH0 MSTORE PUSH1 0x20 PUSH0 KECCAK256 SWAP1 PUSH1 0x2 MUL ADD PUSH1 0x40 MLOAD DUP1 PUSH1 0x40 ADD PUSH1 0x40 MSTORE SWAP1 DUP2 PUSH0 DUP3 ADD DUP1 SLOAD PUSH2 0x12F7 SWAP1 PUSH2 0x1815 JUMP JUMPDEST DUP1 PUSH1 0x1F ADD PUSH1 0x20 DUP1 SWAP2 DIV MUL PUSH1 0x20 ADD PUSH1 0x40 MLOAD SWAP1 DUP2 ADD PUSH1 0x40 MSTORE DUP1 SWAP3 SWAP2 SWAP1 DUP2 DUP2 MSTORE PUSH1 0x20 ADD DUP3 DUP1 SLOAD PUSH2 0x1323 SWAP1 PUSH2 0x1815 JUMP JUMPDEST DUP1 ISZERO PUSH2 0x136E JUMPI DUP1 PUSH1 0x1F LT PUSH2 0x1345 JUMPI PUSH2 0x100 DUP1 DUP4 SLOAD DIV MUL DUP4 MSTORE SWAP2 PUSH1 0x20 ADD SWAP2 PUSH2 0x136E JUMP JUMPDEST DUP3 ADD SWAP2 SWAP1 PUSH0 MSTORE PUSH1 0x20 PUSH0 KECCAK256 SWAP1 JUMPDEST DUP2 SLOAD DUP2 MSTORE SWAP1 PUSH1 0x1 ADD SWAP1 PUSH1 0x20 ADD DUP1 DUP4 GT PUSH2 0x1351 JUMPI DUP3 SWAP1 SUB PUSH1 0x1F AND DUP3 ADD SWAP2 JUMPDEST POP POP POP POP POP DUP2 MSTORE PUSH1 0x20 ADD PUSH1 0x1 DUP3 ADD SLOAD DUP2 MSTORE POP POP DUP2 MSTORE PUSH1 0x20 ADD SWAP1 PUSH1 0x1 ADD SWAP1 PUSH2 0x12C7 JUMP JUMPDEST POP POP POP POP SWAP1 POP SWAP1 JUMP JUMPDEST PUSH1 0x2 DUP1 SLOAD PUSH2 0x4A6 SWAP1 PUSH2 0x1815 JUMP JUMPDEST PUSH1 0x6 DUP2 DUP2 SLOAD DUP2 LT PUSH2 0x13B5 JUMPI PUSH0 DUP1 REVERT JUMPDEST SWAP1 PUSH0 MSTORE PUSH1 0x20 PUSH0 KECCAK256 SWAP1 PUSH1 0x2 MUL ADD PUSH0 SWAP2 POP SWAP1 POP DUP1 PUSH0 ADD DUP1 SLOAD PUSH2 0x13D4 SWAP1 PUSH2 0x1815 JUMP JUMPDEST DUP1 PUSH1 0x1F ADD PUSH1 0x20 DUP1 SWAP2 DIV MUL PUSH1 0x20 ADD PUSH1 0x40 MLOAD SWAP1 DUP2 ADD PUSH1 0x40 MSTORE DUP1 SWAP3 SWAP2 SWAP1 DUP2 DUP2 MSTORE PUSH1 0x20 ADD DUP3 DUP1 SLOAD PUSH2 0x1400 SWAP1 PUSH2 0x1815 JUMP JUMPDEST DUP1 ISZERO PUSH2 0x144B JUMPI DUP1 PUSH1 0x1F LT PUSH2 0x1422 JUMPI PUSH2 0x100 DUP1 DUP4 SLOAD DIV MUL DUP4 MSTORE SWAP2 PUSH1 0x20 ADD SWAP2 PUSH2 0x144B JUMP JUMPDEST DUP3 ADD SWAP2 SWAP1 PUSH0 MSTORE PUSH1 0x20 PUSH0 KECCAK256 SWAP1 JUMPDEST DUP2 SLOAD DUP2 MSTORE SWAP1 PUSH1 0x1 ADD SWAP1 PUSH1 0x20 ADD DUP1 DUP4 GT PUSH2 0x142E JUMPI DUP3 SWAP1 SUB PUSH1 0x1F AND DUP3 ADD SWAP2 JUMPDEST POP POP POP POP POP SWAP1 DUP1 PUSH1 0x1 ADD SLOAD SWAP1 POP DUP3 JUMP JUMPDEST PUSH0 PUSH1 0x5 SLOAD PUSH1 0x1 PUSH1 0xB0 SHL SWAP1 DIV PUSH1 0xFF AND PUSH1 0x2 DUP2 GT ISZERO PUSH2 0x147A JUMPI PUSH2 0x147A PUSH2 0x159C JUMP JUMPDEST SUB PUSH2 0x108C JUMPI PUSH1 0x5 SLOAD PUSH1 0x3 SLOAD PUSH1 0x8 SLOAD PUSH1 0x1 PUSH1 0xB0 SHL SWAP1 SWAP3 DIV PUSH1 0xFF AND SWAP2 LT PUSH2 0x14A1 JUMPI POP PUSH1 0x1 PUSH2 0x14AE JUMP JUMPDEST PUSH1 0x4 SLOAD TIMESTAMP LT PUSH2 0x14AE JUMPI POP PUSH1 0x2 JUMPDEST PUSH1 0x5 SLOAD PUSH1 0x1 PUSH1 0xB0 SHL SWAP1 DIV PUSH1 0xFF AND PUSH1 0x2 DUP2 GT ISZERO PUSH2 0x14CC JUMPI PUSH2 0x14CC PUSH2 0x159C JUMP JUMPDEST DUP2 PUSH1 0x2 DUP2 GT ISZERO PUSH2 0x14DE JUMPI PUSH2 0x14DE PUSH2 0x159C JUMP JUMPDEST EQ PUSH2 0x1508 JUMPI PUSH1 0x5 DUP1 SLOAD DUP3 SWAP2 SWAP1 PUSH1 0xFF PUSH1 0xB0 SHL NOT AND PUSH1 0x1 PUSH1 0xB0 SHL DUP4 PUSH1 0x2 DUP2 GT ISZERO PUSH2 0x81F JUMPI PUSH2 0x81F PUSH2 0x159C JUMP JUMPDEST POP JUMP JUMPDEST POP DUP1 SLOAD PUSH2 0x1517 SWAP1 PUSH2 0x1815 JUMP JUMPDEST PUSH0 DUP3 SSTORE DUP1 PUSH1 0x1F LT PUSH2 0x1526 JUMPI POP POP JUMP JUMPDEST PUSH1 0x1F ADD PUSH1 0x20 SWAP1 DIV SWAP1 PUSH0 MSTORE PUSH1 0x20 PUSH0 KECCAK256 SWAP1 DUP2 ADD SWAP1 PUSH2 0x1508 SWAP2 SWAP1 JUMPDEST DUP1 DUP3 GT ISZERO PUSH2 0x1551 JUMPI PUSH0 DUP2 SSTORE PUSH1 0x1 ADD PUSH2 0x153E JUMP JUMPDEST POP SWAP1 JUMP JUMPDEST PUSH0 DUP2 MLOAD DUP1 DUP5 MSTORE DUP1 PUSH1 0x20 DUP5 ADD PUSH1 0x20 DUP7 ADD MCOPY PUSH0 PUSH1 0x20 DUP3 DUP7 ADD ADD MSTORE PUSH1 0x20 PUSH1 0x1F NOT PUSH1 0x1F DUP4 ADD AND DUP6 ADD ADD SWAP2 POP POP SWAP3 SWAP2 POP POP JUMP JUMPDEST PUSH1 0x20 DUP2 MSTORE PUSH0 PUSH2 0x1595 PUSH1 0x20 DUP4 ADD DUP5 PUSH2 0x1555 JUMP JUMPDEST SWAP4 SWAP3 POP POP POP JUMP JUMPDEST PUSH4 0x4E487B71 PUSH1 0xE0 SHL PUSH0 MSTORE PUSH1 0x21 PUSH1 0x4 MSTORE PUSH1 0x24 PUSH0 REVERT JUMPDEST PUSH1 0x3 DUP2 LT PUSH2 0x15C0 JUMPI PUSH2 0x15C0 PUSH2 0x159C JUMP JUMPDEST SWAP1 MSTORE JUMP JUMPDEST PUSH1 0x7 DUP2 LT PUSH2 0x15C0 JUMPI PUSH2 0x15C0 PUSH2 0x159C JUMP JUMPDEST PUSH0 PUSH2 0x120 DUP1 DUP4 MSTORE PUSH2 0x15E7 DUP2 DUP5 ADD DUP14 PUSH2 0x1555 JUMP JUMPDEST SWAP1 POP DUP3 DUP2 SUB PUSH1 0x20 DUP5 ADD MSTORE PUSH2 0x15FB DUP2 DUP13 PUSH2 0x1555 JUMP JUMPDEST SWAP1 POP DUP3 DUP2 SUB PUSH1 0x40 DUP5 ADD MSTORE PUSH2 0x160F DUP2 DUP12 PUSH2 0x1555 JUMP JUMPDEST SWAP2 POP POP DUP8 PUSH1 0x60 DUP4 ADD MSTORE DUP7 PUSH1 0x80 DUP4 ADD MSTORE PUSH1 0x1 PUSH1 0x1 PUSH1 0xA0 SHL SUB DUP7 AND PUSH1 0xA0 DUP4 ADD MSTORE PUSH2 0x163A PUSH1 0xC0 DUP4 ADD DUP7 PUSH2 0x15B0 JUMP JUMPDEST PUSH2 0x1647 PUSH1 0xE0 DUP4 ADD DUP6 PUSH2 0x15C4 JUMP JUMPDEST DUP3 PUSH2 0x100 DUP4 ADD MSTORE SWAP11 SWAP10 POP POP POP POP POP POP POP POP POP POP JUMP JUMPDEST PUSH4 0x4E487B71 PUSH1 0xE0 SHL PUSH0 MSTORE PUSH1 0x41 PUSH1 0x4 MSTORE PUSH1 0x24 PUSH0 REVERT JUMPDEST PUSH0 DUP1 PUSH1 0x40 DUP4 DUP6 SUB SLT ISZERO PUSH2 0x1681 JUMPI PUSH0 DUP1 REVERT JUMPDEST DUP3 CALLDATALOAD PUSH8 0xFFFFFFFFFFFFFFFF DUP1 DUP3 GT ISZERO PUSH2 0x1698 JUMPI PUSH0 DUP1 REVERT JUMPDEST DUP2 DUP6 ADD SWAP2 POP DUP6 PUSH1 0x1F DUP4 ADD SLT PUSH2 0x16AB JUMPI PUSH0 DUP1 REVERT JUMPDEST DUP2 CALLDATALOAD DUP2 DUP2 GT ISZERO PUSH2 0x16BD JUMPI PUSH2 0x16BD PUSH2 0x165C JUMP JUMPDEST PUSH1 0x40 MLOAD PUSH1 0x1F DUP3 ADD PUSH1 0x1F NOT SWAP1 DUP2 AND PUSH1 0x3F ADD AND DUP2 ADD SWAP1 DUP4 DUP3 GT DUP2 DUP4 LT OR ISZERO PUSH2 0x16E5 JUMPI PUSH2 0x16E5 PUSH2 0x165C JUMP JUMPDEST DUP2 PUSH1 0x40 MSTORE DUP3 DUP2 MSTORE DUP9 PUSH1 0x20 DUP5 DUP8 ADD ADD GT ISZERO PUSH2 0x16FD JUMPI PUSH0 DUP1 REVERT JUMPDEST DUP3 PUSH1 0x20 DUP7 ADD PUSH1 0x20 DUP4 ADD CALLDATACOPY PUSH0 PUSH1 0x20 SWAP4 DUP3 ADD DUP5 ADD MSTORE SWAP9 SWAP7 SWAP1 SWAP2 ADD CALLDATALOAD SWAP7 POP POP POP POP POP POP JUMP JUMPDEST PUSH0 PUSH1 0x20 DUP3 DUP5 SUB SLT ISZERO PUSH2 0x172F JUMPI PUSH0 DUP1 REVERT JUMPDEST POP CALLDATALOAD SWAP2 SWAP1 POP JUMP JUMPDEST PUSH0 PUSH1 0x20 DUP3 DUP5 SUB SLT ISZERO PUSH2 0x1746 JUMPI PUSH0 DUP1 REVERT JUMPDEST DUP2 CALLDATALOAD PUSH1 0x1 PUSH1 0x1 PUSH1 0xA0 SHL SUB DUP2 AND DUP2 EQ PUSH2 0x1595 JUMPI PUSH0 DUP1 REVERT JUMPDEST PUSH1 0x20 DUP2 ADD PUSH2 0x176A DUP3 DUP5 PUSH2 0x15B0 JUMP JUMPDEST SWAP3 SWAP2 POP POP JUMP JUMPDEST PUSH0 PUSH1 0x20 DUP1 DUP4 ADD DUP2 DUP5 MSTORE DUP1 DUP6 MLOAD DUP1 DUP4 MSTORE PUSH1 0x40 SWAP3 POP PUSH1 0x40 DUP7 ADD SWAP2 POP PUSH1 0x40 DUP2 PUSH1 0x5 SHL DUP8 ADD ADD DUP5 DUP9 ADD PUSH0 JUMPDEST DUP4 DUP2 LT ISZERO PUSH2 0x17D8 JUMPI DUP9 DUP4 SUB PUSH1 0x3F NOT ADD DUP6 MSTORE DUP2 MLOAD DUP1 MLOAD DUP8 DUP6 MSTORE PUSH2 0x17BB DUP9 DUP7 ADD DUP3 PUSH2 0x1555 JUMP JUMPDEST SWAP2 DUP10 ADD MLOAD SWAP5 DUP10 ADD SWAP5 SWAP1 SWAP5 MSTORE SWAP5 DUP8 ADD SWAP5 SWAP3 POP SWAP1 DUP7 ADD SWAP1 PUSH1 0x1 ADD PUSH2 0x1797 JUMP JUMPDEST POP SWAP1 SWAP9 SWAP8 POP POP POP POP POP POP POP POP JUMP JUMPDEST PUSH1 0x20 DUP2 ADD PUSH2 0x176A DUP3 DUP5 PUSH2 0x15C4 JUMP JUMPDEST PUSH1 0x40 DUP2 MSTORE PUSH0 PUSH2 0x1806 PUSH1 0x40 DUP4 ADD DUP6 PUSH2 0x1555 JUMP JUMPDEST SWAP1 POP DUP3 PUSH1 0x20 DUP4 ADD MSTORE SWAP4 SWAP3 POP POP POP JUMP JUMPDEST PUSH1 0x1 DUP2 DUP2 SHR SWAP1 DUP3 AND DUP1 PUSH2 0x1829 JUMPI PUSH1 0x7F DUP3 AND SWAP2 POP JUMPDEST PUSH1 0x20 DUP3 LT DUP2 SUB PUSH2 0x1847 JUMPI PUSH4 0x4E487B71 PUSH1 0xE0 SHL PUSH0 MSTORE PUSH1 0x22 PUSH1 0x4 MSTORE PUSH1 0x24 PUSH0 REVERT JUMPDEST POP SWAP2 SWAP1 POP JUMP JUMPDEST PUSH1 0x1F DUP3 GT ISZERO PUSH2 0x1894 JUMPI DUP1 PUSH0 MSTORE PUSH1 0x20 PUSH0 KECCAK256 PUSH1 0x1F DUP5 ADD PUSH1 0x5 SHR DUP2 ADD PUSH1 0x20 DUP6 LT ISZERO PUSH2 0x1872 JUMPI POP DUP1 JUMPDEST PUSH1 0x1F DUP5 ADD PUSH1 0x5 SHR DUP3 ADD SWAP2 POP JUMPDEST DUP2 DUP2 LT ISZERO PUSH2 0x1891 JUMPI PUSH0 DUP2 SSTORE PUSH1 0x1 ADD PUSH2 0x187E JUMP JUMPDEST POP POP JUMPDEST POP POP POP JUMP JUMPDEST DUP2 MLOAD PUSH8 0xFFFFFFFFFFFFFFFF DUP2 GT ISZERO PUSH2 0x18B3 JUMPI PUSH2 0x18B3 PUSH2 0x165C JUMP JUMPDEST PUSH2 0x18C7 DUP2 PUSH2 0x18C1 DUP5 SLOAD PUSH2 0x1815 JUMP JUMPDEST DUP5 PUSH2 0x184D JUMP JUMPDEST PUSH1 0x20 DUP1 PUSH1 0x1F DUP4 GT PUSH1 0x1 DUP2 EQ PUSH2 0x18FA JUMPI PUSH0 DUP5 ISZERO PUSH2 0x18E3 JUMPI POP DUP6 DUP4 ADD MLOAD JUMPDEST PUSH0 NOT PUSH1 0x3 DUP7 SWAP1 SHL SHR NOT AND PUSH1 0x1 DUP6 SWAP1 SHL OR DUP6 SSTORE PUSH2 0x1951 JUMP JUMPDEST PUSH0 DUP6 DUP2 MSTORE PUSH1 0x20 DUP2 KECCAK256 PUSH1 0x1F NOT DUP7 AND SWAP2 JUMPDEST DUP3 DUP2 LT ISZERO PUSH2 0x1928 JUMPI DUP9 DUP7 ADD MLOAD DUP3 SSTORE SWAP5 DUP5 ADD SWAP5 PUSH1 0x1 SWAP1 SWAP2 ADD SWAP1 DUP5 ADD PUSH2 0x1909 JUMP JUMPDEST POP DUP6 DUP3 LT ISZERO PUSH2 0x1945 JUMPI DUP8 DUP6 ADD MLOAD PUSH0 NOT PUSH1 0x3 DUP9 SWAP1 SHL PUSH1 0xF8 AND SHR NOT AND DUP2 SSTORE JUMPDEST POP POP PUSH1 0x1 DUP5 PUSH1 0x1 SHL ADD DUP6 SSTORE JUMPDEST POP POP POP POP POP POP JUMP JUMPDEST PUSH4 0x4E487B71 PUSH1 0xE0 SHL PUSH0 MSTORE PUSH1 0x11 PUSH1 0x4 MSTORE PUSH1 0x24 PUSH0 REVERT JUMPDEST DUP1 DUP3 MUL DUP2 ISZERO DUP3 DUP3 DIV DUP5 EQ OR PUSH2 0x176A JUMPI PUSH2 0x176A PUSH2 0x1959 JUMP JUMPDEST DUP1 DUP3 ADD DUP1 DUP3 GT ISZERO PUSH2 0x176A JUMPI PUSH2 0x176A PUSH2 0x1959 JUMP JUMPDEST DUP2 DUP2 SUB DUP2 DUP2 GT ISZERO PUSH2 0x176A JUMPI PUSH2 0x176A PUSH2 0x1959 JUMP JUMPDEST PUSH4 0x4E487B71 PUSH1 0xE0 SHL PUSH0 MSTORE PUSH1 0x32 PUSH1 0x4 MSTORE PUSH1 0x24 PUSH0 REVERT JUMPDEST DUP2 DUP2 SUB PUSH2 0x19C9 JUMPI POP POP JUMP JUMPDEST PUSH2 0x19D3 DUP3 SLOAD PUSH2 0x1815 JUMP JUMPDEST PUSH8 0xFFFFFFFFFFFFFFFF DUP2 GT ISZERO PUSH2 0x19EB JUMPI PUSH2 0x19EB PUSH2 0x165C JUMP JUMPDEST PUSH2 0x19F9 DUP2 PUSH2 0x18C1 DUP5 SLOAD PUSH2 0x1815 JUMP JUMPDEST PUSH0 PUSH1 0x1F DUP3 GT PUSH1 0x1 DUP2 EQ PUSH2 0x1A2A JUMPI PUSH0 DUP4 ISZERO PUSH2 0x1A13 JUMPI POP DUP5 DUP3 ADD SLOAD JUMPDEST PUSH0 NOT PUSH1 0x3 DUP6 SWAP1 SHL SHR NOT AND PUSH1 0x1 DUP5 SWAP1 SHL OR DUP5 SSTORE PUSH2 0x1891 JUMP JUMPDEST PUSH0 DUP6 DUP2 MSTORE PUSH1 0x20 DUP1 DUP3 KECCAK256 DUP7 DUP4 MSTORE SWAP1 DUP3 KECCAK256 PUSH1 0x1F NOT DUP7 AND SWAP3 JUMPDEST DUP4 DUP2 LT ISZERO PUSH2 0x1A60 JUMPI DUP3 DUP7 ADD SLOAD DUP3 SSTORE PUSH1 0x1 SWAP6 DUP7 ADD SWAP6 SWAP1 SWAP2 ADD SWAP1 PUSH1 0x20 ADD PUSH2 0x1A40 JUMP JUMPDEST POP DUP6 DUP4 LT ISZERO PUSH2 0x1A7D JUMPI DUP2 DUP6 ADD SLOAD PUSH0 NOT PUSH1 0x3 DUP9 SWAP1 SHL PUSH1 0xF8 AND SHR NOT AND DUP2 SSTORE JUMPDEST POP POP POP POP POP PUSH1 0x1 SWAP1 DUP2 SHL ADD SWAP1 SSTORE POP JUMP JUMPDEST PUSH4 0x4E487B71 PUSH1 0xE0 SHL PUSH0 MSTORE PUSH1 0x31 PUSH1 0x4 MSTORE PUSH1 0x24 PUSH0 REVERT INVALID LOG2 PUSH5 0x6970667358 0x22 SLT KECCAK256 SWAP14 KECCAK256 DUP15 0xBA LT 0xEC 0xE9 SGT SELFDESTRUCT LOG1 DUP16 DUP14 0xAC PUSH18 0xB960A630FD1D2EA0862A9FAE033F635DC5BA PUSH5 0x736F6C6343 STOP ADDMOD NOT STOP CALLER "
    },
    "gasEstimates": {
      "creation": {
        "codeDepositCost": "1374200",
        "executionCost": "infinite",
        "totalCost": "infinite"
      },
      "external": {
        "Pause()": "26636",
        "addRewardTier(string,uint256)": "infinite",
        "backers(address)": "4671",
        "category()": "2484",
        "deadline()": "2384",
        "description()": "infinite",
        "extendDeadline(uint256)": "infinite",
        "fund()": "infinite",
        "getBackerContribution(address)": "2587",
        "getCampaignDetails()": "infinite",
        "getRewardTiers()": "infinite",
        "goal()": "2384",
        "image()": "infinite",
        "manualStopCampaign()": "34174",
        "name()": "infinite",
        "owner()": "2404",
        "paused()": "2393",
        "refund()": "infinite",
        "removeRewardTier(uint256)": "infinite",
        "rewardTiers(uint256)": "infinite",
        "state()": "2468",
        "totalCollected()": "2383",
        "withdraw()": "infinite"
      },
      "internal": {
        "checkAndUpdateCampaignState()": "infinite"
      }
    },
    "methodIdentifiers": {
      "Pause()": "6985a022",
      "addRewardTier(string,uint256)": "22cc505a",
      "backers(address)": "b85dfb80",
      "category()": "ef430aa6",
      "deadline()": "29dcb0cf",
      "description()": "7284e416",
      "extendDeadline(uint256)": "389b7533",
      "fund()": "b60d4288",
      "getBackerContribution(address)": "ff48826b",
      "getCampaignDetails()": "0c611f24",
      "getRewardTiers()": "ecb6c66a",
      "goal()": "40193883",
      "image()": "f3ccaac0",
      "manualStopCampaign()": "141f51c4",
      "name()": "06fdde03",
      "owner()": "8da5cb5b",
      "paused()": "5c975abb",
      "refund()": "590e1ae3",
      "removeRewardTier(uint256)": "ecb0382e",
      "rewardTiers(uint256)": "ff201114",
      "state()": "c19d93fb",
      "totalCollected()": "e29eb836",
      "withdraw()": "3ccfd60b"
    }
  },
  "storageLayout": {
    "storage": [
      {
        "astId": 41,
        "contract": "Crowdfunding.sol:Crowdfunding",
        "label": "name",
        "offset": 0,
        "slot": "0",
        "type": "t_string_storage"
      },
      {
        "astId": 43,
        "contract": "Crowdfunding.sol:Crowdfunding",
        "label": "description",
        "offset": 0,
        "slot": "1",
        "type": "t_string_storage"
      },
      {
        "astId": 45,
        "contract": "Crowdfunding.sol:Crowdfunding",
        "label": "image",
        "offset": 0,
        "slot": "2",
        "type": "t_string_storage"
      },
      {
        "astId": 47,
        "contract": "Crowdfunding.sol:Crowdfunding",
        "label": "goal",
        "offset": 0,
        "slot": "3",
        "type": "t_uint256"
      },
      {
        "astId": 49,
        "contract": "Crowdfunding.sol:Crowdfunding",
        "label": "deadline",
        "offset": 0,
        "slot": "4",
        "type": "t_uint256"
      },
      {
        "astId": 51,
        "contract": "Crowdfunding.sol:Crowdfunding",
        "label": "owner",
        "offset": 0,
        "slot": "5",
        "type": "t_address"
      },
      {
        "astId": 53,
        "contract": "Crowdfunding.sol:Crowdfunding",
        "label": "paused",
        "offset": 20,
        "slot": "5",
        "type": "t_bool"
      },
      {
        "astId": 56,
        "contract": "Crowdfunding.sol:Crowdfunding",
        "label": "category",
        "offset": 21,
        "slot": "5",
        "type": "t_enum(Category)35"
      },
      {
        "astId": 59,
        "contract": "Crowdfunding.sol:Crowdfunding",
        "label": "state",
        "offset": 22,
        "slot": "5",
        "type": "t_enum(CampaignState)39"
      },
      {
        "astId": 73,
        "contract": "Crowdfunding.sol:Crowdfunding",
        "label": "rewardTiers",
        "offset": 0,
        "slot": "6",
        "type": "t_array(t_struct(RewardTier)64_storage)dyn_storage"
      },
      {
        "astId": 78,
        "contract": "Crowdfunding.sol:Crowdfunding",
        "label": "backers",
        "offset": 0,
        "slot": "7",
        "type": "t_mapping(t_address,t_struct(Backer)69_storage)"
      },
      {
        "astId": 80,
        "contract": "Crowdfunding.sol:Crowdfunding",
        "label": "totalCollected",
        "offset": 0,
        "slot": "8",
        "type": "t_uint256"
      }
    ],
    "types": {
      "t_address": {
        "encoding": "inplace",
        "label": "address",
        "numberOfBytes": "20"
      },
      "t_array(t_struct(RewardTier)64_storage)dyn_storage": {
        "base": "t_struct(RewardTier)64_storage",
        "encoding": "dynamic_array",
        "label": "struct Crowdfunding.RewardTier[]",
        "numberOfBytes": "32"
      },
      "t_bool": {
        "encoding": "inplace",
        "label": "bool",
        "numberOfBytes": "1"
      },
      "t_enum(CampaignState)39": {
        "encoding": "inplace",
        "label": "enum Crowdfunding.CampaignState",
        "numberOfBytes": "1"
      },
      "t_enum(Category)35": {
        "encoding": "inplace",
        "label": "enum Crowdfunding.Category",
        "numberOfBytes": "1"
      },
      "t_mapping(t_address,t_struct(Backer)69_storage)": {
        "encoding": "mapping",
        "key": "t_address",
        "label": "mapping(address => struct Crowdfunding.Backer)",
        "numberOfBytes": "32",
        "value": "t_struct(Backer)69_storage"
      },
      "t_string_storage": {
        "encoding": "bytes",
        "label": "string",
        "numberOfBytes": "32"
      },
      "t_struct(Backer)69_storage": {
        "encoding": "inplace",
        "label": "struct Crowdfunding.Backer",
        "members": [
          {
            "astId": 66,
            "contract": "Crowdfunding.sol:Crowdfunding",
            "label": "totalContribution",
            "offset": 0,
            "slot": "0",
            "type": "t_uint256"
          },
          {
            "astId": 68,
            "contract": "Crowdfunding.sol:Crowdfunding",
            "label": "hasClaimedRefund",
            "offset": 0,
            "slot": "1",
            "type": "t_bool"
          }
        ],
        "numberOfBytes": "64"
      },
      "t_struct(RewardTier)64_storage": {
        "encoding": "inplace",
        "label": "struct Crowdfunding.RewardTier",
        "members": [
          {
            "astId": 61,
            "contract": "Crowdfunding.sol:Crowdfunding",
            "label": "description",
            "offset": 0,
            "slot": "0",
            "type": "t_string_storage"
          },
          {
            "astId": 63,
            "contract": "Crowdfunding.sol:Crowdfunding",
            "label": "requiredAmount",
            "offset": 0,
            "slot": "1",
            "type": "t_uint256"
          }
        ],
        "numberOfBytes": "64"
      },
      "t_uint256": {
        "encoding": "inplace",
        "label": "uint256",
        "numberOfBytes": "32"
      }
    }
  },
  "userdoc": {
    "kind": "user",
    "methods": {
      "addRewardTier(string,uint256)": {
        "notice": "Cho phép chủ sở hữu thêm các mốc phần thưởng cho chiến dịch."
      },
      "fund()": {
        "notice": "Hàm chính cho phép người dùng ủng hộ một số tiền bất kỳ cho chiến dịch."
      },
      "manualStopCampaign()": {
        "notice": "Cho phép chủ sở hữu dừng chiến dịch thủ công bất kỳ lúc nào."
      },
      "refund()": {
        "notice": "Cho phép nhà đầu tư nhận lại tiền nếu chiến dịch thất bại."
      },
      "removeRewardTier(uint256)": {
        "notice": "Cho phép chủ sở hữu xóa một mốc phần thưởng."
      },
      "withdraw()": {
        "notice": "Cho phép chủ sở hữu rút tiền khi chiến dịch thành công."
      }
    },
    "version": 1
  }
}